:10000000F9C000001DC100001BC1000019C10000A3
:1000100017C1000015C1000013C1000011C100008C
:100020000FC100000DC100000BC1000009C100009C
:1000300007C1000005C1000003C1000001C10000AC
:100040000C945755FDC00000FBC00000F9C0000033
:10005000F7C00000F5C00000F3C00000F1C00000D0
:10006000EFC00000EDC00000EBC00000E9C00000E0
:10007000E7C00000E5C00000E3C00000E1C00000F0
:10008000DFC00000DDC00000DBC00000D9C0000000
:10009000D7C00000D5C00000D3C00000D1C0000010
:1000A000CFC00000CDC00000CBC00000C9C0000020
:1000B000C7C00000C5C00000C3C00000C1C0000030
:1000C000BFC00000BDC00000BBC00000B9C0000040
:1000D000B7C00000B5C00000B3C00000B1C0000050
:1000E000AFC00000ADC00000ABC00000A9C0000060
:1000F000A7C00000A5C00000A3C00000A1C0000070
:100100009FC000009DC000000C94B85699C000002C
:1001100097C0000095C0000093C0000091C000008F
:100120000C94F7568DC000008BC0000089C0000001
:1001300087C0000085C0000083C0000081C00000AF
:100140007FC000007DC000007BC0000079C00000BF
:1001500077C0000075C0000073C0000071C00000CF
:100160006FC000006DC000006BC0000069C00000DF
:1001700067C0000065C0000063C0000061C00000EF
:100180005FC000005DC000005BC0000059C00000FF
:1001900057C0000055C0000053C0000051C000000F
:1001A0004FC000004DC000004BC0000049C000001F
:1001B00047C0000045C0000043C0000041C000002F
:1001C0003FC000003DC000003BC0000039C000003F
:1001D00037C0000035C0000033C0000031C000004F
:1001E0002FC000002DC000002BC0000029C000005F
:1001F00027C0000011241FBEAFEFBFE3BEBFADBFDD
:10020000C2EAD0E0088117E0012B08831BBEE8EDAD
:10021000FCEB00E00BBFA0E0B0E2C6E2D8E202C017
:1002200007900D92AC17BD07D9F700270BBFC2ECA2
:10023000DAE201C01D92AC17BD07E1F703D0FFCF92
:10024000DFCE0895CF92DF92EF920F931F937894B1
:100250000E94F75B0E94225C81E08093860629EA77
:10026000C22E2AE2D22EC092A92AD092AA2AC092E5
:10027000AB2AD092AC2A0E949C5B0E949A570E94A3
:10028000B64880E090E00E94A03E0E94B12B85E439
:100290009AE28093A22A9093A32A82E49AE280931E
:1002A000A02A9093A12A83E068E00E94564480E44B
:1002B0008093C0086091A22A7091A32A80E00E94D6
:1002C00026546091A02A7091A12A80E040E000E0CD
:1002D00018E428EE31E091E1E92E0E94D654109204
:1002E0002A2810922B2885EE91E08093282890935D
:1002F00029286091A22A7091A32A4091A02A5091A6
:10030000A12A80E028E238E20E94D040809326288B
:10031000909327286AD01C2DCD2CF8942091A42AE4
:10032000222349F1822F90E08F709070892B19F071
:10033000322F40E004C0322F32953F7044E0832FCB
:1003400090E083709070892B19F44E5F3695369546
:1003500030FF11C0442379F42E7F2093A42A78948F
:10036000E091A52AF091A62A8091A72A9091A82A27
:100370001995F894D3CFE091A92AF091AA2A8AE29C
:10038000E93AF80701F1808191818093A92A90933D
:10039000AA2A8091AB2A9091AC2A8E179F0721F44C
:1003A0001093AB2AC092AC2ADF01129712961D92CD
:1003B0001C921397109739F07894ED91FC91119756
:1003C000CD011995AACF7894A8CF81E291E08093CE
:1003D000282890932928609126287091272887E65D
:1003E0009AE248E258E20C94EF3C0F931F93DF939C
:1003F000CF93CDB7DEB72F97CDBFDEBF0E940124CC
:100400008C010E940424DE011196FC018FE0019012
:100410000D928150E1F719861A8680E492E08B876D
:100420009C87C801BE016F5F7F4F4CE00E94A12AEC
:10043000C8010E94202A0E94C721109237281092DA
:1004400038288AEC92E080933528909336281092D1
:100450003B2810923C281092392810923A2885E3C4
:1004600098E244D22F96CDBFDEBFCF91DF911F918E
:100470000F91089589EA9AE265E378E20C942D40A1
:100480000F931F93CF93DF9380913D28882309F426
:100490007BC0662309F078C0EA018A85882321F0B1
:1004A000823009F071C037C000E510E08881998181
:1004B00060E570E00E94B15CFB0160932F287093AF
:1004C00030288A819B8160E570E00E94B15C9B01CD
:1004D00060932D2870932E28E09FC001E19F900D1E
:1004E000F09F900D11248093332890933428209FFF
:1004F000B001219F700D309F700D11246093312841
:100500007093322840E550E020E530E00FEF1FEF18
:100510000E94584D39C060913128709132288091E5
:1005200033289091342840E550E020E530E000E0A9
:1005300010E00E94584D80912D2890912E28880F10
:10054000991F880F991F20912F28280F2C30E0F435
:1005500030E086E190E0289FF001299FF00D389F60
:10056000F00D1124E156F94D84899589009761F0C9
:1005700010923D288093392890933A2889EA9AE28C
:1005800069E378E20E942D4081E0DF91CF911F91D5
:100590000F9108954F925F926F927F928F929F92E8
:1005A000AF92BF92CF92DF92EF92FF920F931F9381
:1005B000DF93CF9300D00F92CDB7DEB72C010E940E
:1005C000C421882331F089EA9AE2B2010E942D40C9
:1005D0006DC180912C288D3008F4A6C08091702ABE
:1005E0009091712AA091722AB091732A0097A10567
:1005F000B10509F093C00E94184862E070E00E94C3
:10060000B15C8B018091E2279091E127899F802D39
:100610001124A5E0FA2E8F9DC001112462E070E044
:100620000E94B15C061B170B0E941348AC01485294
:1006300050402091E2278091E127289F202D11240E
:100640002F9D9001112484E190E0B80100E010E0BA
:100650000E94BC4B0E94184862E070E00E94B15CAE
:100660008B018091E2279091E127899F802D1124B1
:100670008F9DC001112462E070E00E94B15C061BF6
:10068000170B0E941348AC01485250402091E227BA
:100690008091E127289F202D11242F9D9001112466
:1006A00084E190E0B80109EF15E40E94584D0091F3
:1006B000E2278091E127089F002D112410E00C5EB5
:1006C0001F4F0E941848FC012091E2278091E127EA
:1006D000289F802D11248F9DC001112462E070E0BD
:1006E0000E94B15C8091E027289F202D112430E0EA
:1006F000261B370BCF0162E070E00E94B15C260F31
:10070000371F8FE590E2B801A9012BED37E20FEF1B
:100710001FEFF8EFEF2EF12C0E940B5010922C28B7
:1007200081E080933D28C2C0882311F510923D28B6
:100730000E9413488C010E9418489C0180E090E0C0
:1007400060E070E0A8010E94A0470E9413488C015D
:100750000E9418489C0180E090E060E070E0A801F1
:1007600000E010E00E94BC4B0E9401240E94132A6A
:1007700040912C28642F70E09B012370307080E53D
:1007800090E0289F5001299FB00C389FB00C112495
:100790004695469580E5489F3001112486E190E01A
:1007A000689F8001699F100D789F100D11240855D6
:1007B000194DC8016BED77E2AE014F5F5F4F9E01AF
:1007C0002D5F3F4F0E94174E89819A8162E070E051
:1007D0000E94B15C9501261B370B285D3F4F8B8132
:1007E0009C8162E070E00E94B15CA301461B570B44
:1007F000485B5F4FC801B9012BED37E20FEF1FEFE8
:10080000E8EFEE2EF12C0E940B5080912C2816E17F
:10081000819FC00111248156994D0E94D335892BA7
:10082000D9F18BE090E0A80EB91E47E0842E912C00
:10083000860C971C80912C28819FC0011124815621
:10084000994DB501A40129E330E009E310E07201FC
:100850000E946F22882329F1C501B40149E350E0C9
:1008600029E330E00FEF1FEF0E94584D38E3C32E0D
:10087000D12CCA0CDB1C73018FE390E0E80EF91E4B
:10088000C501B401A60197010E948B4DC501B701B6
:10089000A60194010E948B4D89EA9AE2B2010E945E
:1008A0002D4080912C288F5F80932C282496CDBFDB
:1008B000DEBFCF91DF911F910F91FF90EF90DF90FE
:1008C000CF90BF90AF909F908F907F906F905F90F0
:1008D0004F900895E0913E28F0913F28FC96DC016E
:1008E00089E00D9001928150E1F70895CF92DF9257
:1008F000EF92FF920F931F936C0186E490E00E94A9
:10090000703E80933E2890933F28F0E4EF2EF8E26B
:10091000FF2EC7016BED77E24AE050E00E94AC3554
:1009200082E08093472800913E2810913F280E9442
:10093000CD57F80182A393A38AE694E00E94C5579D
:100940000E9413488C010E9418489C0180E090E0AE
:1009500060E070E0A8010E94A0470E9413488C014B
:100960000E9418489C0180E090E060E070E0A801DF
:1009700000E01FE10E94BC4B82E09AEB6AE070E06D
:1009800040E550E097010FEF1FEFE8EFEE2EF12C5E
:100990000E94A24F00913E2810913F280E941348C8
:1009A000C397F80184A395A300913E2810913F2896
:1009B0000E941848C397F80186A397A3E0903E28A9
:1009C000F0903F2802E310E0F70104A715A70E946A
:1009D0001848C397F70186A797A7E0913E28F091A2
:1009E0003F2804AB15AB06AB17AB66A177A184A17A
:1009F00095A145E050E02FEF3FEF0FEF0E94BB4A7B
:100A0000E0913E28F0913F28EB5BFF4F1082E554C8
:100A1000F040C482D582128213828DE195E08083FA
:100A2000918389EA9AE2BF010E942D401F910F91A4
:100A3000FF90EF90DF90CF9008950F931F93CF9387
:100A4000DF93EC018C010B5B1F4FD8018C9183303D
:100A500020F0833009F0D3C0A5C089EA9AE2BE0134
:100A60000E942D408CAD833009F0C9C01CAED80166
:100A7000EC91F0E0359653E0EE0FFF1F5A95E1F749
:100A8000EC0FFD1FCF5BDF4F88819981C154D040AF
:100A900080839183EC91F0E043E0EE0FFF1F4A95D5
:100AA000E1F7EC0FFD1FCD5BDF4F88819981C354C7
:100AB000D04082A793A78C91482F50E0CA0101979C
:100AC000DA01149633E0AA0FBB1F3A95E1F7AC0F99
:100AD000BD1FFA01359623E0EE0FFF1F2A95E1F7BF
:100AE000EC0FFD1F0D90BC91A02D2081318103E002
:100AF000880F991F0A95E1F78C0F9D1FFC0162A5D5
:100B000073A5FA0113E0EE0FFF1F1A95E1F7EC0F42
:100B1000FD1F82A593A5A21BB30BB7FF03C0B09521
:100B2000A195BF4FA45FB1406CF49B01281B390B0A
:100B3000C90137FF03C0909581959F4F845F914015
:100B40000CF45DC0FA01B3E0EE0FFF1FBA95E1F7B8
:100B5000EC0FFD1F66A177A184A195A145E050E0AF
:100B600020E03FE10FEF0E94BB4AFE01EB5BFF4F2D
:100B700080818F5F8083833008F041C0E82FF0E0F0
:100B8000A3E0EE0FFF1FAA95E1F7EC0FFD1F66A192
:100B900077A184A195A145E050E02FEF3FEF0E949F
:100BA000BB4A2DC06EA97FA98CA99DA945E050E044
:100BB00020E03FE10FEF0E94BB4A8E010A5F1F4F0A
:100BC000CE018496B8010E94DB57C8010E94D2571B
:100BD0008AA19BA10E94C55780913E2890913F28F1
:100BE0000E944E3EE0913E28F0913F28648175813D
:100BF0006115710521F089EA9AE20E942D40DF918A
:100C0000CF911F910F9108952F923F924F925F9233
:100C10006F927F928F929F92AF92BF92CF92DF920C
:100C2000EF92FF920F931F93DF93CF93CDB7DEB771
:100C30006A97CDBFDEBF8091B9209091BA20898399
:100C40009A83DE011B96E0E0F0E280E101900D92D4
:100C50008150E1F785E390E00E94703E6C010097BF
:100C600009F445C104E0202E312C280E391EC101A3
:100C70006BED77E24AE050E00E94AC3582E0809371
:100C8000E227F60114AA17A610AA11AA12AA13A6FF
:100C900014A615A616A6128A138A148A1B821C8211
:100CA0001D821E820E9413488F8398870E941848D5
:100CB00089879A870E94012413E0612E712C6C0EA3
:100CC0007D1EA601425F5F4FB30120E030E008EDDA
:100CD00017E076010E94052CF6018083918300972E
:100CE00009F4FBC00E94FD2B4C010E94202AF60152
:100CF000138E84E890E1848F958FBAE0AB2EB12CEF
:100D0000AB82BC82AD82BE8282ED90E08F839887F9
:100D10008EE190E089879A87A601495E5F4FC40102
:100D2000B30120E030E000E010E0EE24FF240E9458
:100D3000052C8C01009709F4C9C00E94FD2B0E946C
:100D4000202A85E090E08B839C83AD82BE828F81D8
:100D5000988583978F839887C8010E94FD2BB301E4
:100D600049EB50E221E00E948C2FF60182839383AD
:100D7000009709F4ABC00E94882F0E94202AAB8202
:100D8000BC8282E390E08D839E838DE290E08F832E
:100D9000988783E290E089879A87ABE0EA2EF12C6E
:100DA000EC0EFD1E01E010E023013E010894611CE1
:100DB000711CF70120812983332727FD3095C40159
:100DC000B201A3010E94C62C009709F47FC00E94C3
:100DD000C22C0E94202AC80183709070892B41F494
:100DE000AB82BC828D819E818D968D839E8305C052
:100DF0008B819C81C7968B839C830894E11CF11C9A
:100E00000F5F1F4F01311105A1F60E94F7313C0120
:100E100086EE90E08B839C8386E490E08D839E83B6
:100E20008CE390E08F8398878EE190E089879A87A2
:100E3000F3E0AF2EB12CAC0EBD1EC401B5014BEBDF
:100E400050E221E08301EBE7EE2EF12C0E942032EC
:100E50000097E1F10E94F3310E94202A8D819E814A
:100E600029853A85820F931F0A968D839E83C4013C
:100E7000B5014FEB50E220E03CE7E32EF12C0E945D
:100E80002032009719F10E94F3310E94202A88E253
:100E900090E08F83988789879A870E941348889764
:100EA0008B839C830E94184888978D839E83C401FE
:100EB000B50143EC50E22DE730E00E94C62C0097CC
:100EC00029F00E94C22C0E94202A12C0F6018081C3
:100ED00091810E94FD2B0E94722B8BED97E2B10154
:100EE0004AE050E00E94AC35C6010E944E3EC2DA94
:100EF0006A96CDBFDEBFCF91DF911F910F91FF901A
:100F0000EF90DF90CF90BF90AF909F908F907F90A9
:100F10006F905F904F903F902F900895CF93DF9305
:100F2000EC018CA99E01205E3F4F8130A9F48DB762
:100F30009EB70A978DBF9EBFEDB7FEB73196ADB78E
:100F4000BEB711962D933C9312978BE090E082836D
:100F5000938385EC90E212C0ADB7BEB71A97ADBFD0
:100F6000BEBFEDB7FEB7319611962D933C93129705
:100F70008BE090E0828393838BEC90E28483958373
:100F80008FA598A9A9A9BAA986839783A087B187B5
:100F90000E94023A8DB79EB70A968DBF9EBF8A8186
:100FA0009B81A096BE010E946730DF91CF9108958A
:100FB000EF92FF920F931F93CF93DF93162F0E9410
:100FC000012CEC011A337CF4103304F51A320CF4C2
:100FD000EEC01C320CF442C01D3209F43FC01F3277
:100FE00009F0E5C03BC0133409F4C2C0143424F442
:100FF0001D3309F0DCC045C01C3709F4C4C01D37DF
:1010000009F4C6C01B3709F0D2C0BBC06FA578A9D0
:1010100089A99AA96F3322E472072FE0820720E0A2
:1010200092070CF0C4C0E12EFF24E7FCF09420ED01
:101030003FEFE20EF31E0027F7FC0095102F2AE089
:1010400030E040E050E00E947E5CE60EF71E081F94
:10105000191FEFA6F8AA09AB1AAB97C08FA598A9DC
:10106000A9A9BAA90097A105B10509F4A0C08BA749
:101070009CA7ADA7BEA71FA618AA19AA1AAA1BABA0
:1010800084C08BA98B3261F08C3224F48A3209F04F
:1010900047C024C08D3289F08F3209F041C02DC085
:1010A0008FA598A9A9A9BAA92BA53CA54DA55EA570
:1010B000820F931FA41FB51F0CC08BA59CA5ADA5C7
:1010C000BEA52FA538A949A95AA9821B930BA40B29
:1010D000B50B8FA798ABA9ABBAAB22C06FA578A907
:1010E00089A99AA92BA53CA54DA55EA50E947E5C69
:1010F0006FA778AB89AB9AAB13C02FA538A949A9C4
:101100005AA9211531054105510551F06BA57CA562
:101110008DA59EA50E94E65C2FA738AB49AB5AABC4
:101120001BAA8FA598A9A9A9BAA9181619061A0663
:101130001B066CF4803432E493073FE0A30730E0F1
:10114000B3078CF08FE392E4AFE0B0E00CC0813CD9
:101150002DEB920720EFA2072FEFB20724F481ECCA
:101160009DEBA0EFBFEF8FA798ABA9ABBAAB0DC0BB
:101170001FA618AA19AA1AAA1BA61CA61DA61EA657
:1011800004C01CAA02C081E08CABCE01C7DE0FC038
:10119000BC016C5F7F4F8BED97E24AE050E00E940C
:1011A000AC3568D9CE010E944E3E81E001C080E09E
:1011B000DF91CF911F910F91FF90EF9008958F9243
:1011C0009F92AF92BF92CF92DF92EF92FF920F93D6
:1011D0001F93DF93CF93CDB7DEB72897CDBFDEBF88
:1011E00085E190E00E94703E80934A2890934B28BE
:1011F000009709F482C00B966BED77E24AE050E06D
:101200000E94AC3582E08093E227E0914A28F09179
:101210004B281682178210860E9401248C01F8E266
:10122000AF2EB12CA982BA82AB82BC820E94134835
:10123000805590408D839E830E9418488055904031
:101240008F839887C0904A28D0904B28A6014E5F84
:101250005F4FC8014E010894811C911CB40127EA1C
:1012600039E00EE819E0EAE4EE2EE8E2FE2E0E94F4
:10127000052CF60180839183E0914A28F0914B2858
:1012800080819181009739F10E94FD2B8C010E9491
:10129000202AAD82BE82AF82B8860E941348895749
:1012A000904089839A830E941848895790408B8385
:1012B0009C83C801B4014FEC50E221E030E00E9471
:1012C000C62C009729F00E94C22C0E94202A16C02A
:1012D000C8010E94722B60914A2870914B28655F6B
:1012E0007F4F8BED97E24AE050E00E94AC35809151
:1012F0004A2890914B280E944E3EBCD82896CDBFDC
:10130000DEBFCF91DF911F910F91FF90EF90DF90A3
:10131000CF90BF90AF909F908F900895613011F063
:1013200080E0089560914A2870914B28655F7F4F57
:101330008BED97E24AE050E00E94AC3580914A285C
:1013400090914B280E944E3E95D881E00895AF922F
:10135000BF92CF92DF92EF92FF920F931F93CF93A2
:10136000DF930E9413488C010E94184800551040DA
:101370009C012055304088E290E068E270E0A801CE
:1013800004E912EB0E94584D1BEDC12E17E2D12E3D
:1013900081ED90E267E370E047E350E096010FEFE4
:1013A0001FEFB8EFEB2EF12C0E940B509091E2272B
:1013B0008091E127989F402D1124C42FD0E0CC0FBD
:1013C000DD1FEB9683EE90E267E370E0AE019601DD
:1013D0000E940B509091E2278091E127989F402D29
:1013E0001124A42EBB2484E090E0A80EB91EAC0EFC
:1013F000BD1E84EF90E267E370E0A50196010E94B4
:101400000B509091E2278091E127989F402D112465
:10141000C42FD0E02496CA0DDB1D82E091E267E381
:1014200070E0AE0196010E940B504091E22780913E
:10143000E127489F402D112450E04C5F5F4F4C0F37
:101440005D1F83E191E267E370E096010E940B501B
:10145000DF91CF911F910F91FF90EF90DF90CF9090
:10146000BF90AF9008958091A8279091A927A0914F
:10147000AA27B091AB270097A105B10521F560918E
:101480004C2870914D286C5F7F4F86E291E20E945C
:10149000DA22611571058105910509F4AEC06093EA
:1014A000A8277093A9278093AA279093AB27E09150
:1014B0004C28F0914D2887EA97E2878B908F8081A6
:1014C000918161E05FC08091B2279091B327A09194
:1014D000B427B091B5270097A105B10521F560911A
:1014E0004C2870914D286C5F7F4F8FE291E20E94F3
:1014F000DA22611571058105910509F47EC06093BA
:10150000B2277093B3278093B4279093B527E091C7
:101510004C28F0914D2881EB97E2878B908F80814A
:10152000918162E02FC08091BC279091BD27A0914E
:10153000BE27B091BF270097A105B10539F560918D
:101540004C2870914D286C5F7F4F88E391E20E9498
:10155000DA22611571058105910509F44EC0609389
:10156000BC277093BD278093BE279093BF27E0913F
:101570004C28F0914D288BEB97E2878B908F8081E0
:10158000918163E00E94C63186EF08958091C6275D
:101590009091C727A091C827B091C927E0914C2806
:1015A000F0914D280097A105B105F9F4349680E437
:1015B00091E2BF010E94DA22611571058105910552
:1015C000E1F06093C6277093C7278093C827909354
:1015D000C927E0914C28F0914D2885EC97E2878B44
:1015E000908F8081918164E0CDCF808191810E9434
:1015F0009B300E94722B80E008958FEF08956F92C8
:101600007F928F929F92AF92BF92CF92DF92EF9292
:10161000FF920F931F93DF93CF93CDB7DEB7289739
:10162000CDBFDEBF84E290E00E94703EFC0180935B
:101630004C2890934D28009709F413C113A24996A2
:101640006BED77E24AE050E00E94AC3582E0809397
:10165000E227E0914C28F0914D281682178289EC00
:101660009EE0848395831486158616860E94012445
:101670008C0119821A821B821C820E9413488D835E
:101680009E830E9418488F839887C0904C28D090E2
:101690004D28A601485F5F4FC8013E010894611CB8
:1016A000711CB3012DED3CE005E41CE0ECE4EE2EF2
:1016B000E8E2FE2E0E94052CF60182839383E091DE
:1016C0004C28F0914D2882819381009709F4B7C08E
:1016D0000E94FD2B4C010E94202A88E290E08D831D
:1016E0009E838F8398870E941348889789839A8363
:1016F0000E94184888978B839C8300914C281091F6
:101700004D28C401B30149E451E222E030E00E94D7
:10171000C62CF801818B928B00914C2810914D289A
:10172000F80181899289892B09F486C089819A817F
:10173000889789839A83C401B3014BE451E220E086
:1017400030E00E94C62CF801838B948B00914C28CA
:1017500010914D28F80183899489892B09F46CC074
:1017600089819A81889789839A83C401B3014EE461
:1017700051E221E030E00E94C62CF801858B968B67
:10178000E0914C28F0914D2885899689892B09F4A0
:1017900053C019821A820E941348885790408D8343
:1017A0009E83A0904C28B0904D28C401B30144E022
:1017B00020E003E313EDEE24FF24CC240E94B0309C
:1017C000F50180839183E0914C28F0914D28808130
:1017D0009181009789F10E949B300E94202A43DE6C
:1017E000882341F5E0914C28F0914D2881E083A3B6
:1017F000C4010E94132AE0914C28F0914D28818960
:1018000092890E94C22C0E94202AE0914C28F091DB
:101810004D28838994890E94C22C0E94202AE0913D
:101820004C28F0914D28858996890E94C22C0E94EF
:10183000202A19C0863FB9F0C4010E94722B609122
:101840004C2870914D28675E7F4F8BED97E24AE000
:1018500050E00E94AC3580914C2890914D280E9418
:101860004E3E0E943A022896CDBFDEBFCF91DF9157
:101870001F910F91FF90EF90DF90CF90BF90AF90AE
:101880009F908F907F906F900895613081F06130CC
:1018900018F06230E9F41EC0E0914C28F0914D2818
:1018A00083A18F5F83A3863068F081E00AC0E09156
:1018B0004C28F0914D2883A1815083A3882311F4F3
:1018C00085E083A3828193810E94FD2B0E94132ACD
:1018D00080E0089560914C2870914D28675E7F4F9D
:1018E0008BED97E24AE050E00E94AC3580914C28A5
:1018F00090914D280E944E3E0E943A0281E0089548
:10190000AF92BF92CF92DF92EF92FF920F931F930D
:10191000CF93DF936C015B017A01FB012781868104
:10192000289FE00111242496CC0FDD1F0E9413484C
:10193000AC014650504083E090E0B6019E0103E3C5
:1019400013ED0E94BC4B0E941348AC01465050401E
:1019500083E090E0B6019E010AE11CE40E94584D2C
:10196000A6014D5F5F4FC7016AE070E095010FEF80
:101970001FEFF8EFEF2EF12C0E940B50F50187813D
:101980002681829FC0011124C80ED91E85E090E0F7
:10199000C80ED91E81E591E26AE070E0A6019501CA
:1019A0000E940B50DF91CF911F910F91FF90EF900C
:1019B000DF90CF90BF90AF900895CF92DF92EF92DB
:1019C000FF920F931F93CF93DF93E0914C28F091F8
:1019D0004D2883A1833009F4CEC0843030F48130A7
:1019E00059F0823009F0CCC121C0843009F4FFC025
:1019F000853009F0C5C16FC18DE791E26EE170E0FD
:101A00004CE350E025EC37E20FEF1FEFF8EFEF2E3D
:101A1000F12C0E940B508CE991E26FE570E046E9F1
:101A200050E027EA37E204E912EBA8C10091B82799
:101A30008091B727089F800111240B5F1F4F0E94E0
:101A40001348AC014650504083E090E0B80123E3D6
:101A500033ED0E944F4D89EA91E265E070E045E088
:101A600050E021EB37E20FEF1FEFE8EFEE2EF12C05
:101A70000E940B504091B727C42FD0E02A968AEBE2
:101A800091E265E070E0AE0121EB37E20E940B507D
:101A90004091B727C42EDD2482E090E0C80ED91E05
:101AA000CC0EDD1E88ED91E265E070E0A60121EB31
:101AB00037E20E940B504091B727C42FD0E0229606
:101AC000CC0DDD1D86EF91E265E070E0AE0121EB0B
:101AD00037E20E940B504091B727C42EDD2482E0EC
:101AE00090E0C80ED91ECC0EDD1E81E192E265E0C9
:101AF00070E0A60121EB37E20E940B504091B7271E
:101B0000C42FD0E02296CC0DDD1D8FE292E265E07D
:101B100070E0AE0121EB37E20E940B504091B727F5
:101B2000C42EDD2485E090E0C80ED91ECC0EDD1E4B
:101B300089E492E265E070E0A60121EB37E20E94C1
:101B40000B504091B727C42FD0E02296CC0DDD1D5D
:101B500088E692E265E070E0AE0121EB37E20E9498
:101B60000B504091B72750E04E5F5F4F4C0F5D1F09
:101B700084E892E2ADC083E090E065EC77E241E971
:101B800052E2BEDE9091CB278091CC27989FE00156
:101B90001124CC0FDD1F2E96CE016BED77E249E9C3
:101BA00052E2AEDE0091E1278091E227089F80019A
:101BB0001124000F111F055F1F4F0C0F1D1FC801BF
:101BC00067EA77E245EA52E29BDE8091AD272091F9
:101BD000AE27829FC0011124880F991F0B96800F9A
:101BE000911F61EB77E240EB52E28ADEC9C00091BF
:101BF000B8278091B727089F800111240B5F1F4FE2
:101C00000E941348AC014650504083E090E0B80178
:101C100023E333ED0E944F4D89EB92E265E070E0E3
:101C200045E050E021EB37E20FEF1FEFE8EFEE2E3B
:101C3000F12C0E940B504091B727C42EDD2489E07F
:101C400090E0C80ED91E8EEC92E265E070E0A6012D
:101C500021EB37E20E940B504091B727C42FD0E010
:101C60002296CC0DDD1D8AEE92E265E070E0AE01B9
:101C700021EB37E20E940B504091B727C42EDD24A0
:101C800082E090E0C80ED91ECC0EDD1E82E093E209
:101C900065E070E0A60121EB37E20E940B50409115
:101CA000B727C42FD0E02296CC0DDD1D80E293E251
:101CB00065E070E0AE0121EB37E20E940B504091ED
:101CC000B72750E04E5F5F4F4C0F5D1F8CE393E2F0
:101CD00065E070E051C087E593E268E270E045E0BE
:101CE00050E027EA37E20FEF1FEFB8EFEB2EF12CB1
:101CF0000E940B508FE693E265E070E04EE150E009
:101D00002BED37E20E940B5086E893E269E670E023
:101D100042E350E021EB37E20E940B5089E993E265
:101D200069E270E046E450E025EC37E20E940B5097
:101D30008BEA93E26AE070E04EE650E027EA37E291
:101D40000E940B5082ED93E266E970E04BE950E0AF
:101D50002BEB37E20E940B5084EE93E260E570E0DB
:101D60004AEA50E025EC37E20E940B508FEE93E2F6
:101D70006EE170E042ED50E021EB37E20E940B5043
:101D8000DF91CF911F910F91FF90EF90DF90CF9057
:101D900008950F931F93DF93CF93CDB7DEB760976E
:101DA000CDBFDEBFE0914C28F0914D280789108D02
:101DB0000115110509F1178A108EF8014181528130
:101DC00063817481CE01019620E130E00E94D35BF3
:101DD0008B81F80185838C8186838D8180878E81BC
:101DE000818781819281A381B4814096A11DB11D1B
:101DF00081839283A383B48336DB882359F5E091F2
:101E00004C28F0914D2881E083A3828193810E9428
:101E1000FD2B0E94132AE0914C28F0914D288189D6
:101E200092890E94C22C0E94202AE0914C28F091B5
:101E30004D28838994890E94C22C0E94202AE09117
:101E40004C28F0914D28858996890E94C22C0E94C9
:101E5000202A20C0863FF1F0E0914C28F0914D28D7
:101E6000828193810E94FD2B0E94722B60914C28ED
:101E700070914D28675E7F4F8BED97E24AE050E00E
:101E80000E94AC3580914C2890914D280E944E3E86
:101E90000E943A026096CDBFDEBFCF91DF911F91C5
:101EA0000F9108959F92AF92BF92CF92DF92EF92DF
:101EB000FF920F931F93DF93CF93CDB7DEB7289791
:101EC000CDBFDEBF8C0188E190E00E94703EFC0136
:101ED00080934E2890934F28009709F4DFC081E04B
:101EE000878BCF010D966BED77E24AE050E00E94C0
:101EF000AC35F2E09F2E9092E227E0914E28F091CF
:101F00004F280387148788E694E1D8018D939C932A
:101F10001682178210860E9401248C0119821A826F
:101F20001B821C820E9413488D839E830E94184846
:101F30008F839887C0904E28D0904F28A6014E5F7F
:101F40005F4FC8015E010894A11CB11CB5012CE2D1
:101F500031E10FE510E1EEE4EE2EE8E2FE2E0E9404
:101F6000052CF60180839183E0914E28F0914F2853
:101F700080819181009709F47FC00E94FD2B8C0124
:101F800088E290E08D839E838F8398870E94134818
:101F9000889789839A830E94184888978B839C83AB
:101FA000C801B5014EEF53E223E030E00E94C62C99
:101FB000009709F457C00E94C22C0E94202A8981F0
:101FC0009A81889789839A83C801B50140E054E2D9
:101FD00021E030E00E94C62C009709F443C00E9423
:101FE000C22C0E94202A89819A81889789839A83AA
:101FF000C801B50143E054E222E030E00E94C62C63
:10200000009781F10E94C22C0E94202A8091D02743
:102010009091D127A091D227B091D327E0914E285B
:10202000F0914F280097A105B105A1F4638574854F
:1020300086E094E20E94DA2261157105810591051E
:1020400089F06093D0277093D1278093D227909303
:10205000D32726C0978A808191810E94FD2B0E9400
:10206000202A1EC0E0914E28F0914F288081918156
:102070000E94FD2B0E94722B60914E2870914F2878
:10208000635F7F4F8BED97E24AE050E00E94AC35F2
:1020900080914E2890914F280E944E3E0E943A0215
:1020A0002896CDBFDEBFCF91DF911F910F91FF909A
:1020B000EF90DF90CF90BF90AF909F9008952091C8
:1020C000702A3091712A4091722A5091732AA3E0AC
:1020D0005695479537952795AA95D1F7822F8F5F0B
:1020E000623099F0633029F1613009F5E0914E28B2
:1020F000F0914F2827892F5F278B30E090E00396DF
:102100008217930774F482E00BC0E0914E28F0919F
:102110004F2887898150878B823018F4822F8C5FFB
:10212000878B808191810E94FD2B0E94132A80E081
:10213000089560914E2870914F28635F7F4F8BED1B
:1021400097E24AE050E00E94AC3580914E28909191
:102150004F280E944E3E0E943A0281E00895E0E03E
:1021600008C0BAE07695679557954795BA95D1F727
:10217000EF5F4130A4E15A07A0E06A07A0E07A07C8
:1021800018F0E43071F70895E130C9F0E13030F033
:10219000E23031F1E33009F05EC040C0EDB7FEB788
:1021A0003A97EDBFFEBF3196ADB7BEB711968D938E
:1021B0009C931297228333838FE094E221C0ADB7C2
:1021C000BEB71A97ADBFBEBFEDB7FEB73196119639
:1021D0008D939C9312972283338385E194E210C000
:1021E000ADB7BEB71A97ADBFBEBFEDB7FEB731965C
:1021F00011968D939C931297228333838CE194E202
:102200008483958346835783608771870E94023A4F
:10221000EDB7FEB73A96EDBFFEBF0895ADB7BEB7B6
:102220001A97ADBFBEBFEDB7FEB7319611968D932D
:102230009C9312972283338383E294E28483958371
:1022400046835783608771870E94023AEDB7FEB7D5
:102250003A96EDBFFEBF08952F923F924F925F9244
:102260006F927F928F929F92AF92BF92CF92DF92A6
:10227000EF92FF920F931F93DF93CF93CDB7DEB70B
:10228000EF97CDBFDEBFE0914E28F0914F286789D0
:10229000623008F407C3623009F0B4C00091D62759
:1022A0008091D527089F002D112410E00B5F1F4F50
:1022B0000E941348AC014650504083E090E0B801C2
:1022C00023E333ED0E944F4D8AE294E265E070E033
:1022D00045E050E02FEC37E20FEF1FEDF8EFEF2E67
:1022E000F12C0E940B5082E494E265E070E04EE134
:1022F00050E02FEC37E20E940B509091D62780914E
:10230000D527989F402D1124C42EDD2480E290E033
:10231000C80ED91E80E694E265E070E0A6012FECBD
:1023200037E20E940B509091D6278091D527989F35
:10233000402D1124A42EBB24A2E0B0E0AA0EBB1EA7
:10234000AC0CBD1C80E894E265E070E0A5012FECC8
:1023500037E20E940B509091D6278091D527989F05
:10236000402D1124C42EDD2487E090E0C80ED91E34
:10237000CA0CDB1C8DE994E265E070E0A6012FEC4D
:1023800037E20E940B509091D6278091D527989FD5
:10239000402D1124A42EBB24A2E0B0E0AA0EBB1E47
:1023A000AC0CBD1C88EB94E265E070E0A5012FEC5D
:1023B00037E20E940B509091D6278091D527989FA5
:1023C000402D1124C42EDD2482E090E0C80ED91ED9
:1023D000CA0CDB1C88ED94E265E070E0A6012FECEE
:1023E00037E20E940B504091D6278091D527489F15
:1023F000402D112450E04E5F5F4F4C0D5D1D87EF67
:1024000094E241C1633009F045C10091D627809123
:10241000D527089F002D112410E00B5F1F4F0E944D
:102420001348AC014650504083E090E0B80123E3EC
:1024300033ED0E944F4D8AE294E265E070E045E0A2
:1024400050E02FEC37E20FEF1FEDE8EFEE2EF12C0E
:102450000E940B5086E195E265E070E04EE150E0AD
:102460002FEC37E20E940B509091D6278091D52710
:10247000989F402D1124642E7724A5E2B0E06A0EC7
:102480007B1E8DB79EB708978DBF9EBFEDB7FEB779
:10249000319690E2C92ED12CCC0EDD1EADB7BEB761
:1024A0001196CD92DC9212978EE1A82EB12CA282C9
:1024B000B3828AE295E28483958380916A2A868337
:1024C00017820E94023A8DB79EB708968DBF9EBFB5
:1024D000C60165E070E0A3012FEC37E20E940B50CB
:1024E0009091D6278091D527989F402D1124842E36
:1024F0009924A2E0B0E08A0E9B1E860C971C8DB733
:102500009EB708978DBF9EBFEDB7FEB73196ADB7AA
:10251000BEB71196CD92DC921297A282B38282E46A
:1025200095E2848395838091702A9091712A8683A5
:1025300097830E94023A8DB79EB708968DBF9EBFC3
:10254000C60165E070E0A4012FEC37E20E940B5059
:102550009091D6278091D527989F402D1124642EE5
:102560007724A2E0B0E06A0E7B1E680C791C8E0115
:10257000065F1F4F40916C2A50916D2A60916E2A20
:1025800070916F2AC8012AE030E0E9DD8DB79EB76F
:1025900008978DBF9EBFEDB7FEB73196ADB7BEB7FA
:1025A0001196CD92DC921297A282B38287E595E2D2
:1025B00084839583068317830E94023A8DB79EB762
:1025C00008968DBF9EBFC60165E070E0A3012FECA9
:1025D00037E20FEF1FED0E940B509091D6278091AC
:1025E000D527989F402D1124C42EDD24A7E0B0E00C
:1025F000CA0EDB1EC60CD71C8CE695E265E070E0C7
:10260000A6012FEC37E20E940B509091D6278091C3
:10261000D527989F402D1124A42EBB2482E090E062
:10262000A80EB91EAC0CBD1C8AE895E265E070E00E
:10263000A5012FEC37E20E940B509091D627809194
:10264000D527989F402D1124C42EDD24A2E0B0E0B0
:10265000CA0EDB1ECA0CDB1C83EA95E265E070E063
:10266000A6012FEC37E20E940B504091D6278091B3
:10267000D527489F402D112450E04E5F5F4F4C0DF1
:102680005D1D8BEB95E265E070E02FEC37E20E9478
:102690000B5008C1660F660F660FB62FB052BFAF62
:1026A0002B2E332487E090E0280E391E210166246A
:1026B00057FC6094762CA9EFBFEF2A0E3B1E809149
:1026C000702A9091712AA091722AB091732A019771
:1026D000A109B10984159505A605B70510F42C01CB
:1026E0003D014EAE00E2C02ED12CCC0EDD1EC60147
:1026F00060E070E04EE150E00E94C5354E01089464
:10270000811C911CC40160E070E049E050E00E942F
:10271000C5351AE0A12EB12CAC0EBD1EC50160E07E
:1027200070E04AE050E00E94C5350091D6278091C4
:10273000D527089F002D112410E00B5F1F4F0E942A
:102740001348AC014650504083E090E0B80123E3C9
:1027500033ED0E944F4D8DEC95E265E070E045E071
:1027600050E02FEC37E20FEF1FEDB8EFEB2EF12C1E
:102770000E940B508DB79EB70A978DBF9EBFEDB7D5
:10278000FEB73196ADB7BEB71196CD92DC921297D7
:102790008EE190E0828393838DEE95E2848395832E
:1027A00026823782408611860E94023A8DB79EB7F4
:1027B0000A968DBF9EBFC60165E070E04EE150E015
:1027C0002FEC37E20E940B50AEE16A2E782C892C58
:1027D0005A2CAB2C9C2CCD2CF7E02F2EF6E23F2E62
:1027E0005CC08091D6279091D527899F802D112498
:1027F000680E87E69AE26FAD472D582D0E94993AF0
:1028000087E69AE2672D782DAE014C5E5F4F0E94FD
:10281000D23A488D598D6A8D7B8D8C899D89AE8980
:10282000BF89481B590B6A0B7B0B852D9A2D2AE01B
:1028300030E095DCADB7BEB71C97ADBFBEBFEDB7FE
:10284000FEB7319611969C9211971296CC928EE11A
:1028500090E082839383248235829FAD9683178292
:10286000708681865286A3860E94023AADB7BEB7B3
:102870001C96ADBFBEBF892D9C2D65E070E0462D36
:1028800050E02FEC37E20FEF1FEDE8EFEE2EF12CCA
:102890000E940B50BFADBF5FBFAF8FAD9EAD98170D
:1028A00008F09FCFEF96CDBFDEBFCF91DF911F9194
:1028B0000F91FF90EF90DF90CF90BF90AF909F90DF
:1028C0008F907F906F905F904F903F902F900895E2
:1028D000DF93CF93CDB7DEB76097CDBFDEBF40911A
:1028E000D0275091D1276091D2277091D327CE0164
:1028F000019620E130E00E94D35B8B818093D42746
:102900008C818093D5278D818093D7278E8180936A
:10291000D8278091D0279091D127A091D227B0912C
:10292000D3274096A11DB11D8093D0279093D12726
:10293000A093D227B093D327E0914E28F0914F284F
:1029400082E0878B808191810E94FD2B0E94202A4A
:102950006096CDBFDEBFCF91DF910895CF92DF9219
:10296000EF92FF920F931F93DF93CF93CDB7DEB714
:102970002997CDBFDEBFC82EE0915028F091512895
:102980001589838994890E94D335D82E0091702AA5
:102990007E010894E11CF11CCC2011F01F5F01C0E6
:1029A0001150011708F4101B112309F4102FE091A6
:1029B0005028F09151288589181799F087E69AE2F6
:1029C000612FA7010E94993AE0915028F091512877
:1029D00083899489B7014D2D50E00E94DE35892B03
:1029E000D9F6E0915028F0915128158B2996CDBF4A
:1029F000DEBFCF91DF911F910F91FF90EF90DF909D
:102A0000CF900895EF92FF920F931F93DF93CF9390
:102A1000CDB7DEB72997CDBFDEBFE0915028F0914A
:102A2000512887E69AE265898E010F5F1F4FA80142
:102A30000E94993AE0915028F0915128E080F1806D
:102A4000C80160E070E040E050E020E431E000EFD9
:102A500010E00E946F22E0915028F09151288823C5
:102A600019F481E0818B12C081E0808B389680E080
:102A7000BF010E947F56E0915028F0915128468571
:102A8000578580E03896BF010E943C562996CDBFFD
:102A9000DEBFCF91DF911F910F91FF90EF900895CE
:102AA0004F925F926F927F928F929F92AF92BF925E
:102AB000CF92DF92FF920F931F93DF93CF93CDB707
:102AC000DEB72F97CDBFDEBF3C012B010E94012452
:102AD0004C010E9413486C010E9418485C0186E179
:102AE00090E00E94703E8093502890935128009768
:102AF00009F4D0C080E090E060E070E0A6019501AC
:102B00000E94A04780E090E060E070E0A60195019F
:102B100000E010E00E94BC4B009150281091512819
:102B2000085F1F4F80E060E078E0A80123E836E10D
:102B30000E94925680E04FEF5FE360E070E00E94F9
:102B40009855F82E80E0B8014F2D0E940F5680E076
:102B50006F2D0E94D3550091502810915128F801F3
:102B60006687778784E0808B438A548A158A6082DF
:102B700071828EE696E1F3018083918319821A8235
:102B80001B821C82C60164E070E00E94B15C6D8310
:102B90007E83AF82B88619861A868DE996E18B8787
:102BA0009C87C4015E010894A11CB11CB5010E9460
:102BB000892BF8018283938300915028109151282A
:102BC000F80182819381892B09F45EC089819A8101
:102BD0002D813E81820F931F89839A83C60162E013
:102BE00070E00E94B15C6D837E83C401B5010E94D8
:102BF000892BF801848395830091502810915128E6
:102C0000F80184819581892BB9F18D819E8129817B
:102C10003A81820F931F89839A83C81AD90ACD8279
:102C2000DE82C401B5010E94892BF8018683978357
:102C3000E0915028F091512886819781892BC1F02D
:102C4000828193810E94202AE0915028F09151289E
:102C5000848195810E94202AE0915028F09151288A
:102C6000868197810E94202A81E078DECBDE14C025
:102C7000848195810E94722BE0915028F091512817
:102C8000828193810E94722B8091502890915128CB
:102C90000E944E3E0E943A022F96CDBFDEBFCF91DA
:102CA000DF911F910F91FF90DF90CF90BF90AF9079
:102CB0009F908F907F906F905F904F90089561E10B
:102CC00076E2EECE69E176E2EBCE6FE176E2E8CE37
:102CD00063E276E2E5CE67E276E2E2CEE09150286A
:102CE000F0915128118A389680E0BF010E947F56EA
:102CF000E0915028F09151284685578580E038961C
:102D0000BF010C943C561F93BC01E0915028F091F8
:102D100051281089115029F481E020DE73DE14E07F
:102D200005C04685578580E00E943C56E0915028BA
:102D3000F0915128108B1F9108951F93CF93DF932B
:102D4000EC01FA01662309F04BC08285823009F05C
:102D500047C01FB7F8946091502870915128685F60
:102D60007F4F80E00E9424561FBFE0915028F091D1
:102D7000512881898823A1F522813381C217D30785
:102D800021F480E1808B80E029C084819581C8177F
:102D9000D907E1F4C9010E94722BE0915028F0910B
:102DA0005128848195810E94722BE0915028F091E6
:102DB0005128868197810E94722B80915028909192
:102DC00051280E944E3E0E943A020AC08681978195
:102DD000C817D90729F484E0808B81E0BFDD12DEBB
:102DE00081E0DF91CF911F9108956F927F928F9232
:102DF0009F92AF92BF92CF92EF92FF920F931F9349
:102E0000DF93CF93CDB7DEB76897CDBFDEBF3C0170
:102E10000E9413488C010E9418489C0180E090E0B9
:102E200060E070E0A8010E94A0470E9413488C0156
:102E30000E9418489C0180E090E060E070E0A801EA
:102E400000E010E00E94BC4B87E390E00E94703EDF
:102E500080935A2890935B28009709F485C10496C3
:102E60006BED77E24AE050E00E94AC3582E080935F
:102E7000E2271A861B861C861D860E9413488E87B1
:102E80009F870E941848888B998B0E9401246AE0D2
:102E9000862E912C8C0E9D1EB40140E050E020E067
:102EA00030E009E91AE1EE24FF240E94052C009786
:102EB00009F448C1E0915A28F0915B2882839383FA
:102EC0000E94FD2B5C0100915A2810915B280C5E3A
:102ED0001F4F80E060E078E0A80125E739E10E941B
:102EE000925680E04EE150E060E070E00E9498551C
:102EF000F82E80E0B8014F2D0E940F5680E06F2D14
:102F00000E94D35500915A2810915B282EE130E0A1
:102F100040E050E00E94C45CF801258F368F81E0CC
:102F200090E0A0E0B0E081A392A3A3A3B4A389E0C2
:102F300090E0878F90A387E290E08A879B8785E562
:102F400090E08C879D8785E290E08E879F8789E659
:102F500090E0888B998BC501B4014FE72FE30CE01B
:102F6000EE24FF240E94CC33009709F4E1C0E091E5
:102F70005A28F0915B28808B918B0E94BE330E946F
:102F8000202A86E890E08A879B878BE390E08C87F5
:102F90009D8784E390E08E879F8789E790E0888B08
:102FA000998BC501B4014FE720E000E01FE151E239
:102FB000E52E54E0F52E33E0C32E0E94B03000978A
:102FC00009F4B6C0E0915A28F0915B28868797876C
:102FD0000E949B300E94202A8AEF90E08A879B877C
:102FE00084E690E08C879D8784E190E08E879F87C0
:102FF0008DE290E0888B998BC501B4014FE720E00A
:1030000006E418E00E94B030009709F491C0E09106
:103010005A28F0915B28828B938B0E949B300E94F0
:10302000202A0E94134888978A879B870E94184805
:1030300088978C879D8788E290E08E879F87888B12
:10304000998BC501B4014AE256E221E030E00E94CA
:10305000C62C009709F46CC00E94C22C0E94202A42
:10306000E0915A28F0915B2881E0838F148E608272
:10307000718286E290E089839A838B839C8383E0CC
:103080008D83B596DE01119689E00D9001928150F5
:10309000E1F7E0915A28F0915B2886E290E089837D
:1030A0009A838B839C8383E08D83BE96DE01119689
:1030B00089E00D9001928150E1F78091562890911E
:1030C0005728A0915828B0915928E0915A28F0919A
:1030D0005B280097A105B105F9F082E0828F80910D
:1030E000522890915328A0915428B091552882A736
:1030F00093A7A4A7B5A7E0915A28F0915B288091E7
:10310000562890915728A0915828B091592883AB00
:1031100094ABA5ABB6AB01C0128E87EC98E1F3017E
:103120008083918389EA9AE2B3010E942D401EC0F8
:10313000E0915A28F0915B28828193810E94FD2BB7
:103140000E94722B60915A2870915B286C5F7F4FB0
:103150008BED97E24AE050E00E94AC3580915A280E
:1031600090915B280E944E3E0E943A026896CDBF25
:10317000DEBFCF91DF911F910F91FF90EF90CF9025
:10318000BF90AF909F908F907F906F900895EF9237
:10319000FF920F931F93CF93DF93EC01E0915A2896
:1031A000F0915B28828D813029F1813030F08230BE
:1031B000F1F1833009F092C050C08CE296E2BE017A
:1031C0000E94DA22611571058105910509F464C038
:1031D00060935228709353288093542890935528D5
:1031E000E0915A28F0915B2862A773A784A795A75E
:1031F00081E031C085E396E2BE010E94DA226115CA
:1032000071058105910509F447C0609356287093B4
:1032100057288093582890935928E0915A28F09184
:103220005B2863AB74AB85AB96AB82E014C08EE3D6
:1032300096E260E070E040E050E020E431E000EF32
:1032400010E07E010E946F22882331F5E0915A2818
:10325000F0915B2883E0828F41C0828193810E943C
:10326000FD2B0E94202A8AE899E188839983609146
:103270005A2870915B286C5E7F4F80E00E947F56D9
:10328000E0915A28F0915B28458D568D80E0749628
:10329000BF010E943C5622C0E0915A28F0915B2861
:1032A000828193810E94FD2B0E94722B60915A288B
:1032B00070915B286C5F7F4F8BED97E24AE050E0A6
:1032C0000E94AC3580915A2890915B280E944E3E16
:1032D00010925A2810925B280E943A02DF91CF91F7
:1032E0001F910F91FF90EF900895E0915A28F0916F
:1032F0005B28458D568D80E07496BF010E943C5638
:10330000E0915A28F0915B286081718189EA9AE204
:103310000C942D409F92AF92BF92CF92DF92EF928A
:10332000FF920F931F93CF93DF93E0915A28F09170
:103330005B28309709F4F1C0868597850E949F30FD
:10334000A82EBB24E0915A28F0915B2880899189AE
:103350000E94C233982EE0915A28F0915B2882890E
:1033600093890E949F30C82FD0E0C0905A28D090F7
:103370005B28F60121A132A143A154A1878D90A120
:103380000197878F90A3892B09F043C089E090E0D3
:10339000878F90A3BE0180E090E0637070708070B2
:1033A000907062277327842795271616170618062C
:1033B000190624F061E070E080E090E06F3771055D
:1033C0008105910524F06EE770E080E090E0FFE772
:1033D000EF2EF12C012D112DE61AF70A080B190B0F
:1033E0002FE430E040E050E00E947E5CA8019701AD
:1033F0000E947E5C2CEE39E040E050E00E94E65CEA
:10340000C901DA019C01AD01F60121A332A343A356
:1034100054A3CC0FDD1FCA0DDB1DC20FD31FD695E1
:10342000C795D695C795C038D10510F0CFE7D0E045
:10343000292D30E02C1B3D0BC90164E070E00E9497
:10344000B15C8B010A0D1B1DF601848D101611064F
:1034500084F0882359F481E0F601848F828993896E
:1034600062EC78E041E254E00E94A23000E010E01B
:103470000CC0882351F0F601148E8289938966E48A
:1034800078E041E254E00E94A230E0915A28F091A5
:103490005B28828993896C2F0E94C631E0915A285B
:1034A000F0915B280F37110584F0838D882321F07C
:1034B000C0E0D0E0EE2406C081E0838FEF01A59646
:1034C000EE24E3940FE710E00CC0838D882321F4F1
:1034D000C0E0D0E0EE2405C0138EEF01AE96EE24DE
:1034E000E394E0915A28F0915B2886859785602FB8
:1034F0000E94C631EE2089F081EF90E06AE170E031
:1035000046E151E02FE330E00E94A047CE0161EF99
:1035100070E04AE150E00E94F352DF91CF911F9199
:103520000F91FF90EF90DF90CF90BF90AF909F9062
:103530000895613011F080E0089560915A287091EB
:103540005B286C5E7F4F80E00E94245660915A2871
:1035500070915B286C5F7F4F8BED97E24AE050E003
:103560000E94AC3580915A2890915B280E944E3E73
:1035700010925A2810925B280E943A0281E0089526
:10358000FB01DA01282F30E02370307043E450E073
:10359000B901649F9001659F300D749F300D112417
:1035A000225E3F4F208331838695869523E4829F58
:1035B000C001112405968D939C9308950F931F933A
:1035C000CF93DF93EC012091D9273091DA270DECCE
:1035D00011E6C901809F9001819F300D909F300DB1
:1035E00011242F5F3F4FC9016CE070E00E949D5C89
:1035F000FE01E80FF11D90819F3F59F32093D927D9
:103600003093DA278FEF8083892FDF91CF911F913D
:103610000F910895CF92DF92FF920F931F93DF9344
:10362000CF93CDB7DEB72C97CDBFDEBFE0915C283E
:10363000F0915D28808191810E94132A9E012F5F65
:103640003F4FF901AE01435F5F4F8E2F821B819385
:10365000E417F507D1F700915C2810915D28FF244D
:103660006E010894C11CD11CC601A8DFA82FB0E0D0
:10367000FD017096EE0FFF1FE00FF11FF082AA0F01
:10368000BB1FA00FB11F91961C92C60197DFA82FF8
:10369000B0E0FD017096EE0FFF1FE00FF11FF0820A
:1036A000AA0FBB1FA00FB11F91961C92F39486E046
:1036B000F816D1F6F80114AE81E087AF11AEF3AE83
:1036C00010AE6385748589EA9AE20E942D402C969B
:1036D000CDBFDEBFCF91DF911F910F91FF90DF90A3
:1036E000CF900895AF92BF92CF92DF92EF92FF9268
:1036F0000F931F93DF93CF93CDB7DEB72F97CDBF37
:10370000DEBF7C010E9413485C010E9418486C01D6
:1037100080E090E060E070E0A50196010E94A04783
:1037200080E090E060E070E0A501960100E010E02C
:103730000E94BC4B80E490E00E94703EFC018093AC
:103740005C2890935D28009709F4FDC081E69FE115
:10375000D7018D939C93E386F486CF010D966BED94
:1037600077E24AE050E00E94AC3582E08093E227A5
:1037700000915C2810915D28095E1F4F80E060E099
:1037800078E0A80123E63FE10E94925680E04FEFE7
:103790005FE360E070E00E949855F82E80E0B80189
:1037A0004F2D0E940F5680E06F2D0E94D355E0915F
:1037B0005C28F0915D289695879577956795658F3C
:1037C000768F16821782108619821A821B821C82BB
:1037D000AD82BE82CF82D88680915C2890915D2890
:1037E000029689879A8782EE9EE18B879C870E944A
:1037F00001246E010894C11CD11CB6010E94892BC2
:103800008C01009709F489C0E0915C28F0915D2853
:10381000808391830E941348889789839A830E94AA
:10382000184888978B839C8348E2E42EF12CED8224
:10383000FE82EF82F886C801B60147E456E222E034
:1038400030E00E94C62C009709F45FC00E94C22C91
:103850000E94202A0E9413488857904089839A83A7
:103860000E94184888978B839C8380E590E08D8325
:103870009E83EF82F886C801B60149E456E221E052
:1038800030E00E94C62C009709F43FC00E94C22C71
:103890000E94202A19821A820E9418484091E22729
:1038A0002091E127429F402D112446952CEE3FEFB9
:1038B000241B3109280F391F2B833C830E94134896
:1038C000885790408D839E838091E2279091E127D5
:1038D000899F802D11248F831886C801B6014DE47D
:1038E00056E220E00E948C2F009779F0E0915C284E
:1038F000F0915D2885AF96AF0E94882F0E94202A04
:10390000C8010E94202A86DE20C0E0915C28F09148
:103910005D28808191810E94722B60915C2870915A
:103920005D28635F7F4F8BED97E24AE050E00E9495
:10393000AC3580915C2890915D280E944E3E10929B
:103940005C2810925D280E943A022F96CDBFDEBF00
:10395000CF91DF911F910F91FF90EF90DF90CF906B
:10396000BF90AF900895EF92FF920F931F93DF9354
:10397000CF9300D00F92CDB7DEB7282F662369F121
:10398000E0915C28F0915D2890E04096880F991FA7
:10399000E80FF91FE081E230A1F0E33028F4EE23D4
:1039A00069F0E130D1F407C0E43089F0E43060F030
:1039B000E53099F40FC008E516E211C00FE516E2F4
:1039C0000EC007E616E20BC00DE616E208C005E7DA
:1039D00016E205C00DE716E202C00FE416E2822FE0
:1039E000BE016F5F7F4FAE014D5F5F4FC9DD6981E3
:1039F0007A814B815C81E0915C28F0915D28E384C1
:103A0000F484C80129E330E009E310E068D5882395
:103A100001F1E0915C28F0915D28808191810E9404
:103A2000722B60915C2870915D28635F7F4F8BEDF6
:103A300097E24AE050E00E94AC3580915C2890917A
:103A40005D280E944E3E10925C2810925D280E94D4
:103A50003A022496CDBFDEBFCF91DF911F910F9127
:103A6000FF90EF900895EF92FF920F931F93DF93D3
:103A7000CF93CDB7DEB72B97CDBFDEBF982F209168
:103A80005C2830915D28D901D996FC90D997DA96B7
:103A90008C91DA97D8961C91133009F473C01430C6
:103AA00038F4113009F452C0123008F067C00DC06C
:103AB000153009F464C1153008F4BAC0163009F4A1
:103AC00067C1173009F074C16CC1BBE0BF1528F0A5
:103AD0008F2D60E048DFF39433C0EDB7FEB7389721
:103AE000EDBFFEBF31968E010F5F1F4FADB7BEB762
:103AF00011960D931C9312978BE090E08283938331
:103B000085E896E284839583D901DC968C9186833F
:103B100017820E94023AEDB7FEB73896EDBFFEBF9E
:103B2000E0915C28F0915D2885AD96ADB8010E94CA
:103B30006730E0915C28F0915D2881E080AF17AE9E
:103B4000E0915C28F0915D28F1AE32C1E92FF0E000
:103B5000EE0FFF1FE20FF31F81A1882309F028C198
:103B6000D901D9969C93892F61E0FDDEE0915C2814
:103B7000F0915D2882E080AF17AF1AC183E0F901B0
:103B800080AFDEC09F1509F413C1E92FF0E0EE0FFE
:103B9000FF1FE20FF31F81A1882309F009C1D9019A
:103BA000DA969C93892F61E0DEDEE0915C28F0914B
:103BB0005D2884AD8F5F84AFEDB7FEB73897EDBF5A
:103BC000FEBFADB7BEB711968E010F5F1F4F0183C9
:103BD00012838BE090E012968D939C93139785E867
:103BE00096E214968D939C931597E0915C28F09142
:103BF0005D2884AD16968C93169717961C920E949A
:103C0000023A8DB79EB708968DBF9EBFE0915C28A3
:103C1000F0915D2885AD96ADB8010E946730E091C6
:103C20005C28F0915D2884E080AF81E087AFC0C060
:103C30004F2D50E0682F70E0DA015096AA0FBB1F9D
:103C4000A20FB31FFB017096EE0FFF1FE20FF31FD1
:103C50009C918081981709F075C0D901DB968C91F1
:103C6000DB978150DB968C93882309F052C00E9429
:103C700013488C010E9418489C0180E090E060E0AD
:103C800070E0A8010E94A04784E08093E2278FE8BB
:103C900096E26EE270E04AE650E02BED37E20FEF7D
:103CA0001FEDA8EFEA2EF12C0E940B508FE896E250
:103CB0006CE270E048E650E02BED37E20E940B50DA
:103CC0008FE896E26EE270E048E650E02BED37E2D6
:103CD0000E940B508FE896E26CE270E04AE650E0FA
:103CE0002BED37E20E940B508FE896E26DE270E018
:103CF00049E650E02BED37E20DEF10E00E940B504B
:103D000082E08093E227E0915C28F0915D2888E0D2
:103D100012C0440F551F420F531F81E0FA0181A3C7
:103D2000660F771F260F371FD90191968C93E0916C
:103D30005C28F0915D2880AFE0915C28F0915D28CF
:103D400017AE36C083E0F901878F60915C287091CF
:103D50005D28695E7F4F80E00E947F56E0915C287D
:103D6000F0915D28458D568D80E07796BF010E94C9
:103D70003C56E0915C28F0915D2885E010C08F2DC5
:103D800060E0F1DDE0915C28F0915D2886E007C0FD
:103D900060E0E9DDE0915C28F0915D2887E080AF8C
:103DA00007C081E0D901D8968C93D897DF961C92F2
:103DB0002B96CDBFDEBFCF91DF911F910F91FF906A
:103DC000EF900895AF92BF92CF92DF92FF920F9340
:103DD0001F93DF93CF9300D00F92CDB7DEB7E09162
:103DE0005C28F0915D2887AD882309F05CC06623CC
:103DF00041F1623009F057C0413021F0423009F002
:103E000052C002C007DC4FC0808191810E94722B9A
:103E100060915C2870915D28635F7F4F8BED97E226
:103E20004AE050E00E94AC3580915C2890915D287A
:103E30000E944E3E10925C2810925D280E943A0229
:103E400032C08A01FA018285882369F5FF2453E094
:103E5000A52EB12CAC0EBD1E6E010894C11CD11C48
:103E60008F2DB601A5018CDBF8016081718129815C
:103E70003A81621773079CF0428153818B819C8148
:103E80004817590764F0285C3F4F261737073CF066
:103E9000C896841795071CF08F2DE5DD04C0F394B8
:103EA000FCE0FF16E9F681E02496CDBFDEBFCF919E
:103EB000DF911F910F91FF90DF90CF90BF90AF9057
:103EC00008958FEFD0CDE0915C28F0915D28878D2B
:103ED0008150878FBF01695E7F4F882329F0458D10
:103EE000568D80E00C943C5680E00E942456E09170
:103EF0005C28F0915D286385748589EA9AE20C94C8
:103F00002D40CF93DF93EC018AA1813029F06FEF30
:103F100070EE41E050E804C067E070EE43E05CE220
:103F20008BA1882319F0CA01AB01BC018C819D8152
:103F30000E94A2308C819D810E949B300E94132A96
:103F4000DF91CF9108952F923F924F925F926F929F
:103F50007F928F929F92AF92BF92CF92DF92EF9219
:103F6000FF920F931F93DF93CF93CDB7DEB72897C0
:103F7000CDBFDEBF84E290E00E94703EFC018093E2
:103F80005E2890935F28009709F4A2C112A2E091E5
:103F90005E28F0915F2813A2CF0148966BED77E27F
:103FA0004AE050E00E94AC3582E08093E22729D4B9
:103FB0008C01E0915E28F0915F28128613861486AA
:103FC00019821A821B821C820E9413488D839E8351
:103FD0000E9418488F839887C0905E28D0905F28F1
:103FE000A6014A5F5F4FC8013E010894611C711C25
:103FF000B30120E030E000E811E276010E94052CD8
:10400000F60180839183E0915E28F0915F288081A2
:104010009181009709F44AC10E94FD2B1C010E9466
:10402000202A8AE090E089839A838B839C83CE0147
:10403000059660E170E20E945E30C101B30140E18B
:1040400050E220E00E948C2F009709F425C10E94C5
:10405000882F0E94202AE0915E28F0915F28138A21
:104060008AE59BEC848B958B8DE290E089839A8323
:104070008B819C812F813885820F931F0A968B83B9
:104080009C830E9413488A5590408D839E830E9492
:1040900018482B813C81821B930B4E978F83988706
:1040A00040915E2850915F28415F5F4FC101B3018D
:1040B00020E030E000E010E0EE24FF240E94052C18
:1040C000009709F4E9C00E94FD2B4C010E94202AB0
:1040D000EAE0F0E0E983FA83EB83FC83B0E54B2E62
:1040E000512C4D825E82A8E2AA2EB12CAF82B886F6
:1040F000C0905E28D0905F28C401B30144E622E35B
:1041000002E0F1E0EF2EF12C0E94CC33F601828325
:104110009383E0915E28F0915F28828193810097DC
:1041200009F4BAC00E94BE330E94202A89819A8174
:104130002D813E81820F931F0A9689839A834D8237
:104140005E82AF82B886A0905E28B0905F28C401DE
:10415000B30144E622E300E010E0EE24FF24CC2487
:104160000E94B030F50184839583E0915E28F09140
:104170005F2884819581009709F48EC00E949B304E
:104180000E94202A80915E2890915F28BADE8AE002
:1041900090E089839A838B819C812F813885820F5F
:1041A000931F44968B839C83CE01059666E270E252
:1041B0000E94622FC401B30146E250E220E002E017
:1041C00010E00E943A2E009709F466C00E94362E35
:1041D0000E94202A0E94F7316C01009709F45CC00C
:1041E000EAE0F0E0E983FA838B819C812F813885B6
:1041F000820F931F05968B839C83CE01059664E303
:1042000070E20E949833C401B30144E350E221E01C
:104210008601E3E0EE2EF12C0E9420320097E1F1BE
:104220000E94F3310E94202A8B819C812F81388546
:10423000820F931F05968B839C83C401B30143E4D3
:1042400050E220E034E0E32EF12C0E94203200976F
:1042500019F10E94F3310E94202A88E290E08D83B8
:104260009E838F8398870E941348889789839A83B7
:104270000E94184888978B839C83C101B3014AE947
:1042800056E225E030E00E94C62C009729F00E94FB
:10429000C22C0E94202A1EC0E0915E28F0915F2867
:1042A000808191810E94FD2B0E94722B60915E287B
:1042B00070915F28685E7F4F8BED97E24AE050E097
:1042C0000E94AC3580915E2890915F280E944E3EFE
:1042D0000E943A022896CDBFDEBFCF91DF911F9199
:1042E0000F91FF90EF90DF90CF90BF90AF909F9095
:1042F0008F907F906F905F904F903F902F90089598
:104300000F931F93CF93DF93062F0E94012CEC0194
:10431000033071F104302CF40130D1F0023071F52A
:1043200022C0043039F1053049F560915E28709162
:104330005F28685E7F4F8BED97E24AE050E00E9475
:10434000AC35CE010E944E3E0E943A0281E017C079
:104350000C811D818A819B810E94C233682FC80114
:104360000E94C6310BC08BA191E089278BA304C0AA
:104370001AA202C081E08AA3CE01C3DD80E0DF91F2
:10438000CF911F910F910895809100290895109267
:104390006E2810926F2882ED91E280936C289093A2
:1043A0006D280895AF92BF92CF92DF92EF92FF9265
:1043B0000F931F930E9413488C010E9418489C0180
:1043C00080E090E060E070E0A8010E94A047C0900B
:1043D0007E28D0907F2800917628109177288091B0
:1043E000722890917328080F191FE0907828F09098
:1043F00079288091742890917528E80EF91E80E83C
:1044000098E2B60140E050E020E030E0A1E0AA2EC2
:10441000B12C0E94E44980917228909173282091D8
:104420007E2830917F28820F931F8093722890936B
:10443000732800917A2810917B28801791076CF0DF
:104440008091742890917528019680937428909398
:10445000752810927228109273288091722890917A
:104460007328081B190B0134110510F000E410E04B
:1044700000937E2810937F28000F111F20E030E06A
:1044800087E69AE260E678E240E858E2ECE6EE2E53
:10449000E8E2FE2E0E94713C882359F42091742892
:1044A0003091752880917C2890917D288217930700
:1044B0006CF4109200296091702870917128611538
:1044C000710521F089EA9AE20E942D401F910F9117
:1044D000FF90EF90DF90CF90BF90AF900895EF9254
:1044E000FF920F931F93FC0180917E2A90917F2A67
:1044F000892B09F459C08091672A882309F054C098
:1045000080910029882311F086EF4FC01092722805
:104510001092732810927428109275286093762850
:1045200070937728409378285093792800937C28BB
:1045300010937D2820937A2830937B2887E69AE28F
:10454000BF0140E658E20E94D23A882311F088EF7A
:104550002CC081E080930029E0927028F0927128AD
:1045600000917A2810917B280134110510F000E4A5
:1045700010E000937E2810937F2882ED91E28093D3
:104580006C2890936D28000F111F20E030E087E623
:104590009AE260E678E240E858E2BCE6EB2EB8E248
:1045A000FB2E0E94713C01C08FEF1F910F91FF9075
:1045B000EF900895AF92BF92CF92DF92EF92FF9269
:1045C0000F931F93CF93DF939C01EB0180917E2A81
:1045D00090917F2A892B09F475C08091672A8823DE
:1045E00009F070C080910029882309F06BC087E62C
:1045F0009AE2B90140E658E20E94D23A882309F0D3
:1046000061C0E0906428F0906528009166281091C0
:1046100067288091602890916128A0916228B091CC
:104620006328E81AF90A0A0B1B0B8DE198E2B8011E
:10463000A70120E030E00E94143E5B016C0161158F
:1046400071058105910509F440C081E0809300293E
:10465000C0937028D09371281092762810927728F2
:104660001092782810927928A0927228B09273281C
:10467000C0927428D0927528B801A701413851051D
:104680006105710520F040E850E060E070E0409383
:104690007E2850937F2882E793E280936C28909342
:1046A0006D288A0120E030E087E69AE260E678E251
:1046B00040E858E2ECE6EE2EE8E2FE2E0E94713C65
:1046C000882319F0AA24BB246501B501C601DF9136
:1046D000CF911F910F91FF90EF90DF90CF90BF90FF
:1046E000AF900895EF92FF920F931F93E09064288C
:1046F000F0906528009166281091672880916028C5
:1047000090916128A0916228B0916328E81AF90A73
:104710000A0B1B0B6091762870917728809178287E
:1047200090917928209172283091732840917428B3
:1047300050917528620F731F841F951F20917E284A
:1047400030917F2840E858E20E94E05B80917E280B
:1047500090917F28A0E0B0E02091762830917728D2
:104760004091782850917928820F931FA41FB51F7C
:104770008093762890937728A0937828B09379280F
:10478000E81AF90A0A0B1B0B81E8E816F104010587
:10479000110528F0A0E8EA2EF12C012D112DE09250
:1047A0007E28F0927F28EF2811F420E010C08701C6
:1047B00020E030E087E69AE260E678E240E858E2FE
:1047C000FCE6EF2EF8E2FF2E0E94713C282F80912C
:1047D0007E2890917F28892B11F0222369F0109276
:1047E000002960917028709171286115710521F080
:1047F00089EA9AE20E942D401F910F91FF90EF905D
:1048000008958AE099E2089508950895FC01858548
:104810009685089580930E2A90930F2A0895FC019F
:10482000DB012D913C9111978481958128173907DF
:10483000CCF012966D917C911397868197816817C1
:10484000790784F080859185821793075CF020E0DA
:1048500082859385861797070CF421E081E028274D
:10486000822F089580E090E00895FC01DB01208113
:1048700031816D917C91119762177307ECF0428141
:10488000538112960D90BC91A02DA417B507A4F0EA
:1048900084819581280F391F621773076CF420E01B
:1048A00086819781480F591FA417B5070CF021E0A6
:1048B00081E02827822F089580E090E00895FC0190
:1048C000DB01208131818D919C911197A901481BB9
:1048D000590B1416150654F4241B350B2083318311
:1048E00084819581840F951F8483958322813381F0
:1048F00012968D919C911397A901481B590B141680
:10490000150654F4241B350B22833383868197814B
:10491000840F951F868397834481558114962D912A
:104920003C9115978D919C911197280F391F241B4D
:10493000350B80819181281B390B1216130624F444
:10494000240F351F248335834681578116962D9178
:104950003C91179712968D919C911397280F391FB0
:10496000241B350B82819381281B390B12161306E9
:1049700024F4240F351F2683378308950F931F9344
:10498000CF93DF93DC01FB0160817181248135814C
:10499000C281D3810681178118968D919C911997B8
:1049A000861797070CF44AC01A968D919C911B9715
:1049B0008C179D070CF442C0AB01420F531F4150AE
:1049C00050401496ED91FC9115974E175F07B4F186
:1049D0009E01200F311F2150304016968D919C91E1
:1049E00017972817390754F1E617F70724F4149698
:1049F0006D937C93159716968D919C9117978C17B4
:104A00009D0724F41696CD93DC93179718968D91F5
:104A10009C9119974817590724F418964D935C9365
:104A200019971A968D919C911B972817390724F492
:104A30001A962D933C931B9781E001C080E0DF9193
:104A4000CF911F910F910895EF92FF920F931F93B3
:104A5000CF93DF938C01EA01FC0180819181A281D7
:104A6000B38188839983AA83BB8380819181A2814A
:104A7000B3818C839D83AE83BF83808191812481A8
:104A80003581820F931F019788879987828193814F
:104A900026813781820F931F01978A879B87CA01DE
:104AA0006DDF882309F05FC065C0F80107851089B4
:104AB0008C819D8197FF02C01C821D828E819F8107
:104AC00097FF02C01E821F82F801248135818885EC
:104AD00099858217930724F0215030402887398721
:104AE000F801268137818A859B858217930724F0F8
:104AF000215030402A873B874C815D8168857985CC
:104B000064177507BCF1EE80FF80AA85BB85AE15E2
:104B1000BF0584F188819981F80120813181820F5C
:104B2000931F8883998380819181480F591F4C83FB
:104B30005D8380819181680F791F688779878A8179
:104B40009B8122813381820F931F8A839B83828181
:104B50009381E80EF91EEE82FF8282819381A80F75
:104B6000B91FAA87BB87F9E20A301F0709F09DCF5A
:104B700081E001C080E0DF91CF911F910F91FF9004
:104B8000EF900895EF92FF920F931F93DF93CF93CF
:104B9000CDB7DEB72C97CDBFDEBF9C017B01B9013D
:104BA0008E010F5F1F4FA8014FDFC801B70137DE2D
:104BB0002C96CDBFDEBFCF91DF911F910F91FF905B
:104BC000EF900895FC01DB01808191818D939C938E
:104BD00011978281938112C08D919C9111972081B0
:104BE0003181820F931F8D939C93119712968D9113
:104BF0009C91139722813381820F931F12968D937C
:104C00009C9313970784F089E02D309729F7089536
:104C1000CF93DF93EC012B893C89EF85F889281726
:104C2000390719F4158A168A13C0858996898C1755
:104C30009D0711F4258B368BEB89FC8989899A892C
:104C4000818B928BA989BA895396ED93FC935497E3
:104C50001F86188A1B8A1C8A198A1A8ADF91CF91AB
:104C60000895CF93DF93EC01DB01ED89FE89309746
:104C700049F453966D937C93549751966D937C931E
:104C8000529712C05396ED93FC9354978189928961
:104C900051968D939C935297618B728B5196ED91A7
:104CA000FC915297638B748BAD8BBE8B1F96CD930B
:104CB000DC935097DF91CF910895DC011A96ED9126
:104CC000FC911B97309711F480E008951995089591
:104CD0000F931F93CF93DF93182F092F89EA9AE23E
:104CE00066E279E20E942D404FB7F8942091222984
:104CF000309123298091242990912529B901681B9D
:104D0000790B60317105A1F480910A2A90910B2AE8
:104D1000A0910C2AB0910D2A0196A11DB11D80937E
:104D20000A2A90930B2AA0930C2AB0930D2A24C030
:104D3000C9018F709070880F991FFC0123E0EE0F5E
:104D4000FF1F2A95E1F7E81BF90BE65DF64DEF0131
:104D5000212F302FC901DC018EE00D900992815086
:104D6000E1F71082118280912229909123290196E6
:104D700080932229909323294FBFDF91CF911F91D8
:104D80000F910895DF93CF93CDB7DEB72E97CDBFA8
:104D9000DEBF22E02B83DE011496FC0186E0019049
:104DA0000D928150E1F7CE01019692DF2E96CDBF94
:104DB000DEBFCF91DF910895DF93CF93CDB7DEB7FC
:104DC0002E97CDBFDEBF1B82DE011496FC018BE067
:104DD00001900D928150E1F7CE01019679DF2E9678
:104DE000CDBFDEBFCF91DF910895DF93CF93CDB7D5
:104DF000DEB72B97CDBFDEBFFC0121E02A87818182
:104E0000928189839A83838194818B839C83E081BF
:104E1000E23031F0E33031F0E13031F41B8604C090
:104E20002B8702C082E08B871D82CE010196C4DFF2
:104E30002B96CDBFDEBFCF91DF9108958F929F92C9
:104E4000AF92BF92CF92DF92EF92FF920F931F9398
:104E5000CF93DF934C015B01FB0166817781408535
:104E6000518522853385848195810E94A047F40174
:104E700080859185009779F0F5016481758146817F
:104E800057812085318502851385E080F180C280BD
:104E9000D3800E946752C40167E0A5010EDFF401D0
:104EA000C589D689209779F00988DA89C02D8F893C
:104EB000882319F0CE01B50113D0F40185899689B4
:104EC000C817D90789F7DF91CF911F910F91FF90F4
:104ED000EF90DF90CF90BF90AF909F908F9008950C
:104EE000EF92FF920F931F93DF93CF93CDB7DEB76F
:104EF0002C97CDBFDEBF7C018B01FC0180819181AD
:104F0000A281B3819C0189839A83AB83BC838D8307
:104F10009E83AF83B8876081718184819581680F9A
:104F2000791F615070400280F381E02DD701169601
:104F30008D919C911797E80FF91F3197D8018D91AA
:104F40009C911197280F391F29833A83A9012D833A
:104F50003E83680F791F69877A878B819C811296BF
:104F60002D913C911397820F931F8B839C838F818C
:104F70009885820F931F8F839887E20FF31FEB872B
:104F8000FC8714962D913C9115974217530714F402
:104F90002D833E83D80116962D913C911797821749
:104FA000930714F42F833887D80118968D919C911C
:104FB00019978617970714F489879A87D8011A9644
:104FC0006D917C911B976E177F0714F46B877C871C
:104FD0002D813E8189859A858217930764F02F8100
:104FE00038858B859C85821793072CF0C701BE01FD
:104FF0006F5F7F4F23DF2C96CDBFDEBFCF91DF9158
:105000001F910F91FF90EF900895EF92FF920F93F1
:105010001F93DF93CF93CDB7DEB72C97CDBFDEBF05
:105020008C017B01AE014F5F5F4F0EDD882309F4D9
:1050300044C0D8011F968D919C915097892B41F0C7
:105040001C968C9181FF04C0C801B70140D035C0C7
:10505000C8017E010894E11CF11CB701EFDE29C0F4
:1050600089819A81F80120813181821B930B898388
:105070009A838B819C8122813381821B930B8B834A
:105080009C830CC0D80151960D911C915297F80148
:105090008789882319F0C801B70122DFD8011F963C
:1050A000ED91FC915097858996890817190751F75A
:1050B0008F01B9E20A301B0799F62C96CDBFDEBFEF
:1050C000CF91DF911F910F91FF90EF900895DF93A3
:1050D000CF93CDB7DEB72897CDBFDEBFAC01DE01E1
:1050E0001196FB0188E001900D928150E1F7DA0101
:1050F0001F96ED91FC91509729813A8137FF08C0A6
:105100008D819E81820F931F8D839E8319821A82C7
:105110002B813C8137FF08C08F819885820F931FB8
:105120008F8398871B821C8269817A8124813581D3
:105130008D819E81860F971F2817390724F4261B1F
:10514000370B2D833E834B815C81268137818F8194
:105150009885840F951F2817390724F4241B350BD5
:105160002F8338878D819E8118161906B4F48F819C
:105170009885181619068CF480819181860F971FE7
:1051800089839A8382819381840F951F8B839C836B
:10519000CF01BE016F5F7F4F38DF2896CDBFDEBFE6
:1051A000CF91DF9108950F931F93CF93DF93EC017D
:1051B000EF85F889858996898C179D07F1F08D898F
:1051C0009E8964E040E050E078DD0F851889CE01CB
:1051D0001FDDC801BE0145DDCE0163E040E050E0C7
:1051E0006CDDFE018789882341F00784F089E02D7A
:1051F0003097C1F7CE01BE0108DFDF91CF911F913B
:105200000F9108958F929F92AF92BF92CF92DF92AB
:10521000EF92FF920F931F93DF93CF9300D00F92E3
:10522000CDB7DEB76C015B01FA01DC015596ED905C
:10523000FC905697E114F10409F442C080819181F9
:10524000A281B3819C0189839A83AB83BC83F601DD
:1052500080819181281B390B29833A838B819C8122
:1052600022813381821B930B8B839C8387014E01A8
:105270000894811C911CD80157968C918823D1F0F9
:10528000C801B401F2DA8823A9F0F50182858823E8
:1052900039F4D8011C968C9180FF02C0C80183DFCD
:1052A000C801B501AE014F5F5F4FACDF882341F00D
:1052B00081E00AC0F801038914890E151F05D9F68B
:1052C000C60160E0A501F9DC2496CDBFDEBFCF9119
:1052D000DF911F910F91FF90EF90DF90CF90BF90E3
:1052E000AF909F908F9008950F931F93CF93DF936C
:1052F00087C0C9018F709070880F991FEC0143E03F
:10530000CC0FDD1F4A95E1F7C81BD90BC65DD64D02
:105310008A81813009F449C0813020F0823009F05F
:1053200066C056C0AE014D5F5F4F8091122A9091CA
:10533000132AA091142AB091152A88879987AA87E1
:10534000BB878F818823A9F08B819C812091122AB1
:105350003091132A820F931F8B839C838D819E81B2
:105360002091142A3091152A820F931F8D839E83DA
:105370001F828B819C81AD81BE818093122A909384
:10538000132AA093142AB093152A80910E2A909183
:105390000F2A009719F060E090DC29C08AE099E2BA
:1053A000BA0142E15AE22EDF22C08E010D5F1F4F8B
:1053B000C091102AD091112A2097C9F0CE0161E046
:1053C000A8017BDC882399F40F84D889C02DF4CF01
:1053D0000D811E814F815885C80162E06EDC8823F3
:1053E00031F4F801078510890115110599F78091AD
:1053F0002429909125290196809324299093252989
:1054000020912429309125298091222990912329C6
:105410008217930709F06DCFDF91CF911F910F9104
:10542000089562CF0895BC01FC018789882339F073
:105430000784F089E02D3097C1F7CB01E6CD0895C0
:10544000FC018789882321F481E0878BCF01EBCF92
:105450000895DF92EF92FF920F931F93DF93CF9304
:10546000CDB7DEB72997CDBFDEBF8C017B01498761
:10547000DE011196FC0188E001900D928150E1F768
:10548000898580FD02C0DD2410C0F70180819181F3
:10549000A281B381F80180839183A283B383CE017B
:1054A0000196B7010CDADD24D394898581FF22C0EF
:1054B000F70124813581F801848195812817390706
:1054C0004CF0F70126813781F801868197812817F2
:1054D000390714F4DD24D394F70184819581A681E2
:1054E000B781F80184839583A683B783CE010196A3
:1054F000B701E5D9C80168E0AE01475F5F4FDDDB6A
:10550000F8018789882391F00784F089E02D30978E
:10551000C1F706C0C801DBDD09C0C80176DD06C0E1
:10552000BE016F5F7F4FDD20C1F3F4CF2996CDBF61
:10553000DEBFCF91DF911F910F91FF90EF90DF9031
:105540000895FF920F931F93DF93CF93CDB7DEB7EC
:105550002997CDBFDEBF8C01FB0149879E012F5FDC
:105560003F4FAC0188E0DA010D90AD01D9010D92F9
:105570009D018150C1F74985242F30E042FD02C0D2
:10558000FF2409C080859185D80118968D939C933E
:105590001997FF24F39423FF07C082859385D801D0
:1055A0001A968D939C931B9724FF04C08485D80181
:1055B0001C968C9325FF07C085859685D8011D967E
:1055C0008D939C931E9723703070232B21F0C8017C
:1055D000BF013FDF16C0C80168E0AE01475F5F4F03
:1055E0006CDBFF2071F0F8018789882351F0078474
:1055F000F089E02D3097C1F7C801BE016F5F7F4F82
:1056000004DD2996CDBFDEBFCF91DF911F910F91B1
:10561000FF9008950F931F93FC0187898823A9F1B8
:1056200089E2EA30F807F1F4178A0E9413488C01E6
:105630000E9418489C0180E090E060E070E0A801C2
:105640000E94A0470E9413488C010E9418489C01A8
:1056500080E090E060E070E0A80100E010E00E94CF
:10566000BC4B13C0DF0157968C915797882339F0B4
:105670001F960D90BC91A02D1097A9F702C0178A14
:1056800004C0178ACF01BF0122DD1F910F91089539
:10569000EF92FF920F931F93CF93DF937C01FC0156
:1056A000C589D6892097B9F0CE01F2DFCE0169E035
:1056B00040E050E002DB1B890C89CE010E944E3E87
:1056C000812F902FEC01F70185899689C817D9079A
:1056D00059F7158A168ADF91CF911F910F91FF908C
:1056E000EF900895CF93DF93EC018F89882311F019
:1056F000CE0190DFCE018CDACE01CADFCE0169E0A7
:1057000040E050E0DADACE010E944E3EDF91CF91C8
:105710000895EF92FF920F931F93CF93DF937C0135
:10572000162F072F88E190E00E94703EEC01009751
:1057300081F0DC01812F902F9C01F9018FE0019015
:105740000D928150E1F71F8A1D8A1E8AC701BE0192
:1057500088DACE01DF91CF911F910F91FF90EF90EA
:1057600008950E94134880930E2990930F290E9458
:105770001848809310299093112981E099E2809331
:10578000122990931329109228291092292981E136
:105790009AE280932629909327298AE099E28093C0
:1057A000102A9093112A0E94134862E070E00E9430
:1057B000B15C6093122A7093132A0E94184862E029
:1057C00070E00E94B15C6093142A7093152A85EFF3
:1057D00096E20C94C557489FC001112470E00E94C6
:1057E0009D5C862F0895DC01FB0102C08D933196EC
:1057F00080818823D9F71C920895FC0180819181D2
:105800000895FC018481958108952F923F924F92D3
:105810005F926F927F928F929F92AF92BF92CF9240
:10582000DF92EF92FF920F931F93DF93CF93CDB749
:10583000DEB72F97CDBFDEBF1C01562E472E3A0193
:1058400049016801570188E090E00E94703E8C0198
:105850007C01009791F1FC01C282D382A482B582BF
:1058600086829782DE011196852D942D9C01F90187
:1058700088E001900D928150E1F76114710421F0EC
:1058800069867A861D8604C019861A8682E08D870D
:105890000E871F8784E79CE28B879C87C101BE012E
:1058A0006F5F7F4F36DFF80180839183892B29F466
:1058B000C8010E944E3EEE24FF24C7012F96CDBFA3
:1058C000DEBFCF91DF911F910F91FF90EF90DF909E
:1058D000CF90BF90AF909F908F907F906F905F9090
:1058E0004F903F902F900895CF92DF92FF920F93A9
:1058F0001F93CF93DF938C01F62E6A010E9406243A
:10590000EC0182E0F81611F18F1518F0FF2079F103
:1059100030C087E0F81621F089E0F81651F50DC087
:10592000888199810817190711F5EE81FF81309759
:10593000F1F0C801B60119951AC08881998108173C
:105940001907A9F4CE010E944E3E11C088819981A9
:105950000817190771F4EA81FB81309751F0CE01E5
:10596000B6011995882319F088819981BBDE81E001
:1059700001C080E0DF91CF911F910F91FF90DF90E8
:10598000CF900895FC018081918108956F927F925C
:105990008F929F92AF92BF92CF92DF92EF92FF923F
:1059A0000F931F93DF93CF93CDB7DEB72F97CDBF64
:1059B000DEBF4C01762E672E5A01790187E090E018
:1059C0000E94703E8C016C010097C1F1FC011682AF
:1059D000E482F582C5010E94D33501960E94703E93
:1059E000F80182839383009721F1B501FCDE81E306
:1059F0009DE28B879C870E871F87DE011196272DDE
:105A0000362DC901FC0188E001900D928150E1F72B
:105A100019861A861D86C401BE016F5F7F4F79DE2D
:105A2000F80180839183892B49F4828193810E94BC
:105A30004E3EC8010E944E3ECC24DD24C6012F9666
:105A4000CDBFDEBFCF91DF911F910F91FF90EF90FF
:105A5000DF90CF90BF90AF909F908F907F906F908E
:105A600008958F929F92AF92BF92CF92DF92EF9262
:105A7000FF920F931F93DF93CF93CDB7DEB72A9793
:105A8000CDBFDEBF5C01162F942E852E0E9406240A
:105A90007C01173041F0193009F4CDC0112309F40D
:105AA00087C080E0D3C0C92CD82CC5010E94052432
:105AB0005C01D70116968C91813039F40FEF1FEFFE
:105AC000F4E88F2EF0E19F2E05C004E810E1882451
:105AD0008A94982CF60162817381D50114964D91B8
