:10000000F9C000001DC100001BC1000019C10000A3
:1000100017C1000015C1000013C1000011C100008C
:100020000FC100000DC100000BC1000009C100009C
:1000300007C1000005C1000003C1000001C10000AC
:10004000FFC00000FDC00000FBC00000F9C00000C0
:10005000F7C00000F5C00000F3C00000F1C00000D0
:10006000EFC00000EDC00000EBC00000E9C00000E0
:10007000E7C00000E5C00000E3C00000E1C00000F0
:10008000DFC00000DDC00000DBC00000D9C0000000
:10009000D7C00000D5C00000D3C00000D1C0000010
:1000A000CFC00000CDC00000CBC00000C9C0000020
:1000B000C7C00000C5C00000C3C00000C1C0000030
:1000C000BFC00000BDC00000BBC00000B9C0000040
:1000D000B7C00000B5C00000B3C00000B1C0000050
:1000E000AFC00000ADC00000ABC00000A9C0000060
:1000F000A7C00000A5C00000A3C00000A1C0000070
:100100009FC000009DC000000C94482499C00000CE
:1001100097C0000095C0000093C0000091C000008F
:100120000C9487248DC000008BC0000089C00000A3
:1001300087C0000085C0000083C0000081C00000AF
:100140007FC000007DC000007BC0000079C00000BF
:1001500077C0000075C0000073C0000071C00000CF
:100160006FC000006DC000006BC0000069C00000DF
:1001700067C0000065C0000063C0000061C00000EF
:100180005FC000005DC000005BC0000059C00000FF
:1001900057C0000055C0000053C0000051C000000F
:1001A0004FC000004DC000004BC0000049C000001F
:1001B00047C0000045C0000043C0000041C000002F
:1001C0003FC000003DC000003BC0000039C000003F
:1001D00037C0000035C0000033C0000031C000004F
:1001E0002FC000002DC000002BC0000029C000005F
:1001F00027C0000011241FBEAFEFBFE3BEBFADBFDD
:10020000C2EAD0E0088117E0012B08831BBEECECAA
:10021000F7E500E00BBFA0E0B0E2CCE6D0E202C020
:1002200007900D92AC17BD07D9F700270BBFC4EF9D
:10023000D1E201C01D92AC17BD07E1F702D0FFCF9C
:10024000DFCE0F931F93DF93CF93CDB7DEB72F97FA
:10025000CDBFDEBF78940E9476290E94A12981E05B
:10026000809386068DED91E28093DD219093DE21CF
:100270008093DF219093E0210E942C290E942A255F
:100280000E94411C80E090E00E9403180E948E0CA6
:1002900095D38C0196D3DE011196FC018FE001907D
:1002A0000D928150E1F719861A86C801BE016F5F71
:1002B0007F4F44E00E947E0BC8010E94FD0A10920D
:1002C0006E2010926F2080E693E080936C209093D4
:1002D0006D208CE690E266D00DED11E2F89420914D
:1002E000D821222349F1822F90E08F709070892BC2
:1002F00019F0322F40E004C0322F32953F7044E0B5
:10030000832F90E083709070892B19F44E5F36959F
:10031000369530FF11C0442379F42E7F2093D821E5
:100320007894E091D921F091DA218091DB219091AC
:10033000DC211995F894D3CFE091DD21F091DE21F5
:1003400081E2ED3DF80701F1808191818093DD210B
:100350009093DE218091DF219091E0218E179F07FD
:1003600021F40093DF211093E021DF011297129610
:100370001D921C921397109739F07894ED91FC918F
:100380001197CD011995AACF7894A8CFE09170204C
:10039000F0917120FC96DC0189E00D900192815072
:1003A000E1F70895CF92DF92EF92FF920F931F93A0
:1003B0006C0186E490E00E94D317809370209093A4
:1003C0007120F2E7EF2EF0E2FF2EC70169E270E242
:1003D0004AE050E00E94131382E08093792000915C
:1003E0007020109171200E945D25F80182A393A3D3
:1003F00086EC91E00E9455250E94C51B8C010E944D
:10040000CA1B9C0180E090E060E070E0A8010E94BF
:10041000521B0E94C51B8C010E94CA1B9C0180E0DC
:1004200090E060E070E0A80100E01FE10E946D1E16
:1004300086EF94E56AE070E040E550E097010FEF49
:100440001FEFE8EFEE2EF12C0E94D92000917020D2
:10045000109171200E94C51BC397F80184A395A336
:1004600000917020109171200E94CA1BC397F8015F
:1004700086A397A3E0907020F090712002E310E033
:10048000F70104A715A70E94CA1BC397F70186A707
:1004900097A7E0917020F091712004AB15AB06ABEB
:1004A00017AB66A177A184A195A145E050E02FEF9D
:1004B0003FEF0FEF0E946C1DE0917020F0917120D2
:1004C000EB5BFF4F1082E554F040C482D58212826C
:1004D000138289E792E0808391838DED91E2BF01E1
:1004E0000E940E191F910F91FF90EF90DF90CF9017
:1004F00008950F931F93CF93DF93EC018C010B5B57
:100500001F4FD8018C91833020F0833009F0D3C085
:10051000A5C08DED91E2BE010E940E198CAD833015
:1005200009F0C9C01CAED801EC91F0E0359653E05B
:10053000EE0FFF1F5A95E1F7EC0FFD1FCF5BDF4F6A
:1005400088819981C154D04080839183EC91F0E0FF
:1005500043E0EE0FFF1F4A95E1F7EC0FFD1FCD5B67
:10056000DF4F88819981C354D04082A793A78C9193
:10057000482F50E0CA010197DA01149633E0AA0F20
:10058000BB1F3A95E1F7AC0FBD1FFA01359623E08A
:10059000EE0FFF1F2A95E1F7EC0FFD1F0D90BC91A8
:1005A000A02D2081318103E0880F991F0A95E1F782
:1005B0008C0F9D1FFC0162A573A5FA0113E0EE0FDD
:1005C000FF1F1A95E1F7EC0FFD1F82A593A5A21B53
:1005D000B30BB7FF03C0B095A195BF4FA45FB14067
:1005E0006CF49B01281B390BC90137FF03C09095A0
:1005F00081959F4F845F91400CF45DC0FA01B3E098
:10060000EE0FFF1FBA95E1F7EC0FFD1F66A177A172
:1006100084A195A145E050E020E03FE10FEF0E946A
:100620006C1DFE01EB5BFF4F80818F5F8083833009
:1006300008F041C0E82FF0E0A3E0EE0FFF1FAA95FD
:10064000E1F7EC0FFD1F66A177A184A195A145E01C
:1006500050E02FEF3FEF0E946C1D2DC06EA97FA9C7
:100660008CA99DA945E050E020E03FE10FEF0E94FA
:100670006C1D8E010A5F1F4FCE018496B8010E9447
:100680006B25C8010E9462258AA19BA10E94552565
:1006900080917020909171200E94B117E09170209C
:1006A000F0917120648175816115710521F08DEDE6
:1006B00091E20E940E19DF91CF911F910F91089541
:1006C0004F925F926F927F928F929F92AF92BF9262
:1006D000CF92DF92EF92FF920F931F93DF93CF930E
:1006E000CDB7DEB72897CDBFDEBF82E08093302044
:1006F00065D18C011092862081E396E88093872053
:100700009093882019821A821B821C820E94C51B2A
:100710008D839E830E94CA1B8F839887C8012E01F8
:100720000894411C511CB20142E850E220E030E044
:1007300008EB14E0EE24FF240E94DE0C80937C2062
:1007400090937D20009709F4C3C00E94DA0C5C01ED
:1007500054D7EAE06E2E712C69827A826B827C8299
:100760000091002010910120CE010596B8010E9451
:10077000E20FC501B201A80120E00E94120F00970C
:1007800009F49FC00E940E0F38D769827A828CE3E9
:1007900090E08B839C8370E5C72ED12CCD82DE82C6
:1007A00068E2862E912C8F829886C501B20144E6BC
:1007B00022E302E051E0E52EF12C0E943D118093EE
:1007C0007E2090937F20009709F47BC00E942F1118
:1007D00014D789819A812D813E81820F931F0A96B9
:1007E00089839A83CD82DE828F829886C501B20189
:1007F00044E622E30FEF10EE3AE5E32E3BECF32E56
:10080000CC240E94EF0F809380209093812000974A
:1008100009F457C00E94EB0FF0D669827A8286E90C
:1008200090E08B839C838AE590E08D839E838F820A
:100830009886C501B20146E050E222E030E00E9415
:100840009F0D009709F43DC00E949B0DD6D689816B
:100850009A812D813E81820F931F889689839A8386
:100860001092922088E790E08093932090939420B8
:10087000C501B2014EE850E229E634E000E010E0A4
:10088000EE24FF240E94DE0C80938C2090938D2018
:100890000097B9F00E94DA0CB0D62896CDBFDEBF23
:1008A000CF91DF911F910F91FF90EF90DF90CF904C
:1008B000BF90AF909F908F907F906F905F904F9080
:1008C000089580917C2090917D200E94DA0CE7D7DA
:1008D000FFCFEF92FF920F931F93DF93CF9300D040
:1008E0000F92CDB7DEB77B018DB79EB708978DBF4E
:1008F0009EBFEDB7FEB731968E010F5F1F4FADB7AC
:10090000BEB711960D931C93129784E090E08283FA
:1009100093838CE090E28483958380918B208683FF
:1009200017820E944A17EDB7FEB73896EDBFFEBF9B
:10093000D7016D917C911197625E7F4F12964D9118
:100940005C911397445F5F4FC80129E230E20FEFDB
:100950001FEFF8EFEF2EF12C0E9442212496CDBF1D
:10096000DEBFCF91DF911F910F91FF90EF9008951F
:100970000F931F93613019F06230E1F40FC00091C2
:1009800080201091812080917E2090917F200E9474
:100990003311682FC8010E9402110CC080918B2076
:1009A0008F5F80938B2080918C2090918D200E946E
:1009B000DA0C16D680E01F910F91089580EA90E23C
:1009C000089508950895FC0185859685089580937E
:1009D000A4219093A5210895FC01DB012D913C9168
:1009E00011978481958128173907CCF012966D9163
:1009F0007C911397868197816817790784F08085A9
:100A00009185821793075CF020E082859385861795
:100A100097070CF421E081E02827822F089580E0D9
:100A200090E00895FC01DB01208131816D917C9182
:100A3000119762177307ECF04281538112960D9063
:100A4000BC91A02DA417B507A4F084819581280F2F
:100A5000391F621773076CF420E086819781480F75
:100A6000591FA417B5070CF021E081E02827822F39
:100A7000089580E090E00895FC01DB012081318140
:100A80008D919C911197A901481B590B14161506BD
:100A900054F4241B350B2083318384819581840F8A
:100AA000951F848395832281338112968D919C9129
:100AB0001397A901481B590B1416150654F4241B4F
:100AC000350B2283338386819781840F951F86831C
:100AD00097834481558114962D913C9115978D9162
:100AE0009C911197280F391F241B350B8081918110
:100AF000281B390B1216130624F4240F351F2483E8
:100B000035834681578116962D913C911797129601
:100B10008D919C911397280F391F241B350B8281CF
:100B20009381281B390B1216130624F4240F351F4A
:100B30002683378308950F931F93CF93DF93DC01B0
:100B4000FB016081718124813581C281D38106815D
:100B5000178118968D919C911997861797070CF419
:100B60004AC01A968D919C911B978C179D070CF487
:100B700042C0AB01420F531F415050401496ED91BB
:100B8000FC9115974E175F07B4F19E01200F311F9E
:100B90002150304016968D919C9117972817390750
:100BA00054F1E617F70724F414966D937C93159788
:100BB00016968D919C9117978C179D0724F4169685
:100BC000CD93DC93179718968D919C9119974817A0
:100BD000590724F418964D935C9319971A968D91A2
:100BE0009C911B972817390724F41A962D933C9350
:100BF0001B9781E001C080E0DF91CF911F910F91A1
:100C00000895EF92FF920F931F93CF93DF938C0180
:100C1000EA01FC0180819181A281B381888399835B
:100C2000AA83BB8380819181A281B3818C839D83C0
:100C3000AE83BF838081918124813581820F931F90
:100C40000197888799878281938126813781820FD6
:100C5000931F01978A879B87CA016DDF882309F05C
:100C60005FC065C0F801078510898C819D8197FF61
:100C700002C01C821D828E819F8197FF02C01E824E
:100C80001F82F80124813581888599858217930711
:100C900024F02150304028873987F8012681378198
:100CA0008A859B858217930724F0215030402A873C
:100CB0003B874C815D816885798564177507BCF138
:100CC000EE80FF80AA85BB85AE15BF0584F18881C3
:100CD0009981F80120813181820F931F8883998344
:100CE00080819181480F591F4C835D838081918160
:100CF000680F791F688779878A819B812281338178
:100D0000820F931F8A839B8382819381E80EF91E51
:100D1000EE82FF8282819381A80FB91FAA87BB87C9
:100D2000F0E2003A1F0709F09DCF81E001C080E0AA
:100D3000DF91CF911F910F91FF90EF900895EF9267
:100D4000FF920F931F93DF93CF93CDB7DEB72C970E
:100D5000CDBFDEBF9C017B01B9018E010F5F1F4F2C
:100D6000A8014FDFC801B70137DE2C96CDBFDEBF2B
:100D7000CF91DF911F910F91FF90EF900895FC01AB
:100D8000DB01808191818D939C9311978281938166
:100D900012C08D919C91119720813181820F931FF8
:100DA0008D939C93119712968D919C91139722810C
:100DB0003381820F931F12968D939C931397078410
:100DC000F089E02D309729F70895CF93DF93EC0158
:100DD0002B893C89EF85F8892817390719F4158A7A
:100DE000168A13C0858996898C179D0711F4258B67
:100DF000368BEB89FC8989899A89818B928BA989A9
:100E0000BA895396ED93FC9354971F86188A1B8AD0
:100E10001C8A198A1A8ADF91CF910895CF93DF93A4
:100E2000EC01DB01ED89FE89309749F453966D930F
:100E30007C93549751966D937C93529712C053961E
:100E4000ED93FC9354978189928951968D939C934D
:100E50005297618B728B5196ED91FC915297638BF7
:100E6000748BAD8BBE8B1F96CD93DC935097DF9127
:100E7000CF910895DC011A96ED91FC911B97309764
:100E800011F480E00895199508950F931F93CF935F
:100E9000DF93182F092F8DED91E26CEB70E20E9429
:100EA0000E194FB7F8942091B8203091B920809155
:100EB000BA209091BB20B901681B790B6031710594
:100EC000A1F48091A0219091A121A091A221B091A3
:100ED000A3210196A11DB11D8093A0219093A12172
:100EE000A093A221B093A32124C0C9018F70907058
:100EF000880F991FFC0123E0EE0FFF1F2A95E1F7F1
:100F0000E81BF90BE054FF4DEF01212F302FC901F1
:100F1000DC018EE00D9009928150E1F71082118280
:100F20008091B8209091B92001968093B820909339
:100F3000B9204FBFDF91CF911F910F910895DF939B
:100F4000CF93CDB7DEB72E97CDBFDEBF22E02B8388
:100F5000DE011496FC0186E001900D928150E1F7CC
:100F6000CE01019692DF2E96CDBFDEBFCF91DF91ED
:100F70000895DF93CF93CDB7DEB72E97CDBFDEBFF9
:100F80001B82DE011496FC018BE001900D928150D2
:100F9000E1F7CE01019679DF2E96CDBFDEBFCF916E
:100FA000DF910895DF93CF93CDB7DEB72B97CDBFF9
:100FB000DEBFFC0121E02A878181928189839A83A7
:100FC000838194818B839C83E081E23031F0E33034
:100FD00031F0E13031F41B8604C02B8702C082E07F
:100FE0008B871D82CE010196C4DF2B96CDBFDEBF5D
:100FF000CF91DF9108958F929F92AF92BF92CF923F
:10100000DF92EF92FF920F931F93CF93DF934C01E8
:101010005B01FB016681778140855185228533859F
:10102000848195810E94521BF401808591850097EF
:1010300079F0F5016481758146815781208531857C
:1010400002851385E080F180C280D3800E949123C5
:10105000C40167E0A5010EDFF401C589D689209798
:1010600079F00988DA89C02D8F89882319F0CE019B
:10107000B50113D0F40185899689C817D90789F776
:10108000DF91CF911F910F91FF90EF90DF90CF9064
:10109000BF90AF909F908F900895EF92FF920F9323
:1010A0001F93DF93CF93CDB7DEB72C97CDBFDEBFB5
:1010B0007C018B01FC0180819181A281B3819C0123
:1010C00089839A83AB83BC838D839E83AF83B887E8
:1010D0006081718184819581680F791F61507040B2
:1010E0000280F381E02DD70116968D919C91179780
:1010F000E80FF91F3197D8018D919C911197280F16
:10110000391F29833A83A9012D833E83680F791FF4
:1011100069877A878B819C8112962D913C911397D8
:10112000820F931F8B839C838F819885820F931FDF
:101130008F839887E20FF31FEB87FC8714962D911E
:101140003C9115974217530714F42D833E83D80121
:1011500016962D913C9117978217930714F42F83BD
:101160003887D80118968D919C9119978617970703
:1011700014F489879A87D8011A966D917C911B97F0
:101180006E177F0714F46B877C872D813E818985DC
:101190009A858217930764F02F8138858B859C850B
:1011A000821793072CF0C701BE016F5F7F4F23DFCB
:1011B0002C96CDBFDEBFCF91DF911F910F91FF9095
:1011C000EF900895EF92FF920F931F93DF93CF93C9
:1011D000CDB7DEB72C97CDBFDEBF8C017B01AE0152
:1011E0004F5F5F4F0EDD882309F444C0D8011F967E
:1011F0008D919C915097892B41F01C968C9181FF89
:1012000004C0C801B70140D035C0C8017E010894B0
:10121000E11CF11CB701EFDE29C089819A81F80138
:1012200020813181821B930B89839A838B819C81DE
:1012300022813381821B930B8B839C830CC0D8014A
:1012400051960D911C915297F8018789882319F0C6
:10125000C801B70122DFD8011F96ED91FC9150978C
:10126000858996890817190751F78F01B0E2003A6E
:101270001B0799F62C96CDBFDEBFCF91DF911F9152
:101280000F91FF90EF900895DF93CF93CDB7DEB726
:101290002897CDBFDEBFAC01DE011196FB0188E0CF
:1012A00001900D928150E1F7DA011F96ED91FC91CA
:1012B000509729813A8137FF08C08D819E81820F26
:1012C000931F8D839E8319821A822B813C8137FF65
:1012D00008C08F819885820F931F8F8398871B8208
:1012E0001C8269817A81248135818D819E81860F5E
:1012F000971F2817390724F4261B370B2D833E83AD
:101300004B815C81268137818F819885840F951F61
:101310002817390724F4241B350B2F8338878D8138
:101320009E8118161906B4F48F819885181619062F
:101330008CF480819181860F971F89839A838281A3
:101340009381840F951F8B839C83CF01BE016F5FB8
:101350007F4F38DF2896CDBFDEBFCF91DF91089554
:101360000F931F93CF93DF93EC01EF85F889858965
:1013700096898C179D07F1F08D899E8964E040E085
:1013800050E078DD0F851889CE011FDDC801BE0150
:1013900045DDCE0163E040E050E06CDDFE01878971
:1013A000882341F00784F089E02D3097C1F7CE0102
:1013B000BE0108DFDF91CF911F910F9108958F92A9
:1013C0009F92AF92BF92CF92DF92EF92FF920F93D4
:1013D0001F93DF93CF9300D00F92CDB7DEB76C0190
:1013E0005B01FA01DC015596ED90FC905697E114F3
:1013F000F10409F442C080819181A281B3819C01F2
:1014000089839A83AB83BC83F60180819181281BF9
:10141000390B29833A838B819C8122813381821B02
:10142000930B8B839C8387014E010894811C911C34
:10143000D80157968C918823D1F0C801B401F2DA13
:101440008823A9F0F5018285882339F4D8011C96F8
:101450008C9180FF02C0C80183DFC801B501AE01D5
:101460004F5F5F4FACDF882341F081E00AC0F80195
:10147000038914890E151F05D9F6C60160E0A50180
:10148000F9DC2496CDBFDEBFCF91DF911F910F9184
:10149000FF90EF90DF90CF90BF90AF909F908F9094
:1014A00008950F931F93CF93DF9387C0C9018F7067
:1014B0009070880F991FEC0143E0CC0FDD1F4A9517
:1014C000E1F7C81BD90BC054DF4D8A81813009F484
:1014D00049C0813020F0823009F066C056C0AE01AC
:1014E0004D5F5F4F8091A8219091A921A091AA21E1
:1014F000B091AB2188879987AA87BB878F81882382
:10150000A9F08B819C812091A8213091A921820F83
:10151000931F8B839C838D819E812091AA21309182
:10152000AB21820F931F8D839E831F828B819C81B1
:10153000AD81BE818093A8219093A921A093AA2177
:10154000B093AB218091A4219091A521009719F02F
:1015500060E090DC29C080EA90E2BA0148EA51E2FA
:101560002EDF22C08E010D5F1F4FC091A621D091AA
:10157000A7212097C9F0CE0161E0A8017BDC882378
:1015800099F40F84D889C02DF4CF0D811E814F812D
:101590005885C80162E06EDC882331F4F8010785C4
:1015A00010890115110599F78091BA209091BB20FF
:1015B00001968093BA209093BB202091BA2030915D
:1015C000BB208091B8209091B9208217930709F031
:1015D0006DCFDF91CF911F910F91089562CF089544
:1015E000BC01FC018789882339F00784F089E02D4C
:1015F0003097C1F7CB01E6CD0895FC018789882398
:1016000021F481E0878BCF01EBCF0895DF92EF9239
:10161000FF920F931F93DF93CF93CDB7DEB7299738
:10162000CDBFDEBF8C017B014987DE011196FC0135
:1016300088E001900D928150E1F7898580FD02C01C
:10164000DD2410C0F70180819181A281B381F8016E
:1016500080839183A283B383CE010196B7010CDA14
:10166000DD24D394898581FF22C0F701248135814F
:10167000F80184819581281739074CF0F7012681FC
:101680003781F801868197812817390714F4DD2402
:10169000D394F70184819581A681B781F801848371
:1016A0009583A683B783CE010196B701E5D9C8011A
:1016B00068E0AE01475F5F4FDDDBF8018789882373
:1016C00091F00784F089E02D3097C1F706C0C8017A
:1016D000DBDD09C0C80176DD06C0BE016F5F7F4F4C
:1016E000DD20C1F3F4CF2996CDBFDEBFCF91DF91CE
:1016F0001F910F91FF90EF90DF900895FF920F934D
:101700001F93DF93CF93CDB7DEB72997CDBFDEBF51
:101710008C01FB0149879E012F5F3F4FAC0188E0A0
:10172000DA010D90AD01D9010D929D018150C1F7F3
:101730004985242F30E042FD02C0FF2409C0808586
:101740009185D80118968D939C931997FF24F39453
:1017500023FF07C082859385D8011A968D939C93A9
:101760001B9724FF04C08485D8011C968C9325FF09
:1017700007C085859685D8011D968D939C931E97ED
:1017800023703070232B21F0C801BF013FDF16C04A
:10179000C80168E0AE01475F5F4F6CDBFF2071F06E
:1017A000F8018789882351F00784F089E02D30976C
:1017B000C1F7C801BE016F5F7F4F04DD2996CDBF21
:1017C000DEBFCF91DF911F910F91FF9008950F938E
:1017D0001F93FC0187898823A9F180E2E03AF8078A
:1017E000F1F4178A0E94C51B8C010E94CA1B9C0140
:1017F00080E090E060E070E0A8010E94521B0E942F
:10180000C51B8C010E94CA1B9C0180E090E060E037
:1018100070E0A80100E010E00E946D1E13C0DF011F
:1018200057968C915797882339F01F960D90BC914D
:10183000A02D1097A9F702C0178A04C0178ACF01FC
:10184000BF0122DD1F910F910895EF92FF920F9338
:101850001F93CF93DF937C01FC01C589D689209724
:10186000B9F0CE01F2DFCE0169E040E050E002DBEA
:101870001B890C89CE010E94B117812F902FEC019A
:10188000F70185899689C817D90759F7158A168AE5
:10189000DF91CF911F910F91FF90EF900895CF931B
:1018A000DF93EC018F89882311F0CE0190DFCE0108
:1018B0008CDACE01CADFCE0169E040E050E0DADA2E
:1018C000CE010E94B117DF91CF910895EF92FF9260
:1018D0000F931F93CF93DF937C01162F072F88E17F
:1018E00090E00E94D317EC01009781F0DC01812F7A
:1018F000902F9C01F9018FE001900D928150E1F74A
:101900001F8A1D8A1E8AC701BE0188DACE01DF91B7
:10191000CF911F910F91FF90EF9008950E94C51BEA
:101920008093A4209093A5200E94CA1B8093A62098
:101930009093A72087E990E28093A8209093A92014
:101940001092BE201092BF208EEE9AE08093BC20B1
:101950009093BD2080EA90E28093A6219093A721E6
:101960000E94C51B62E070E00E942B2A6093A821B0
:101970007093A9210E94CA1B62E070E00E942B2A8A
:101980006093AA217093AB2182ED97E00C945525CA
:10199000489FC001112470E00E94172A862F0895E5
:1019A000DC01FB0102C08D93319680818823D9F739
:1019B0001C920895FC018081918108952F923F929D
:1019C0004F925F926F927F928F929F92AF92BF924F
:1019D000CF92DF92EF92FF920F931F93DF93CF93FB
:1019E000CDB7DEB72F97CDBFDEBF1C01562E472ED9
:1019F0003A0149016801570188E090E00E94D3173D
:101A00008C017C01009791F1FC01C282D382A482F7
:101A1000B58286829782DE011196852D942D9C01D8
:101A2000F90188E001900D928150E1F76114710491
:101A300021F069867A861D8604C019861A8682E09E
:101A40008D870E871F878DE49DE08B879C87C10162
:101A5000BE016F5F7F4F3ADFF80180839183892B4E
:101A600029F4C8010E94B117EE24FF24C7012F9664
:101A7000CDBFDEBFCF91DF911F910F91FF90EF900F
:101A8000DF90CF90BF90AF909F908F907F906F909E
:101A90005F904F903F902F900895CF92DF92FF92EA
:101AA0000F931F93CF93DF938C01F62E6A010E9450
:101AB000E304EC0182E0F81611F18F1518F0FF2015
:101AC00079F130C087E0F81621F089E0F81651F579
:101AD0000DC0888199810817190711F5EE81FF81E2
:101AE0003097F1F0C801B60119951AC08881998123
:101AF00008171907A9F4CE010E94B11711C08881F7
:101B000099810817190771F4EA81FB81309751F028
:101B1000CE01B6011995882319F088819981BFDE1D
:101B200081E001C080E0DF91CF911F910F91FF9084
:101B3000DF90CF900895FC018081918108956F928C
:101B40007F928F929F92AF92BF92CF92DF92EF924D
:101B5000FF920F931F93DF93CF93CDB7DEB72F97ED
:101B6000CDBFDEBF4C01762E672E5A01790187E08A
:101B700090E00E94D3178C016C010097B9F1FC0131
:101B80001682E482F582C50175D501960E94D317AD
:101B9000F80182839383009721F1B50101DF89E089
:101BA0009EE08B879C870E871F87DE011196272D6D
:101BB000362DC901FC0188E001900D928150E1F7BA
:101BC00019861A861D86C401BE016F5F7F4F7EDEB7
:101BD000F80180839183892B49F4828193810E944B
:101BE000B117C8010E94B117CC24DD24C6012F967D
:101BF000CDBFDEBFCF91DF911F910F91FF90EF908E
:101C0000DF90CF90BF90AF909F908F907F906F901C
:101C100008958F929F92AF92BF92CF92DF92EF92F0
:101C2000FF920F931F93DF93CF93CDB7DEB72A9721
:101C3000CDBFDEBF5C01162F942E852E0E94E304DB
:101C40007C01173041F0193009F4CDC0112309F49B
:101C500087C080E0D3C0C92CD82CC5010E94E20403
:101C60005C01D70116968C91813039F40FEF1FEF8C
:101C7000F4E88F2EF0E19F2E05C004E810E18824DF
:101C80008A94982CF60162817381D50114964D9146
:101C90005C91159716962D913C91179780819181B3
:101CA0000E946D1EF60162817381D50114964D91DB
:101CB0005C91159716962D913C9117978081918193
:101CC00000E010E00E941B1FF7018281938169E20E
:101CD00070E2AE014F5F5F4F9E012D5F3F4F0E944C
:101CE0004E1FD50114968D919C91159762E070E07E
:101CF0000E942B2A9B0189819A8162E070E00E94F8
:101D00002B2A261B370BD601ED91FC91E20FF31F16
:101D1000D50116968D919C91179762E070E00E9414
:101D20002B2A9B018B819C8162E070E00E942B2A10
:101D3000261B370BD60112964D915C911397420FDB
:101D4000531FD70112968D919C911397BF0129E2E1
:101D500030E28401E8EFEE2EF12C0E9442214DC0CA
:101D6000092D182DF8018285882321F0823009F091
:101D700044C012C0D70116968C911697882309F09B
:101D80003CC08D919C910E94E70481E0F70186831D
:101D90008081918125DC31C0D70116968C918130EC
:101DA00061F580E090E00E94E704F70116828081EF
:101DB000918116DCD7018D919C91B8010E949F06FC
:101DC0008823D9F0F701808191818D839E83808162
:101DD00091818F8398878481958189879A87CE01A5
:101DE0000596ADD80AC0DC0112968D919C9113978F
:101DF0000E94B117C7010E94B11781E02A96CDBF9A
:101E0000DEBFCF91DF911F910F91FF90EF90DF9098
:101E1000CF90BF90AF909F908F900895FC018081EC
:101E2000918108957F928F929F92AF92BF92CF92AD
:101E3000DF92EF92FF920F931F93DF93CF93CDB773
:101E4000DEB72F97CDBFDEBF4C01A62E772E6A01DD
:101E5000B22E85E090E00E94D3178C017C010097A0
:101E6000B1F1FC01B482C60105D401960E94D317DA
:101E7000F80182839383009729F1B60191DD89E708
:101E80009FE08B879C870E871F87DE0111962A2D86
:101E9000372DC901FC0188E001900D928150E1F7D6
:101EA00019861A8682E08D87C401BE016F5F7F4F5D
:101EB0000DDDF80180839183892B49F48281938120
:101EC0000E94B117C8010E94B117EE24FF24C70178
:101ED0002F96CDBFDEBFCF91DF911F910F91FF9065
:101EE000EF90DF90CF90BF90AF909F908F907F90BA
:101EF0000895AF92BF92CF92DF92EF92FF920F932D
:101F00001F93DF93CF9300D00F92CDB7DEB76C0154
:101F1000162FB42EA52E0E94E3047C01173021F069
:101F20001930D9F180E040C00B2D1A2DC6010E9456
:101F3000E2046C01F701848122813381882339F422
:101F4000F8016081718142815381C9011CC0C901BE
:101F500069E270E2AE014F5F5F4F9E012D5F3F4F20
:101F60000E944E1FF60164817581F8018081918184
:101F7000680F791F89819A81681B790B428153818F
:101F8000F7018281938129E230E20FEF1FEFE8EF42
:101F9000EE2EF12C0E94422106C0FC018281938129
:101FA000E0D7C701DED781E02496CDBFDEBFCF9159
:101FB000DF911F910F91FF90EF90DF90CF90BF9036
:101FC000AF9008959C01CB0169E270E2A9012E5FF8
:101FD0003F4F0C944E1FFC018081918108953F92E8
:101FE0004F925F926F927F928F929F92AF92BF9229
:101FF000CF92DF92EF92FF920F931F93DF93CF93D5
:10200000CDB7DEB72F97CDBFDEBF2C01662E372EA2
:10201000742E822E58019C2C8AE090E0C4D78C014B
:102020006C01009709F441C0FC01728283829582A1
:10203000492D91FE08C0E682F782A086B186F72D71
:10204000F8198F2E05C0FC01A682B782E086F186C2
:102050008BE690E18B879C870E871F87DE011196A8
:10206000262D332DC901FC0188E001900D9281508D
:10207000E1F740FF02C04F8101C04D814250882DE1
:10208000672D86DCF801848319861A861D86C201B5
:10209000BE016F5F7F4F1ADCF80180839183892B2B
:1020A00021F4C8015ED7CC24DD24C6012F96CDBF14
:1020B000DEBFCF91DF911F910F91FF90EF90DF90E6
:1020C000CF90BF90AF909F908F907F906F905F90D8
:1020D0004F903F9008958F929F92AF92BF92CF9270
:1020E000DF92EF92FF920F931F93CF93DF938C01B8
:1020F000F62EE42EB52E0E94E3046C0187E0F8165C
:1021000031F0E9E0FE1609F46DC080E06EC0CE2D1E
:10211000DB2DC8010E94E2045C01F601F480E58039
:102120006A817B81FC0144815581268137818881C8
:10213000998100E010E00E941B1F888199816A81CB
:102140007B818F2C9924F60106811781E0FE23C044
:102150006F5F7F4FF5014481558142505040019699
:1021600094010E946D1E888199816A817B816F5FD5
:102170007F4F680D791DF5014481558142505040D3
:10218000268137812250304028193909F60100850F
:102190001185019624C06F5F7F4FF6014481F501E0
:1021A0002681378122503040019650E00E946D1EFA
:1021B0008881998101966A817B816F5F7F4FF501EC
:1021C0004481558142505040481959092681378130
:1021D00022503040F60100851185880D991D0E941E
:1021E0006D1E02C0C601BDD681E0DF91CF911F9167
:1021F0000F91FF90EF90DF90CF90BF90AF909F90A6
:102200008F900895FF920F931F93CF93DF93EC016C
:10221000062F8B81681711F480E01BC06B831D8132
:10222000FA80888199810E94E204FC0110FF02C0BB
:10223000468101C0448111FF03C08F2D801B082FF0
:102240004250802F6F2DA4DB8C8388819981C8D95F
:1022500081E0DF91CF911F910F91FF900895FC01D4
:10226000808191810895FC018285908583FF03C060
:102270008781891B0895892F08955F926F927F92BD
:102280008F929F92AF92BF92CF92DF92EF92FF9286
:102290000F931F93DF93CF93CDB7DEB72F97CDBFAB
:1022A000DEBF3C01862E572E942ED22EC02E570113
:1022B0008DE090E078D68C017C01009709F448C04D
:1022C000FC0116829782D086C2864C2D50E0C3FE58
:1022D00003C0F92DFD19DF2EF801D086CA018370E5
:1022E0009070892B11F0A386B4868CEB91E18B87DB
:1022F0009C870E871F87DE011196282D352DC90179
:10230000FC0188E001900D928150E1F742FF02C08C
:102310004F8101C04D814A508D2D692D39DBF80167
:10232000818719861A861D86C301BE016F5F7F4FA4
:10233000CDDAF80180839183009731F00E5F1F4F53
:10234000B8010E94BF0604C0C8010BD6EE24FF24CA
:10235000C7012F96CDBFDEBFCF91DF911F910F91A7
:10236000FF90EF90DF90CF90BF90AF909F908F90B5
:102370007F906F905F9008957F928F929F92AF921F
:10238000BF92CF92DF92EF92FF920F931F93DF9352
:10239000CF9300D000D0CDB7DEB75C01162F942EBE
:1023A000852E0E94E3046C01173041F0193009F4C6
:1023B00027C1112309F497C080E024C1E92CF82C2F
:1023C000C5010E94E2045C01D6011A967C901A971E
:1023D00016968C91882321F088248A94982C03C027
:1023E00080E8882E912CF70162817381D5011496C3
:1023F0004D915C91159716962D913C911797808180
:10240000918100E010E00E941B1FF7018081918103
:10241000628173816F5F7F4FD50114964D915C91FE
:1024200015974250504016962D913C911797225087
:102430003040019604E810E10E946D1EF701808192
:10244000918162817381D60119964C9172FE24C0EC
:10245000640F711DF501448155812AE030E000E0F0
:1024600010E00E941B1FD7018D919C91119712962D
:102470006D917C9113976F5F7F4FF6012185620FFD
:10248000711DD50114964D915C91159742505040A5
:10249000019628E030E023C0F50126813781840FC2
:1024A000911D4AE050E000E010E00E941B1FD701A0
:1024B0008D919C9111970196F601418512966D912F
:1024C0007C9113976F5F7F4FD50116962D913C91AC
:1024D000179722503040840F911D48E050E084014E
:1024E0000E946D1E8EC0092D182DC5010E94E204A8
:1024F000FC01D6011A96FC901A9714966D917C9166
:10250000159712964D915C911397D8011A968C915C
:10251000813099F0813020F0823009F072C04DC0D6
:10252000F6018681882309F06CC081E08683C501AD
:102530000E94E704C50154D864C0D60116968C9158
:10254000813009F05EC0F2FE0AC0D80112962D91CA
:102550003C911397261B370B4681578107C0D80142
:102560002D913C91241B350B4481558125503040E1
:102570008A010A50104037FF02C090E00DC00217D8
:1025800013071CF4F601978107C0822F602FD60134
:1025900017964C91FDD9982FF6018085891789F1FE
:1025A0009087892F6781402FF3D9D60119968C9394
:1025B000C50116D8F0FC0EC024C0F601868181301A
:1025C00001F5168280E090E00E94E704C50108D87A
:1025D000F1FE17C0D6018D919C91119789839A8342
:1025E0008D919C9111978B839C831B968D919C91CF
:1025F0001C978D839E83CE0101960E949F0701C088
:10260000B0D481E02696CDBFDEBFCF91DF911F9180
:102610000F91FF90EF90DF90CF90BF90AF909F9081
:102620008F907F900895CF93DF93EC0120E030E00E
:102630000CC0FE01E20FF31FDB01A20FB31F8C9150
:1026400080832F5F3F4F415050404115510589F71E
:10265000CE01DF91CF910895782FA92F9C01F90128
:1026600003C061934150504041155105D1F7872F68
:102670009A2F0895FC0120E030E002C02F5F3F4F09
:1026800081918823D9F7C9010895BF92CF92DF9233
:10269000EF92FF920F931F93CF93DF938C016B0107
:1026A0007A015BC0D80116968D919C91179701967F
:1026B00012962D913C91139714964D915C9115971C
:1026C000241B350B821B930B8E159F0558F4ED913F
:1026D000FC910280F381E02DC801B7011995882390
:1026E00009F43FC0BFB6F894F80186819781AC0128
:1026F0004F5F5F4F22813381F901E823F923D8012D
:1027000014966D917C911597CB0182279327842392
:102710009523892B29F0421B530B460F571F02C0EC
:102720004E1B5F0BEA01E416F50608F4E701D80139
:1027300018968D919C9119978E0F9F1FB601AE012F
:1027400072DFF801828193818C0F9D1F82839383B6
:10275000BFBECC0EDD1EEC1AFD0AE114F10409F037
:10276000A1CFDF91CF911F910F91FF90EF90DF905C
:10277000CF90BF9008950F931F93DF93CF930F9245
:10278000CDB7DEB78C0169836A3019F4C8016DE0FA
:10279000F2DFC801BE016F5F7F4F41E050E075DF9F
:1027A0002981332727FD3095C9010F90CF91DF9103
:1027B0001F910F9108954F925F926F927F928F9227
:1027C0009F92AF92BF92CF92DF92EF92FF920F93C0
:1027D0001F93DF93CF93CDB7DEB7A097CDBFDEBFFA
:1027E0002C013B01DB011796CD90DD90ED90FC9024
:1027F0001A97C114D104E104F10421F050E2A52E8E
:10280000B12C05C080E388A34FE1A42EB12CF301C5
:1028100085818F3699F0803724F4883509F094C08B
:1028200011C0853739F0883709F08EC0FE01EA0DF6
:10283000FB1D62C04E018A0C9B1C3BC0FE01EA0DD1
:10284000FB1D13C0FE01EA0DFB1D79C08C2D8770A6
:10285000805D33E0F694E794D794C7943A95D1F726
:102860000894A108B10880833197C114D104E10410
:10287000F10461F769C0C701B6012AE030E040E029
:1028800050E00E943E2A162F105DC701B6012AE0D3
:1028900030E040E050E00E943E2AC901DA016C01BC
:1028A0007D010894A108B108D4011C930894810803
:1028B0009108C114D104E104F104E9F645C0D7013F
:1028C000C6018F709070A070B0702C2D2F700A9779
:1028D000A105B10518F0822F895A02C0822F805DB0
:1028E00024E0F694E794D794C7942A95D1F70894F6
:1028F000A108B10880833197C114D104E104F10427
:10290000F1F622C0D701C6018F709070A070B07030
:102910002C2D2F700A97A105B10518F0822F895C24
:1029200002C0822F805D94E0F694E794D794C79418
:102930009A95D1F70894A108B10880833197C11402
:10294000D104E104F104F1F6F301808191818197D2
:1029500020F080E290E08083918300E210E00A1989
:102960001B09FE01EA0DFB1D09C00894A108B1086E
:10297000D30116968C9180833197890198012F5F3E
:102980003F4FD3018D919C910817190770F3BE0139
:102990006F5F7F4F6A0D7B1DC201A80176DEC80103
:1029A000A096CDBFDEBFCF91DF911F910F91FF9019
:1029B000EF90DF90CF90BF90AF909F908F907F90DF
:1029C0006F905F904F9008952F923F924F925F9239
:1029D0006F927F928F929F92AF92BF92CF92DF922F
:1029E000EF92FF920F931F93DF93CF93CDB7DEB794
:1029F000AD97CDBFDEBF1C016CA77DA74A0100E0EB
:102A000010E066247724D8C10330110509F46AC0A8
:102A1000043011055CF40130110539F10230110563
:102A20000CF03FC00115110571F0C6C1053011054C
:102A300009F467C0053011050CF459C006301105C2
:102A400009F0BAC169C0653251F419821A821B8239
:102A50001C821D8220E22F8301E010E0ADC1C10184
:102A60008ADE0894611C711CA7C16B3271F06C3254
:102A70003CF4633251F0653259F0603281F405C0A4
:102A80006D3219F0603359F46F8302E010E094C1A5
:102A9000C10165E270DE0894611C711C8BC102E00B
:102AA00010E0462F552747FD5095CA01C0970A9759
:102AB000C8F4603321F489819A81892B69F1898175
:102AC0009A819C01A3E0220F331FAA95E1F7880F9A
:102AD000991F280F391F420F531F405350404983FD
:102AE0005A836AC16E3259F404E010E065C1862F42
:102AF000992787FD9095C0970A9708F45DC105E076
:102B000010E0683621F06C3611F06C3411F46D83EE
:102B100053C16A3709F450C16E836E3609F43FC160
:102B20006F367CF4633609F4F6C0643624F46835F5
:102B300009F040C1CAC06436B9F0693609F03AC13B
:102B400013C0633709F4FCC064373CF46F3609F4F2
:102B5000BCC0603709F02EC105C1653709F4B5C0A6
:102B6000683709F027C1B1C08D818C3671F4F4014A
:102B700080819181A281B38188879987AA87BB8749
:102B800024E030E0820E931E0FC0D4018D919C9101
:102B9000AA2797FDA095BA2F88879987AA87BB8710
:102BA000E2E0F0E08E0E9F1EC884D984EA84FB84A4
:102BB000C114D104E104F10439F4F0E3FBA700E00F
:102BC000EFE1AE2EB12C10C0F7FC02C000E009C04E
:102BD000F094E094D094C094C11CD11CE11CF11C71
:102BE00001E070E2A72EB12C0894A108B1086CE0B6
:102BF000462E512C4C0E5D1E4A0C5B1C0894A11CE9
:102C0000B11C1EC0C701B6012AE030E040E050E030
:102C10000E94602A162F105DC701B6012AE030E03D
:102C200040E050E00E94602AC901DA016C017D0198
:102C30000894A108B108D2011C93089441085108D6
:102C4000C114D104E104F104E9F6002359F0089419
:102C5000A108B108ECE0F0E0EC0FFD1FEA0DFB1D50
:102C6000BDE2B08389819A81819720F0E0E2F0E0B3
:102C7000E983FA8389819A812F8100E210E00A19A1
:102C80001B090894A108B108ECE0F0E0EC0FFD1F6F
:102C9000EA0DFB1D0894A11CB11C07C00894A108F3
:102CA000B10820830F5F1F4F319708171907B0F342
:102CB0002CE030E02C0F3D1FA20EB31EC101B50168
:102CC000A801E3DC600E711E75C08D818C3671F435
:102CD000F40180819181A281B38188879987AA8735
:102CE000BB8724E030E0820E931E0DC0D4018D918D
:102CF0009C91A0E0B0E088879987AA87BB87E2E033
:102D0000F0E08E0E9F1EC101BE016F5F7F4F53DD4D
:102D1000680E791E4FC084010E5F1F4FD4012D91A4
:102D20003C91442737FD4095542F288739874A879F
:102D30005B87C101622F1FDD0894611C711C2DC0CF
:102D400084010E5F1F4FF401E080F180E886F98670
:102D5000C70190DC6C01C101B701A60196DC6C0CC7
:102D60007D1C1BC084010E5F1F4FD4018D919C916F
:102D700088879987C10166E270E242E050E085DC15
:102D8000B8E7BE83C101BE016F5F7F4F14DDE2E093
:102D9000F0E06E0E7F1E680E791E48010BC0D40154
:102DA000ED91FC91E887F98760827182E2E0F0E0C2
:102DB0008E0E9F1E00E010E0ACA5BDA56D91ACA7E6
:102DC000BDA7662309F020CED101ED91FC910190C1
:102DD000F081E02DC1011995C301AD96CDBFDEBFD5
:102DE000CF91DF911F910F91FF90EF90DF90CF90E7
:102DF000BF90AF909F908F907F906F905F904F901B
:102E00003F902F900895CF93DF93EC0118C0AE85CB
:102E1000BF85A80FB91F8E819F8128233923E8859C
:102E2000F985E20FF31F20818C819D8101968C83AF
:102E30009D832C938A859B8501968A879B872C810D
:102E40003D818A819B8182179307C1F08A859B858A
:102E50004C855D8584179507D0F2019684179507F8
:102E600030F40CC08C819D8101968C839D832A81D6
:102E70003B818C819D8128173907A1F7DF91CF9184
:102E80000895FC01A081B1812D913C91F901199522
:102E900081E008958F929F92AF92BF92CF92DF927E
:102EA000EF92FF920F931F93DF93CF93CDB7DEB7CF
:102EB000E097CDBFDEBF22968EAC9FAC22972496C2
:102EC000EEACFFAC24975E010894A11CB11C80E31A
:102ED000F50111928A95E9F782E090E289839A835D
:102EE0008FE190E08F8398870894E108F108ED86E0
:102EF000FE860894E11CF11C8F86988A96E4C92E00
:102F0000D12CCC0EDD1E8E010F5E1F4FC80160E07C
:102F100070E040E250E0A0DB09871A87C5012696E1
:102F20006EAD7FAD2697A6014FDD9C018B859C85FC
:102F3000F401E80FF91F8E159F0508F031971082F4
:102F4000C901E096CDBFDEBFCF91DF911F910F91F8
:102F5000FF90EF90DF90CF90BF90AF909F908F90B9
:102F60000895BC01EBE3F0E220E030E08081918144
:102F70006817790788F0828193818617970760F038
:102F8000C901880F991F820F931F880F991F880FFF
:102F9000991F875C9F4DF0C02F5F3F4F3C962430B8
:102FA000310521F70895EF92FF920F931F93CF936E
:102FB000DF937C0103E310E220E030E0C0E0D0E0EA
:102FC000F801808191818E159F0578F0CE01880FE0
:102FD000991F8C0F9D1F880F991F880F991F875C61
:102FE0009F4DBBD09C01009731F42196045F1F4F89
:102FF000C430D10529F7C901DF91CF911F910F91FD
:10300000FF90EF9008952F923F924F925F926F92B0
:103010007F928F929F92AF92BF92CF92DF92EF9268
:10302000FF920F931F93CF93DF93582E492EB1E059
:103030006B2E712C02C0660C771C8A95E2F7222455
:10304000332426183708C3E3D0E288819981019799
:10305000860D971D822193212A813B81829F400109
:10306000839F900C929F900C1124A40160E070E06B
:103070008C819D81252D342D8FD06B017C015B01CE
:1030800028813981CE010696B601A401052D142DA3
:103090001ED0C886D986A80CB91CAA86BB862C96D9
:1030A00080E2C336D80789F6DF91CF911F910F9147
:1030B000FF90EF90DF90CF90BF90AF909F908F9058
:1030C0007F906F905F904F903F902F900895EF9278
:1030D000FF920F93CF93DF93FC017A01D9019B01FB
:1030E00041E050E002C0440F551F0A95E2F7662701
:1030F0007727641B750BC9010197840F951F8623E1
:103100009723E20EF31EE81AF90A1197A40FB51FD0
:10311000A623B723EC0180839183AD01440F551F93
:103120009D012C0F3D1FFE0106C0F901EA1BFB0BA0
:10313000E883F983EF014A0F5B1F2A0F3B1FCA0187
:103140008A1B9B0BE816F90680F710821182DF912B
:10315000CF910F91FF90EF900895DC012FB7F89475
:10316000ED91FC911197309721F0808191818D93A1
:103170009C932FBFCF010895DC01FB016115710500
:1031800051F02FB7F8948D919C9111978083918382
:103190006D937C932FBF0895EF92FF920F931F932F
:1031A000FC01EE24EA94FE2C870104C0EE0CFF1C07
:1031B000001F111F2A95D2F784819581A681B781BE
:1031C000841B950BA60BB70BE822F9220A231B23BD
:1031D00080819181A281B381E816F9060A071B0755
:1031E00028F4EE24EA94FE2C870104C0E482F582E0
:1031F00006831783B701C8011F910F91FF90EF90CD
:103200000895E82FF0E0EE0FFF1FEE0FFF1FE752CB
:10321000FE4D60837183428353830895DC01FB017B
:103220006115710511F480E008952FB7F89482813B
:103230009381892B11F080E00FC0CB010296A2830D
:10324000B3831296ED91FC9113978083918312962C
:103250008D939C93139781E02FBF08959FB7F894A7
:10326000E82FF0E0E059FF4F80816095862380834E
:103270009FBF0895982F80E1E0E6F6E0868384E71B
:103280008093B0098091B10986FFFCCF80E4E0EB28
:10329000F9E081839093B0098091B10986FFFCCF5A
:1032A00080E4E0EBF9E0818380E1E0E6F6E085830D
:1032B00008951F93162FDEDF80E1E0E6F6E08683B7
:1032C00086E78093B0098091B10986FFFCCF80E446
:1032D000E0EBF9E081831093B0098091B10986FF9A
:1032E000FCCF80E4E0EBF9E0818380E1E0E6F6E00A
:1032F00085831F910895BEDF80E1E0E6F6E08683D6
:1033000087E78093B009E0EBF9E08091B10986FF8F
:10331000FACF80E481838091B409806184838FEF48
:103320008093B009E0EBF9E08091B10986FFFACF14
:1033300080E481838091B0099091B4099F7E948349
:1033400090E1E0E6F6E0958308950F931F93182F20
:10335000092F82E28FDF80E1E0E6F6E0868386E7F0
:103360008093B0098091B10986FFFCCF80E4E0EB47
:10337000F9E081831093B0098091B10986FFFCCFF9
:1033800080E4E0EBF9E081830093B0098091B1091A
:1033900086FFFCCF80E4E0EBF9E0818380E1E0E6AA
:1033A000F6E085831F910F910895EF92FF920F939E
:1033B0001F93DF93CF930F920F92CDB7DEB7898320
:1033C0009A83142F052FF62EE72E82E253DF80E139
:1033D000E0E6F6E0868386E78093B0098091B10944
:1033E00086FFFCCF80E4E0EBF9E08183CE0101961B
:1033F000E0E0F1E0808F918F128E82E090E0848B8C
:10340000958B80E5828B8FE6838B212F302F4F2D7C
:103410005E2DC901DA019C01AD017FEF64EBA0EBE9
:10342000B9E090E411C0768B608B8091110187FD2B
:10343000FCCF8091B10986FFFCCF11969C93119728
:103440002F5F3040404050402F3F3105410551052E
:1034500050F7612F702F8F2D9E2D2FEF30E040E021
:1034600050E00E943E2A662389F0E0E0F1E0668B9E
:1034700084EB808B8091110187FDFCCF8091B10995
:1034800086FFFCCF80E4E0EBF9E0818380E1E0E6B9
:10349000F6E085830F900F90CF91DF911F910F91F0
:1034A000FF90EF900895CF92DF92EF92FF920F93EB
:1034B0001F93D82EC92E7A018B0182E2DBDE80E1D8
:1034C000E0E6F6E0868386E78093B0098091B10953
:1034D00086FFFCCF80E4E0EBF9E08183E0E0F1E0FF
:1034E000D08EC18E128E80E1828B8FE6838BD801C5
:1034F000C701880F991FAA1FBB1F9D01442755278D
:10350000BC01222389F0148A158A268B84EA808BD9
:103510008091110187FDFCCF8091B10986FFFCCF1E
:1035200080E4E0EBF9E081836115710591F0E0E062
:10353000F1E0648B758B84E8808B8091110187FDAD
:10354000FCCF8091B10986FFFCCF80E4E0EBF9E08D
:10355000818380E1E0E6F6E085831F910F91FF9083
:10356000EF90DF90CF900895CF92DF92EF92FF928D
:103570000F931F93D82EC92E7A018B0182E27ADE37
:1035800080E1E0E6F6E0868386E78093B0098091EB
:10359000B10986FFFCCF80E4E0EBF9E08183B8015C
:1035A000A701440F551F661F771F8D2D9C2DFC0111
:1035B000A0EBB9E090E40FC084918093B0098091B2
:1035C000B10986FFFCCF11969C931197319641501B
:1035D000504060407040411551056105710561F72B
:1035E00080E1E0E6F6E085831F910F91FF90EF9078
:1035F000DF90CF900895AF92BF92CF92DF92EF927B
:10360000FF920F931F93D62EC72EB82EA92E7901A5
:103610008A0182E22FDE80E1E0E6F6E0868386E73B
:103620008093B0098091B10986FFFCCF80E4E0EB84
:10363000F9E08183EE0CFF1C001F111F2D2D3C2D86
:103640004B2D5A2DC901DA019C01AD01A0EBB9E067
:1036500090E416C0F9014BBF80811BBE8093B00976
:103660008091B10986FFFCCF11969C9311972F5F33
:103670003F4F4F4F5F4F0894E108F10801091109CE
:10368000E114F1040105110529F780E1E0E6F6E017
:1036900085831F910F91FF90EF90DF90CF90BF90A7
:1036A000AF900895DC01F9018091E1219091E22130
:1036B000481759071CF0AC01415050408091EB2154
:1036C0009091EC21E817F90714F0FC0131979D0166
:1036D000B7FF02C020E030E02093E5213093E621DF
:1036E0009B0177FF02C020E030E02093E921309376
:1036F000EA214093E3215093E421E093E721F09302
:10370000E82108951F9380FD02C020E001C020E45D
:1037100081FD02C010E001C010E882FD02C080E01F
:1037200001C080E2122B182B86E1E5DD682F6F7156
:10373000612B86E1BEDD15FF09C080E491E0809336
:10374000E1219093E22180EF90E008C080EF90E0CB
:103750008093E1219093E22180E491E08093EB213A
:103760009093EC214091E1215091E2214150504051
:103770002091EB213091EC212150304080E090E00D
:1037800060E070E08FDF1F9108958091E1219091BA
:10379000E22108958091EB219091EC210895EF9220
:1037A000FF920F931F938C017B01612F772767FD99
:1037B0007A9582E07EDD83E0602F7BDD6F2D7727B9
:1037C00067FD7A9586E075DD87E06E2D72DD1F91CD
:1037D0000F91FF90EF900895EF92FF920F931F9338
:1037E0008C017B01692F772767FD7A9584E061DD85
:1037F00085E0602F5EDD6F2D772767FD7A9588E085
:1038000058DD89E06E2D55DD1F910F91FF90EF90EF
:103810000895EF92FF920F931F938A017901BFDF02
:10382000C801B701D9DF1F910F91FF90EF90089564
:10383000CF93DF93FC019B01EA018091E5219091F8
:10384000E621E817F907D4F08091E3219091E42173
:103850008E179F079CF08091E9219091EA216817CB
:10386000790764F08091E7219091E8218617970706
:103870002CF0CF01AF01CDDFCE0167DDDF91CF911D
:1038800008951F9380E061E0E9DCE0E0F1E010E8FA
:10389000108380EB848F89E0858F168E84E060E250
:1038A000DDDCE0E6F6E080E185838183118380E45E
:1038B000828380E28183E0EBF9E080EC858381E024
:1038C000868388E1848380E696E064E040E050E00F
:1038D000B4D7E0E0FBE08181856181838BE490E0F7
:1038E00080A791A784E690E086A397A387E08083D2
:1038F00080E696E061E040E053E09FD780E696E006
:1039000062E040E053E099D712E01093660682E34C
:1039100090E00E9457291093650688E893E10E9481
:10392000572989E1E8DC682F6B6389E1C2DC80E517
:1039300093EC0E9457298BE1DEDC682F6E7F8BE1D0
:10394000B8DC86E464E9B5DC87E461E4B2DC88E4F1
:1039500060E0AFDC89E463E3ACDC8AE463E2A9DC29
:103960008BE465E4A6DC8CE464E4A3DC8DE467E727
:10397000A0DC8EE462E19DDC8FE46CEC9ADC80E5F7
:1039800066E497DC81E562E894DC81E066E091DC46
:103990008AE361E08EDC8BE361E08BDC8CE360EF3B
:1039A00088DC8DE360E085DC8EE368E382DC80E424
:1039B0006FE07FDC81E460EF7CDC87E262E079DC51
:1039C00088E262E076DC89E262E073DC8AE262E04F
:1039D00070DC8CE262E06DDC8DE262E06ADC80E744
:1039E0006EE067DC89E169E464DC82E060E061DC70
:1039F00083E060E05EDC84E060E05BDC85E06FEE4D
:103A000058DC86E060E055DC87E060E052DC88E06E
:103A100061E04FDC89E06FE34CDC86E168E049DC83
:103A200083E265E946DC84E265E943DC85E26FEF29
:103A300040DC80E96FE73DDC85E368E33ADC86E360
:103A400068E737DC8DE167E034DC8EE160E031DC93
:103A50008FE164E02EDC80E260E42BDC84E468E348
:103A600028DC85E462E125DC80E197E20E945729A9
:103A70008CE164E01EDC80E29EE40E94572983E42E
:103A800060E817DC88E893E10E9457298BE168E041
:103A900010DC80E49CE90E9457298BE160E109DC9D
:103AA00080E49CE90E94572986E264E002DC80E41D
:103AB0009CE90E94572986E264E2FBDB86E26CE225
:103AC000F8DB80E49CE90E94572986E26CE3F1DB95
:103AD00086E018DE1F9108952F923F924F925F92D9
:103AE0006F927F928F929F92AF92BF92CF92DF920E
:103AF000EF92FF920F931F93DF93CF93CDB7DEB773
:103B00006397CDBFDEBF6C015B0179010B8341156B
:103B1000510519F4A9018CDECAC0CA01880F991F8A
:103B200000271127081B190B0D5F1F4FA982BA82AE
:103B300016014A8B5B8B26013501882499242B8141
:103B4000822F90E0FC01E170F070EC83FD839C011A
:103B5000227030702E833F83FC01E470F070E887A0
:103B6000F9879C01287030702A873B87FC01E0713F
:103B7000F070EC87FD879C01207230702E873F87A4
:103B8000FC01E074F070E88BF98B8BC02C813D81D7
:103B9000232B39F08A899B898C0D9D1DB301A701C8
:103BA00047DE8E819F81892B41F0B501EA89FB892F
:103BB0006E1B7F0BC101A7013BDE28853985232BB6
:103BC00041F0B5018A899B89681B790BC201A70165
:103BD0002FDEEA85FB85EF2B41F0C6012A893B8960
:103BE000821B930BB301A70123DE8C859D85892B56
:103BF00049F0C601EA89FB898E1B9F0B69817A8196
:103C0000A70116DE2E853F85232B39F06A897B8933
:103C10006A0D7B1DC201A7010BDE88899989892B5A
:103C200039F06A897B896A0D7B1DC101A70100DE1D
:103C30009B8197FF08C08A899B898C0D9D1D698196
:103C40007A81A701F5DD17FF0AC00A5F1F4FC40183
:103C5000880F991F880F991F080F191F10C0065F42
:103C60001F4FC401EA89FB898E1B9F0B880F991F88
:103C7000880F991F080F191F3197EA8BFB8B089447
:103C8000811C911C29813A812F5F3F4F29833A8300
:103C90000894211C311C08944108510808946108BB
:103CA00071088A899B89881599050CF06FCF6396F6
:103CB000CDBFDEBFCF91DF911F910F91FF90EF90AD
:103CC000DF90CF90BF90AF909F908F907F906F903C
:103CD0005F904F903F902F900895AF92BF92CF92F8
:103CE000DF92EF92FF920F931F93CF93DF93FB012D
:103CF0006A01790158014115510509F47DC021156A
:103D0000310509F479C057FF07C0D094C194D10898
:103D1000D39401968C199D09F7FE07C0F094E194A5
:103D2000F108F3943196EE19FF094091E321509187
:103D3000E421481759070CF45FC0C091E721D091E6
:103D4000E821CE17DF070CF457C0D601A80FB91F22
:103D50002091E5213091E6212A173B070CF04CC059
:103D600087010E0F1F1F6091E9217091EA216017F2
:103D700071070CF041C08217930714F09C0103C037
:103D80006D01C21AD30AE617F70714F0BF0103C08A
:103D90007801E61AF70AF901EC0DFD1D3197DB01F8
:103DA000AE0DBF1D11974E175F0714F0AF0107C08E
:103DB0004F5F5F4F6A01C21AD30A41505040CA1781
:103DC000DB0714F0ED0105C021967E01E61AF70A23
:103DD0002197C9019E011DDDB701882777FD8095D8
:103DE000982F9601442737FD4095542F0E94F829BB
:103DF000AB01BC01C501D9DADF91CF911F910F91C1
:103E0000FF90EF90DF90CF90BF90AF9008950F9309
:103E10001F93FA01890141E050E09F015EDF1F918D
:103E20000F9108950F931F93890121E030E055DF32
:103E30001F910F9108958F929F92AF92BF92CF9250
:103E4000DF92EF92FF920F931F937C016B015A0157
:103E500049019801E7DFB60161507040680D791D96
:103E6000C701A5019801DEDFC701B601A4019801D1
:103E7000CEDF0894E108F108C7018A0D9B1DB60149
:103E8000A4019801C4DF1F910F91FF90EF90DF9084
:103E9000CF90BF90AF909F908F900895EF92FF9238
:103EA0000F931F93CF93DF93DC01FB018A0179010C
:103EB000278130E0858190E0289FE001299FD00D87
:103EC000389FD00D1124868190E0829FF001839F5E
:103ED000F00D929FF00D1124BF0141E050E020E071
:103EE00030E08C918A3029F46E0F7F1F20E030E0A3
:103EF00008C08D3031F02C0F3D1F421753070CF4D2
:103F0000A90111968C91882361F7F80140835183B0
:103F1000F70160837183DF91CF911F910F91FF9023
:103F2000EF9008952F923F924F925F926F927F92FF
:103F30008F929F92AF92BF92CF92DF92EF92FF92B9
:103F40000F931F93DF93CF93CDB7DEB76A97CDBFA3
:103F5000DEBFB82E698F7A8F4A0169010F8B188FE7
:103F6000F9018085B81608F4B82EF60181858B1505
:103F700008F4B82EF8EFEF16F104D9F0F601278116
:103F800030E0858190E0289FA001299F500D389F47
:103F9000500D1124868190E0B901869F9001879F82
:103FA000300D969F300D1124898D9A8DB4018701B3
:103FB00094DEF6018081882321F0813009F0E3C08E
:103FC00065C0F60147808581482F46954695469500
:103FD00090E087709070892B09F04F5FF601568052
:103FE0008B2D90E02085821B9109252D30E0B901B1
:103FF000869F9001879F300D969F300D1124842F4E
:1040000090E0FC012E9FC0012F9F900D3E9F900DD0
:104010001124F601A180B280A80EB91E242C3324ED
:10402000F601F581FE8B898D9A8D9C0179016624BC
:10403000772423C0872D90E087709070892B29F416
:10404000F50164900894A11CB11C67FE12C0F1E058
:104050004F1631F4C701B4014F89588DE9DB09C00F
:10406000C701B401442D50E0242D30E00F89188D94
:1040700034DEE20CF31C660C73944E897416D0F295
:104080005A9409F480C0820C931CCACFF601478071
:104090008581282F26952695269590E0877090702B
:1040A000892B09F02F5FF6015680259D802D112464
:1040B00090E02B2D30E04085241B3109829F500178
:1040C000839FB00C929FB00C112484E1782E242C95
:1040D0003324F601F581FD8B898D9A8D9C01790140
:1040E000662448C0862D90E087709070892B21F55A
:1040F00044E17416B9F4F60181819281A381B481FF
:10410000A50160E070E0480F591F6A1F7B1FCE01B8
:10411000019624E130E00E94632944E150E0A40EBE
:10412000B51E7724E1E0F0E0EC0FFD1FE70DF11D77
:1041300080818093AC2173948091AC2187FF12C061
:1041400051E0451631F4C701B4014F89588D70DB39
:1041500009C0C701B401442D50E0242D30E00F897F
:10416000188DBBDDE20CF31C8091AC21880F80938D
:10417000AC2163946D89661608F4B4CF5A9419F093
:10418000820C931CA6CF6A96CDBFDEBFCF91DF9184
:104190001F910F91FF90EF90DF90CF90BF90AF9065
:1041A0009F908F907F906F905F904F903F902F9057
:1041B00008952F923F924F925F926F927F928F92CB
:1041C0009F92AF92BF92CF92DF92EF92FF920F93A6
:1041D0001F93DF93CF9300D0CDB7DEB76C01698317
:1041E000272E4A01590128013701F9013780FC01C6
:1041F0004491862F972F9C012A833B832BC04A3002
:1042000069F4F5018681389EC0011124880E991E3B
:104210002981322DC9018A839B8317C0F6018081D1
:104220008D3099F0842F6A817B81A40195018201F0
:10423000730178DEF5018581389EC00111242A8141
:104240003B81280F391F2A833B830894C11CD11C52
:10425000F6014491442399F62396CDBFDEBFCF915A
:10426000DF911F910F91FF90EF90DF90CF90BF9063
:10427000AF909F908F907F906F905F904F903F9006
:104280002F9008952F923F924F925F926F927F925C
:104290008F929F92AF92BF92CF92DF92EF92FF9256
:1042A0000F931F93DF93CF9300D0CDB7DEB75C01A0
:1042B0006983272E4A01690128013701F9013780F6
:1042C000862F972F9C012A833B83F50180818A30BA
:1042D00069F4F6018681389EC0011124880E991E6A
:1042E0002981322DC9018A839B8314C08D3091F0BE
:1042F0006A817B81A40196018201730113DEF601BC
:104300008581389EC00111242A813B81280F391FE5
:104310002A833B830894A11CB11CF501808188236A
:10432000A1F62396CDBFDEBFCF91DF911F910F91F4
:10433000FF90EF90DF90CF90BF90AF909F908F90C5
:104340007F906F905F904F903F902F9008952F92A5
:104350003F924F925F926F927F928F929F92AF9215
:10436000BF92CF92DF92EF92FF920F931F93DF9352
:10437000CF93CDB7DEB72897CDBFDEBFFC016983F1
:104380007A833701260120803180E114F10409F499
:10439000B2C1C114D10409F4AEC1C090E321D090E0
:1043A000E421C216D3060CF4A6C1A090E721B09078
:1043B000E821A016B1060CF49EC18090E5219090F2
:1043C000E621C701820F931F881699060CF093C14E
:1043D0006091E9217091EA216F837887C201800F93
:1043E000911F681779070CF086C12815390514F05C
:1043F00049010DC0C90188199909680E791E898182
:104400009A81880D991D821B930B89839A83AF81B2
:10441000B8850A171B071CF00F8318870BC0C8014B
:104420002F813885821B930B480E591E420F531F54
:10443000401B510BC401860D971D01972F813885B4
:10444000240D351D21503040C816D90614F06C01DA
:1044500009C00894C11CD11C360168187908089459
:10446000C108D108A216B30614F059010BC0089474
:10447000A11CB11C25016F817885461A570A089442
:10448000A108B10884818130C1F0813038F08230D8
:1044900009F46CC0833009F02EC1C0C0C818D90817
:1044A0008F819885A81AB90A05811681C4016F8188
:1044B0007885A601950111DC1EC1058116818981CF
:1044C0009A81880F991F080F191F141615066CF48E
:1044D000C101880F991FDC01A49FC001A59F900D09
:1044E000B49F900D1124080F191FC601B50174D98E
:1044F0002614370451F07101EE0CFF1C6201130108
:10450000442437FC4094542C2DC0E981FA81EF2BD0
:1045100091F7C4016F81788542D9B201882777FD70
:104520008095982F9101442737FD4095542F60D7EF
:10453000AB01BC01C8010E94531ADDC0C4016F81E8
:1045400078852DD92F8138852F5F3F4F2F8338876E
:10455000C801B201A1010E94531A0E0D1F1D08943B
:10456000C108D1081C141D044CF3C5C00581168177
:1045700089819A81880F991F080F191F1416150633
:104580006CF4C101880F991FBC01649FC001659F35
:10459000900D749F900D1124080F191FC601B501CD
:1045A0001BD92614370451F07101EE0CFF1C620177
:1045B0001301442437FC4094542C2CC089819A81E7
:1045C000892B91F7C4016F817885E9D8B2018827DA
:1045D00077FD8095982F9101442737FD4095542F02
:1045E00007D7AB01BC01C8010E94B41A84C0C40142
:1045F0006F817885D4D8AF81B8851196AF83B8879D
:10460000C801B201A1010E94B41A0E0D1F1D089429
:10461000C108D1081C141D0454F36DC08581968116
:10462000A781B085E981FA817F010027F7FC009519
:10463000102FE80EF91E0A1F1B1F141615067CF416
:10464000BA01882777FD8095982F9101442737FD7F
:104650004095542FCDD6E60EF71E081F191FC60130
:10466000B501BAD826143704A1F529813A81232B44
:1046700081F5C4016F81788592D8B201882777FDD2
:104680008095982F9101442737FD4095542FB0D63F
:104690009B01AC01C801B7010E94FB1A2CC0C401E8
:1046A0006F8178857CD86F8178856F5F7F4F6F834E
:1046B0007887C801B7012B813C814D815E810E94C2
:1046C000FB1AE40CF51C061D171D0894C108D1083F
:1046D0000FC06201C301AA2797FDA095BA2F8B8353
:1046E0009C83AD83BE832101662457FC6094762CA5
:1046F0001C141D04A4F22896CDBFDEBFCF91DF911C
:104700001F910F91FF90EF90DF90CF90BF90AF90EF
:104710009F908F907F906F905F904F903F902F90E1
:1047200008952F923F924F925F926F927F928F9255
:104730009F92AF92BF92CF92DF92EF92FF920F9330
:104740001F93DF93CF9300D000D0CDB7DEB71C010D
:10475000FA0129833A830B831C83DC0114968C9124
:1047600014978823A9F421E030E0A901461B570BD8
:1047700089819A81480F591F2E1B3F0B200F311F33
:1047800015960D911C911697CB01BF01A6DA3FC07B
:10479000D1014D905C90119712966D907C9013977B
:1047A00047016419750902C0840C951C68157905C8
:1047B000DCF78601AF014619570902C0060D171D27
:1047C00040175107DCF758011AC0C10160E070E0E2
:1047D00040E050E02D813E81850172016301B7DD2B
:1047E000ED81FE81E40DF51DED83FE832D813E817B
:1047F00089819A818217930744F7A60CB71CAB8175
:10480000BC81AA15BB051CF08D829E82EFCF269637
:10481000CDBFDEBFCF91DF911F910F91FF90EF9041
:10482000DF90CF90BF90AF909F908F907F906F90D0
:104830005F904F903F902F900895CF93DF93DC01CE
:10484000FC01709620E030E0C62FD0E0CE01022EB1
:1048500002C0959587950A94E2F780FD40832F5F0B
:104860003F4F31962830310589F750FF0CC051FF7A
:1048700004C015966C93159703C016966C93169703
:1048800011966C9302C012966C93DF91CF910895AC
:104890001F920F920FB60F9208B60F920BB60F929F
:1048A000112418BE1BBE8F93EF93FF93E9E0F6E04F
:1048B00080818C7F80831092B8211092B921109250
:1048C000BA211092BB2182E08093AE2180EC8093CC
:1048D000B000109210068093020680E280930506D5
:1048E00080E3809301068093210288E3809329026C
:1048F0008DE080930002FF91EF918F910F900BBE9E
:104900000F9008BE0F900FBE0F901F9018951F922A
:104910000F920FB60F9208B60F92112418BE2F9364
:104920003F934F935F938F939F938091AE218230FB
:1049300021F0833009F081C03CC08091100290E0EA
:1049400040911102342F20E0282B392B5091120274
:1049500040911302942F80E0850F911D820F931FC9
:10496000969587952091B8213091B921280F391F4C
:104970002093B8213093B9218091AD218F5F80932E
:10498000AD218430E0F11092AD2183E08093AE211F
:1049900080E38093B000109210068093020680ECB2
:1049A0008093010680E28093210288E280932902AD
:1049B00026C08091100290E040911102342F20E037
:1049C000282B392B5091120240911302942F80E032
:1049D000850F911D820F931F969587952091BA217F
:1049E0003091BB21280F391F2093BA213093BB216E
:1049F0008091AD218F5F8093AD21843020F48DE0D4
:104A0000809300021AC01092AD2184E08093AE2101
:104A100090EC9093B0008BE1809310069093020687
:104A200080E380930606809301069FB7F8948091F7
:104A3000D82181608093D8219FBF9F918F915F91F2
:104A40004F913F912F910F9008BE0F900FBE0F9086
:104A50001F90189521E02093AE211092AF2190EC89
:104A60009093B0008BE1809310069093020680E350
:104A7000809306068093010682E0809306022093CD
:104A80002A0220930C06E9E0F6E080818C7F8160A9
:104A9000808308959FB7F894E9E0F6E080818C7FE9
:104AA000808310922A029FBF08952FB7F8948093B5
:104AB000F1219093F2212FBF08958091F1219091DF
:104AC000F2210895ACEBB1E2FC018CE101900D9272
:104AD0008150E1F708952F923F924F925F926F922B
:104AE0007F928F929F92AF92BF92CF92DF92EF927E
:104AF000FF920F931F93DF93CF93CDB7DEB7EE975F
:104B0000CDBFDEBF8C016DAF7EAFDC0114962D9161
:104B10003C911597A90160E070E04DA35EA36FA3DF
:104B200078A716962D913C911797B90180E090E0F7
:104B300069A37AA38BA39CA3C8010896DC011496F1
:104B40002D903C9015974424552416962D913C9118
:104B50001797A90160E070E04D8F5E8F6F8F78A38B
:104B6000D801509614962D913C911597A90160E0BB
:104B700070E0498F5A8F6B8F7C8F16962D913C91E8
:104B80001797A90160E070E04D8B5E8B6F8B788F7B
:104B9000F80120813181A901662757FD6095762FA4
:104BA000498B5A8B6B8B7C8B22813381A9016627C1
:104BB00057FD6095762F4D875E876F87788B2085B0
:104BC0003185A901662757FD6095762F49875A8759
:104BD0006B877C87FC01828193819C01442737FD90
:104BE0004095542F2D833E834F835887F80160886A
:104BF0007188882477FC8094982C12968D919C91D2
:104C000013979C01442737FD4095542F29833A83FD
:104C10004B835C83A988BA88CB88DC88A618B70840
:104C2000C808D9084D8D5E8D6F8D78A18D899E89BC
:104C3000AF89B88D481B590B6A0B7B0B49AF5AAF34
:104C40006BAF7CAF29853A854B855C852619370982
:104C5000480959092DAB3EAB4FAB58AF49A15AA1FA
:104C60006BA17CA1841B950BA60BB70B89AB9AABF0
:104C7000ABABBCABBC01CD012DA93EA94FA958AD32
:104C8000B7D37B018C0169AD7AAD8BAD9CADA6012C
:104C90009501AED3E60EF71E081F191FADADBEADD0
:104CA000ED92FD920D931C9313972DA13EA14FA160
:104CB00058A5698D7A8D8B8D9C8D261B370B480BE3
:104CC000590B2DA73EA74FA758AB6219730984094A
:104CD000950969A77AA78BA79CA7A601950188D3F8
:104CE0007B018C016DA57EA58FA598A92DA93EA954
:104CF0004FA958AD7DD3E60EF71E081F191FADADA5
:104D0000BEAD1496ED92FD920D931C931797C401BE
:104D1000B3012DA13EA14FA158A56AD37B018C01FF
:104D200069897A898B899C89298D3A8D4B8D5C8D17
:104D30005FD3E61AF70A080B190BC801B7012D8DCE
:104D40003E8D4F8D58A154D35B016C0169857A85E6
:104D50008B859C85298D3A8D4B8D5C8D49D37B014C
:104D60008C01C401B301A201910142D3E61AF70AF2
:104D7000080B190BC801B70129A13AA14BA15CA1ED
:104D800037D3A60EB71EC81ED91E69897A898B89AA
:104D90009C89A20191012CD37B018C0169857A85C4
:104DA0008B859C852DA13EA14FA158A521D3E61A44
:104DB000F70A080B190BC801B7012D893E894F89E5
:104DC000588D16D3A60EB71EC81ED91EEDADFEAD6A
:104DD000A086B186C286D386AD84BE84CF84D888AF
:104DE00029813A814B815C81A21AB30AC40AD50A8F
:104DF0006D807E808F809884621A730A840A950A77
:104E0000C401B30129A93AA94BA95CA9F1D27B013C
:104E10008C01C601B50129AD3AAD4BAD5CADE8D210
:104E2000E60EF71E081F191FADADBEAD1C96ED9224
:104E3000FD920D931C931F97C601B50129A53AA5B4
:104E40004BA55CA5D5D27B018C01C401B3012DA576
:104E50003EA54FA558A9CCD2E60EF71E081F191F74
:104E6000EDADFEADE08AF18A028B138B69817A8108
:104E70008B819C812DA13EA14FA158A5B9D27B0168
:104E80008C016D857E858F859889298D3A8D4B8D16
:104E90005C8DAED2E61AF70A080B190BC801B701F0
:104EA0002D8D3E8D4F8D58A1A3D25B016C016D817C
:104EB0007E818F819885298D3A8D4B8D5C8D98D21E
:104EC0007B018C0169817A818B819C81A201910196
:104ED0008FD2E61AF70A080B190BC801B70129A1EE
:104EE0003AA14BA15CA184D2A60EB71EC81ED91E42
:104EF0006D857E858F859889A201910179D27B018C
:104F00008C016D817E818F8198852DA13EA14FA15D
:104F100058A56ED2E61AF70A080B190BC801B7019B
:104F20002D893E894F89588D63D2A60EB71EC81EA3
:104F3000D91EADADBEAD5496AD92BD92CD92DC9270
:104F40005797298D3A8D4B8D5C8D221A330A440A6E
:104F5000550AC201B10129A93AA94BA95CA948D2B5
:104F60007B018C016DA57EA58FA598A929AD3AADD1
:104F70004BAD5CAD3DD2E60EF71E081F191FADAD5F
:104F8000BEAD5896ED92FD920D931C935B97EE96F5
:104F9000CDBFDEBFCF91DF911F910F91FF90EF90BA
:104FA000DF90CF90BF90AF909F908F907F906F9049
:104FB0005F904F903F902F9008952F923F924F9285
:104FC0005F926F927F928F929F92AF92BF92CF9299
:104FD000DF92EF92FF920F931F93DF93CF93CDB7A2
:104FE000DEB76897CDBFDEBF8091D4219091D521E7
:104FF000A091D621B091D72189839A83AB83BC83BA
:105000000097A105B10541F481E090E0A0E0B0E097
:1050100089839A83AB83BC83A091B821B091B921D5
:10502000B695A795B695A795AD8BBE8BA093B821E5
:10503000B093B921E091BA21F091BB21F695E795A3
:10504000F695E795EF8BF88FE093BA21F093BB21AB
:105050002091BC213091BD214091BE215091BF21B2
:105060008091C0219091C121A091C221B091C32112
:10507000898B9A8BAB8BBC8B2090C4213090C5213F
:105080004090C6215090C7218091C8219091C9219C
:10509000A091CA21B091CB218D879E87AF87B88B15
:1050A0008091CC219091CD21A091CE21B091CF21A2
:1050B00089879A87AB87BC878091D0219091D12135
:1050C000A091D221B091D3218D839E83AF83B887E5
:1050D00091E090930C0680910C0680FD0CC090939B
:1050E000AE218091AF218150823008F099C083E0D9
:1050F0008093AF218CC0AD89BE895D01CC24DD24B5
:10510000EF89F88D3F0188249924C601B50170D13B
:105110007B018C01C401B30129893A894B895C89DF
:1051200067D1E60EF71E081F191F2E0C3F1C401EEC
:10513000511EC201B10129813A814B815C81C0D1EC
:1051400019012A01C601B5012D853E854F85588973
:105150004FD17B018C01C401B30129853A854B8570
:105160005C8546D1E60EF71E081F191F8D819E81B2
:10517000AF81B8858E0D9F1DA01FB11F8D839E83AB
:10518000AF83B887BC01CD0129813A814B815C8115
:1051900097D179018A0185E08093AE218091AF217A
:1051A000882311F0833011F481E01BC08091B0217D
:1051B0009091B121AA2797FDA095BA2F821593054A
:1051C000A405B50569F48091B2219091B321AA2775
:1051D00097FDA095BA2F8E159F05A007B10701F185
:1051E00082E08093AF21AD89BE89A093B421B093B2
:1051F000B521EF89F88DE093B621F093B721209285
:10520000B0213092B121E092B221F092B321E0912D
:10521000F121F091F221309719F08FEA91E219957E
:10522000809109068C7F8160809309066896CDBFC6
:10523000DEBFCF91DF911F910F91FF90EF90DF9034
:10524000CF90BF90AF909F908F907F906F905F9026
:105250004F903F902F9008951F931092F12110923C
:10526000F2211092010287E08093040280E1809392
:10527000020211E010932002109328021093000202
:1052800080EC80930A0680E48093060680E8809391
:10529000050680E06DED77E240E050E00E940119E4
:1052A0001093AE211092AF21F5DB1F910895A0E07D
:1052B000B0E023E0880F991FAA1FBB1F2A95D1F7E2
:1052C0000197F1F70895DC01C9012115310539F085
:1052D000FA016BBF01900D920197E1F71BBE089593
:1052E0001BBEFC0128ED24BF60830895E0E7F0E0D9
:1052F0008FEF8193E737F105E1F781E490E061E01A
:10530000EFDF8091500082608093500080915100C7
:10531000869580FFFBCF88E88093550080915000F0
:105320008061809350008091510084FFFCCF80E425
:1053300090E064E0D5DF809150008E7F8093500034
:10534000089580E896E06FEF40E053E076DA80E47D
:1053500096E068E040E053E070DA80E496E060E2D6
:1053600040E051E06ADA80E496E060E840E051E035
:1053700064DA80EA96E06FEF48E150E05EDA81E0BF
:1053800062E00E942E198FE08093E4068FEF8093F5
:10539000E0068093200780EF8093000780E068E0BC
:1053A0000E942E1981E0809340048EE08093410496
:1053B0008FEB809348048FE7809349041092440454
:1053C00084E08093450489E38093460488E08093D9
:1053D000470410925D0410925E0480E880935F049D
:1053E0008FE380935C0480915D0487FFFCCF089578
:1053F000629FD001739FF001829FE00DF11D649FB9
:10540000E00DF11D929FF00D839FF00D749FF00D44
:10541000659FF00D9927729FB00DE11DF91F639FE5
:10542000B00DE11DF91FBD01CF0111240895AA1B84
:10543000BB1B51E107C0AA1FBB1FA617B70710F07F
:10544000A61BB70B881F991F5A95A9F780959095B1
:10545000BC01CD01089597FB092E07260AD077FDE0
:1054600004D0E5DF06D000201AF4709561957F4FD7
:105470000895F6F7909581959F4F0895A1E21A2E11
:10548000AA1BBB1BFD010DC0AA1FBB1FEE1FFF1FE8
:10549000A217B307E407F50720F0A21BB30BE40B38
:1054A000F50B661F771F881F991F1A9469F760957F
:1054B0007095809590959B01AC01BD01CF01089539
:1054C00097FB092E05260ED057FD04D0D7DF0AD052
:1054D000001C38F450954095309521953F4F4F4F23
:1054E0005F4F0895F6F790958095709561957F4F81
:1054F0008F4F9F4F0895546F756368207363726573
:10550000656E2063616C6962726174696F6E2E0AE8
:105510000A546F75636820696E73696465207468E6
:105520006520636972636C65732E000000000000E3
:1055300000002020202020002050505000000000BB
:105540005050F850F850502078A07028F020C0C873
:1055500010204098186090A040A8906860204000FB
:10556000000000102040404020104020101010206B
:1055700040005020F8205000002020F8202000009B
:10558000000000602040000000F800000000000063
:105590000000606000081020408000708898A8C853
:1055A000887020602020202070708808102040F82B
:1055B000F810201008887010305090F81010F88003
:1055C000F008088870304080F0888870F808102053
:1055D000404040708888708888707088887808108B
:1055E0006000606000606000006060006020400853
:1055F0001020402010080000F800F8000080402033
:10560000102040807088081020002070880868A84A
:10561000A87070888888F88888F08888F08888F072
:1056200070888080808870E09088888890E0F8801A
:1056300080F08080F8F88080E080808070888080B2
:10564000988870888888F888888870202020202092
:1056500070381010101090608890A0C0A0908880C2
:105660008080808080F888D8A8888888888888C8C2
:10567000A898888870888888888870F08888F080E2
:10568000808070888888A89068F08888F0A09088CA
:10569000788080700808F0F820202020202088885A
:1056A000888888887088888888885020888888A812
:1056B000A8D8888888502050888888885020202042
:1056C00020F80810204080F83820202020203800C2
:1056D000804020100800E02020202020E02050887A
:1056E00000000000000000000000F8402010000052
:1056F0000000000070087888788080B0C88888F042
:105700000000708080887008086898888878000099
:105710007088F88070304840E04040400000788851
:105720007808308080B0C8888888200060202020D9
:105730007010003010109060404048506050486039
:105740002020202020700000D0A8A888880000B069
:10575000C8888888000070888888700000F088F009
:105760008080000068987808080000B0C8808080B9
:10577000000070807008F04040E040404830000079
:105780008888889868000088888850200000888869
:10579000A8A8500000885020508800008888780809
:1057A000700000F8102040F8102020402020102029
:1057B00020202020202040202010202040002010E9
:0C57C000F8102000002040F840200000FD
:1057CC00102003174117436C69636B002533640089
:1057DC0044656D6F6E7374726174696E672077695E
:1057EC00646765747300307800002B550000060761
:1057FC0001207F100040006320000000000000200A
:10580C000020006320000000000000400004006342
:10581C002000000000000080000400632000000055
:0C582C00000000F4210000803E0000009D
:00000001FF
