:100000004BC0000069C0000067C0000065C0000070
:1000100063C0000061C000005FC000005DC0000060
:100020005BC0000059C0000057C0000055C0000070
:1000300053C0000051C000004FC000004DC0000080
:100040004BC0000049C0000047C0000045C0000090
:1000500043C0000041C000003FC000003DC00000A0
:100060003BC0000039C0000037C0000035C00000B0
:1000700033C0000031C000002FC000002DC00000C0
:100080002BC0000029C0000027C0000025C00000D0
:1000900023C0000021C0000011241FBEAFEFB0E25A
:1000A000BEBFADBF1BBEEAE3F3E000E00BBFA0E0C4
:1000B000B1E0C0E0D1E002C007900D92AC17BD07DF
:1000C000D9F700270BBFC0E0D1E001C01D92AC17EB
:1000D000BD07E1F7C3D0FFCF93CF382F8695869524
:1000E0008695662309F45AC0823041F1833030F49A
:1000F000882361F0813009F0B0C014C08430B1F1C0
:10010000843040F1853009F0A8C03CC022B137707E
:1001100081E090E002C0880F991F3A95E2F7282B02
:1001200022B9089525B1377081E090E002C0880FB0
:10013000991F3A95E2F7282B25B9089528B1377011
:1001400081E090E002C0880F991F3A95E2F7282BD2
:1001500028B908952BB1377081E090E002C0880F74
:10016000991F3A95E2F7282B2BB908952EB13770D5
:1001700081E090E002C0880F991F3A95E2F7282BA2
:100180002EB9089521B3377081E090E002C0880F46
:10019000991F3A95E2F7282B21BB0895823051F13F
:1001A000833030F4882361F0813009F056C015C0E7
:1001B0008430D1F1843058F1853009F04EC041C00F
:1001C00022B1377081E090E002C0880F991F3A9504
:1001D000E2F78095822382B9089525B1377081E0D6
:1001E00090E002C0880F991F3A95E2F7809582232C
:1001F00085B9089528B1377081E090E002C0880F7A
:10020000991F3A95E2F78095822388B908952BB11A
:10021000377081E090E002C0880F991F3A95E2F7AD
:10022000809582238BB908952EB1377081E090E0DC
:1002300002C0880F991F3A95E2F7809582238EB904
:10024000089521B3377081E090E002C0880F991FB4
:100250003A95E2F78095822381BB08951F938DEE36
:100260008093640089E88093650052D09FB7F8942A
:10027000809165008E7F809365009FBF1092C800BB
:1002800086E08093CA008091C8008D7F8093C8006B
:100290001092CD0084E38093CC008091C9008861E6
:1002A0008093C9008EE060E018DF91E08091C80083
:1002B00087FFFCCF1091CE00992329F08EE060E0FB
:1002C0000CDF90E004C08EE061E007DF91E08091F8
:1002D000C80085FFFCCF1093CE00E8CF882359F0EB
:1002E00084B18260299884B984B184602A9884B9E1
:1002F00084B1877F0AC084B18D7F299884B984B185
:100300008B7F2A9884B984B188602B9884B908952A
:100310009FB7F89485B7806885BF85BF9FBF8AB1B6
:1003200080625D988AB984B180642E9A84B980B362
:0A0330008F778F9A80BB81E0D1CF58
:00000001FF
