:100000004BC0000069C0000067C0000065C0000070
:1000100063C0000061C000005FC000005DC0000060
:100020005BC0000059C000000C94AD100C9433105C
:1000300053C0000051C000004FC000004DC0000080
:100040004BC0000049C0000047C0000045C0000090
:1000500043C0000041C000003FC000003DC00000A0
:100060003BC0000039C0000037C0000035C00000B0
:1000700033C0000031C000002FC000002DC00000C0
:100080002BC0000029C0000027C0000025C00000D0
:1000900023C0000021C0000011241FBEAFEFB0E25A
:1000A000BEBFADBF1BBEECECF8E500E00BBFA0E0AF
:1000B000B1E0C4EBD1E002C007900D92AC17BD07D0
:1000C000D9F700270BBFC2E6D2E001C01D92AC17E2
:1000D000BD07E1F7C3D0FFCF93CF382F8695869524
:1000E0008695662309F45AC0823041F1833030F49A
:1000F000882361F0813009F0B0C014C08430B1F1C0
:10010000843040F1853009F0A8C03CC022B137707E
:1001100081E090E002C0880F991F3A95E2F7282B02
:1001200022B9089525B1377081E090E002C0880FB0
:10013000991F3A95E2F7282B25B9089528B1377011
:1001400081E090E002C0880F991F3A95E2F7282BD2
:1001500028B908952BB1377081E090E002C0880F74
:10016000991F3A95E2F7282B2BB908952EB13770D5
:1001700081E090E002C0880F991F3A95E2F7282BA2
:100180002EB9089521B3377081E090E002C0880F46
:10019000991F3A95E2F7282B21BB0895823051F13F
:1001A000833030F4882361F0813009F056C015C0E7
:1001B0008430D1F1843058F1853009F04EC041C00F
:1001C00022B1377081E090E002C0880F991F3A9504
:1001D000E2F78095822382B9089525B1377081E0D6
:1001E00090E002C0880F991F3A95E2F7809582232C
:1001F00085B9089528B1377081E090E002C0880F7A
:10020000991F3A95E2F78095822388B908952BB11A
:10021000377081E090E002C0880F991F3A95E2F7AD
:10022000809582238BB908952EB1377081E090E0DC
:1002300002C0880F991F3A95E2F7809582238EB904
:10024000089521B3377081E090E002C0880F991FB4
:100250003A95E2F78095822381BB0895CF93DF938F
:1002600078948DEE8093640089E8809365000E9405
:100270000B2C8AE592E090935B0280935A02909354
:100280005D0280935C02D9D129D10E94C80E0E94E0
:10029000E50F009729F481E090E0DF91CF91089578
:1002A0009093B9018093B8011092BA011092B701EE
:1002B0001092B6018FEA91E09093B5018093B4015A
:1002C0000E94EB2B882331F48AE991E09093B501E9
:1002D0008093B40184EB91E076D0CAE5D2E0F89443
:1002E000E0915A02F0915B0282E0EA35F80701F1F1
:1002F0008081918190935B0280935A0280915C028D
:1003000090915D028E179F0721F4D0935D02C093F8
:100310005C02DF01129713961C921E92129710979F
:1003200039F07894ED91FC911197CD010995D7CFD3
:100330007894D5CF0F931F938C0180E00E94F12B0E
:1003400080E00E94E52B8FEA91E0F80191838083A1
:100350008AE592E0B801D3D21F910F910895CF930F
:10036000DF93EC010E94EB2B982F8E81882399F06C
:10037000992311F58D858038F9F08C819D810E943B
:100380006F181E8280E00E94F12B80E00E94E52B16
:100390008EE061E010C0992379F081E00E94E52BA6
:1003A00081E00E94F12B8C819D810E94151681E0D5
:1003B0008E838EE060E091DE8AE592E0BE019FD2FE
:1003C000DF91CF9108956F927F928F929F92AF921B
:1003D000BF92CF92DF92EF920F931F936C0137E0A1
:1003E000832E912C880E991E27E2622E712C680EA6
:1003F000791E81E061E00E94990E5C019FB7F8943C
:10040000E4E6F0E080818B7F80839FBF80E48CBD39
:1004100080E0B4010E94CD0B80E0B30140E000E039
:1004200012E12AE730E09DE0E92E0E942F0B80E0E8
:10043000B401A301960106D38C01C5010E943C0CB6
:10044000C5016AE270E00E94350CC8010E94F61AEC
:10045000BC01C5010E94290C1F910F91EF90DF9004
:10046000CF90BF90AF909F908F907F906F900895A6
:10047000CF93DF93EC0120E030E00CC0FE01E20FEF
:10048000F31FDB01A20FB31F8C9180832F5F3F4FBF
:10049000415050404115510589F7CE01DF91CF9170
:1004A0000895782FA92F9C01F90103C06193415051
:1004B000504041155105D1F7872F9A2F0895FC011F
:1004C00020E030E002C02F5F3F4F81918823D9F7B1
:1004D000C9010895FC017783668308950F931F93E4
:1004E0008EED91E06CEA71E044E050E02AE030E00B
:1004F00002E010E04DD11F910F910895BC018EEDE7
:1005000091E036C10F931F938C01AB01FC01628116
:1005100073818481958130D08EED91E0B80128D12E
:100520001F910F9108958EED91E013D1FC0111827E
:10053000108208950F931F93CF93DF938C01F3DF05
:10054000EC01009799F0C80128D09C016115710554
:1005500039F48EED91E0BE010BD1C0E0D0E006C0D1
:100560006A837B832C833D831F830E83CE01DF91BF
:10057000CF911F910F9108959B014132510518F4BD
:1005800088E592E008C04150524018F080E090E0C9
:1005900002C086E592E0B901EBC08132910518F402
:1005A00088E592E005C08150924038F486E592E0FB
:1005B000D0D0BC0180E090E0089580E090E0A0E021
:1005C000B0E0BC01CD010895AF92BF92CF92DF920F
:1005D000EF92FF920F931F935C01CB01690161E0E1
:1005E00070E0002E02C0660F771F0A94E2F7EE2734
:1005F000FF27E61BF70B21503040260F371FE22361
:10060000F323E49F7001E59FF00CF49FF00C11249C
:10061000A70160E070E09801F4D09B01AC01C50136
:10062000B901A70196014FD01F910F91FF90EF9054
:10063000DF90CF90BF90AF900895EF92FF920F930D
:100640001F938CEAE82E81E0F82E86E592E0B70150
:1006500044E050E020E032E000E010E0B5DF88E563
:1006600092E0B70140E150E020E230E0ADDF1F91C1
:100670000F91FF90EF900895AC0160E070E08CEA7C
:1006800091E022E030E0F2D06F3F2FEF72072FEFC2
:1006900082072FEF920711F460E070E0CB0108951C
:1006A0000F931F93CF93DF938C01E6DFEC0100974C
:1006B00021F060E070E0A801F4DECE01DF91CF917F
:1006C0001F910F910895EF92FF920F93CF93DF93B5
:1006D000FC017A01D9019B0141E050E002C0440FC6
:1006E000551F0A95E2F766277727641B750BC9012A
:1006F0000197840F951F86239723E20EF31EE81AB5
:10070000F90A1197A40FB51FA623B723EC01918313
:100710008083AD01440F551F9D012C0F3D1FFE012D
:1007200006C0F901EA1BFB0BF983E883EF014A0FCE
:100730005B1F2A0F3B1FCA018A1B9B0BE816F90699
:1007400080F711821082DF91CF910F91FF90EF908F
:100750000895DC012FB7F894ED91FC911197309733
:1007600021F0808191818D939C932FBFCF010895BB
:10077000DC01FB016115710551F02FB7F8948D91E3
:100780009C911197918380836D937C932FBF0895E3
:10079000AF92BF92CF92DF92EF92FF920F931F938F
:1007A0005C01CB01690161E070E0002E02C0660FC0
:1007B000771F0A94E2F7EE27FF27E61BF70B21507D
:1007C0003040260F371FE223F323E49F7001E59F9B
:1007D000F00CF49FF00C1124A70160E070E0980188
:1007E00010D09B01AC01C501B901A70196016BDFD7
:1007F0001F910F91FF90EF90DF90CF90BF90AF903F
:100800000895EF92FF920F931F93FC01EE24EA9458
:10081000FE2C870104C0EE0CFF1C001F111F2A953F
:10082000D2F784819581A681B781841B950BA60B95
:10083000B70BE822F9220A231B2380819181A28130
:10084000B381E816F9060A071B0728F4EE24EA9498
:10085000FE2C870104C0E482F58206831783B7016A
:10086000C8011F910F91FF90EF900895CF92DF92F2
:10087000EF92FF920F931F93FC016A017B0141E00D
:1008800050E060E070E004C0440F551F661F771F02
:100890002A95D2F7002711279801041B150B260B68
:1008A000370B80819181A281B3810197A109B109A0
:1008B000840F951FA61FB71F082319232A233B2344
:1008C000C00ED11EE21EF31E84819581A681B781E0
:1008D0008C159D05AE05BF0528F40FEF1FEF2FEF18
:1008E0003FEF04C0C082D182E282F382B801C90125
:1008F0001F910F91FF90EF90DF90CF900895DC0152
:10090000FB016115710511F480E008952FB7F8948B
:1009100082819381892B11F080E00FC0CB01029678
:10092000B383A2831296ED91FC91139791838083F8
:1009300013969C938E93129781E02FBF08951F9377
:10094000FC011FB7F89484819581892B11F0CF01A8
:1009500004C0758364838AE592E0D1DF1FBF1F91D5
:100960000895FF920F931F93CF93DF938C01FFB6EF
:10097000F894DC01ED91FC91E817F90719F4C0E057
:10098000D0E01BC080819181D80111969C938E93F9
:1009900012968D919C9113978E179F0721F41396B1
:1009A0001C930E931297EF0122971B821A822097B5
:1009B00021F08AE592E0BE01A2DFF801D583C4836D
:1009C000FFBEDF91CF911F910F91FF900895CF93BC
:1009D000DF93EC01EF81F8850995FC01009711F098
:1009E000D08FC78BCF01DF91CF910895DC016115C6
:1009F000710529F01996ED91FC911A9709950895C2
:100A0000CF92EF92FF920F931F93FB0180E8828BAE
:100A1000138A148A158A168A148E138E80EC96E037
:100A2000928F818F258F368F478F50A3E1A2F2A23C
:100A300003A314A3C5A216A21F910F91FF90EF90DC
:100A4000CF900895BF92CF92DF92EF92FF920F93D3
:100A50001F93CF93DF93B82E8B017A0169018FE248
:100A600090E01EDEEC01009719F460E070E031C008
:100A70000D966B2DA801970159D380E095E09E83D8
:100A80008D8383EE95E098878F8381EE95E09A873A
:100A90008987D9A2C8A2CE0189969AA789A79CA7BF
:100AA0008BA7CE0182966CEA71E044E050E027E229
:100AB00030E002E010E06CDE1FA21EA28EE995E09D
:100AC0009DA38CA3BE016C5D7F4F8D859E8537DF16
:100AD000BE01CB01DF91CF911F910F91FF90EF905D
:100AE000DF90CF90BF900895675E7F4FFC018585B2
:100AF000968525CFCF93DF93EB01FA01A281B381D5
:100B00006D937C93AA81BB81808191818D939C930D
:100B1000828193819B838A834083F1834283F38321
:100B20008EA1882331F01EA269968AE592E0BE016B
:100B3000E6DE80E090E0DF91CF910895CF93DF93E0
:100B4000EC01A4974797FCD28823C1F18A8D90E0ED
:100B500080FF2AC09595879580FD03C08C818460B5
:100B60008C838C899D89AE89BF8929E0B695A7952C
:100B7000979587952A95D1F788839983AA83BB8314
:100B8000888D998D22E08030920749F024E08030F2
:100B9000920739F08050914039F48FEF03C018A6C6
:100BA00009C081E088A706C068A179A18AE592E022
:100BB000A6DE04C08C8182608C83F6CFDF91CF915A
:100BC00008958296D5CDCF93DF93EC018296C1DD57
:100BD000FC01009719F420E030E00FC0808391837E
:100BE00082839383D08FC78B84E795E09387828736
:100BF0008AE795E0958784879F01C901DF91CF91AE
:100C00000895EF92FF920F931F9367EEE62E6FEF1A
:100C1000F62EE80EF91EF7010789108D8CEC96E090
:100C2000928F818FF80116A615A667857089858534
:100C30009685A7D5F701258D368D478D50A1DA0110
:100C4000C901B695A7959795879521703070220FA9
:100C50006BE0F801638FBC0145E0769567954A9596
:100C6000E1F7648F880F880F880F822B858F168E8F
:100C7000178E85859685055E1F4FB80145E050E0CB
:100C800097D31F910F91FF90EF900895EF92FF92ED
:100C90000F931F9377EEE72E7FEFF72EE80EF91EE6
:100CA000F7010789108D8CEC96E0928F818FF80107
:100CB000678570898585968564D5F701858D968DC4
:100CC00081709070880F24E8F801238F858F168E2D
:100CD00085859685055E1F4FB80144E050E068D3D6
:100CE0001F910F91FF90EF9008950F931F93CF9353
:100CF000DF939C018C0109511040F801C789D08D08
:100D000085EC97E0928F818F1EA61DA688A588236B
:100D100069F0813059F4858D80FD0BC081A192A1CD
:100D2000A3A1B4A10297A105B10518F0C901AEDFD6
:100D300022C06F8578898D859E8523D5F801858DA4
:100D4000968DA78DB0A1B695A7959795879523E524
:100D50002B8F9C01E5E036952795EA95E1F72C8FDE
:100D6000880F880F880F8D8F8D859E856B96BE01AD
:100D700044E050E01DD3DF91CF911F910F91089572
:100D8000FC018485882319F0813029F402C0CF0149
:100D900038CFCF01AACF0895EF92FF920F931F9300
:100DA000CF93DF93EC0169970F89188DA9E2EA2EA2
:100DB000F12CE00EF11ED80199968D919C919A9795
:100DC0008E159F0559F0E885F985C801BE01A70178
:100DD0000995F801F2A6E1A6F4A6E3A62FB7F894C8
:100DE000888199818C179D0721F481E08EA32FBF04
:100DF00074C02FBFD8019D966D917C919E97EF890D
:100E0000F88D80A5882399F0813019F040E051E0F9
:100E10003CC08D8D80FD0BC089A19AA1ABA1BCA166
:100E20000297A105B10518F040E054E02EC040E063
:100E300052E02BC0AFB7F894288139812C173D07B9
:100E400011F4AFBF25C0F901808191819983888316
:100E50008A819B818217930711F4DB83CA83F9018E
:100E60003897AFBFF186E086D8019B968D919C9113
:100E70009C97DC012D933C93D8019C963C932E9338
:100E80009B9786819781680F791F6417750794F285
:100E9000F80176A765A78DA1882389F464177507E3
:100EA00021F480E898E09A8F898FD8011D968D9162
:100EB0009C911E97075D1F4FB80183D20EC0641727
:100EC000750721F484E797E09A8F898FF80185856B
:100ED0009685075D1F4FB80190D2DF91CF911F918A
:100EE0000F91FF90EF900895EF92FF920F931F9351
:100EF00037EEE32E3FEFF32EE80EF91EF7010789D8
:100F0000108D82E698E0928F818FF8016785708955
:100F1000858596853ED4F801678570898585968597
:100F200030D4F701858D968DA78DB0A1B695A79584
:100F30009795879523E8F801238F9C01B5E03695B6
:100F40002795BA95E1F7248F880F880F880F858F32
:100F500085859685055E1F4FB80144E050E028D294
:100F60001F910F91FF90EF900895CF93DF93EC01C5
:100F700069978F89988D69960D9601D1882311F014
:100F8000CE0184DEDF91CF910895EF92FF920F930F
:100F90001F937C018C0109511040D8015796ED91A7
:100FA000FC9158976785708985859685F2D385EB86
:100FB00097E0F801928F818FC701D7DF1F910F91C2
:100FC000FF90EF900895AF92BF92CF92DF92EF9291
:100FD000FF920F931F93CF93DF935C01EC0169970E
:100FE000CF88D88CA601475D5F4FE885F985C6019B
:100FF000BE010995F60185A596A57C010027F7FCA1
:101000000095102F2B893C894D895E892E0D3F1D3F
:10101000401F511F2B8B3C8B4D8B5E8B60E072E031
:101020000E94532C882777FD8095982FE9A0FAA07D
:101030000BA11CA1E61AF70A080B190BE9A2FAA2E8
:101040000BA31CA32D8D3E8D4F8D58A1260F371F4E
:10105000481F591F2D8F3E8F4F8F58A3E114F10465
:101060000105110549F08DA1882319F4C501C9DDD9
:101070000EC0C5013ADE0BC0F6018585968571DC90
:101080001A8AEE81FF818F89988DBE010995DF91C3
:10109000CF911F910F91FF90EF90DF90CF90BF9075
:1010A000AF900895CF93DF93EC0169978F89988D66
:1010B00069960D9664D0882311F0CE0184DFDF910C
:1010C000CF910895EF92FF920F931F937C018C01B3
:1010D00009511040D8015796ED91FC9158976785BA
:1010E00070898585968555D382E598E0F801928FC1
:1010F000818FC701D7DF1F910F91FF90EF90089567
:101100000F931F938C0109511040D8015796ED9110
:10111000FC915897075E1F4F678570898585968576
:1011200038D3C80150DF1F910F910895FC016483EB
:101130005183408333832283168215821586089556
:10114000CF93DF93EC01ED81FE81309711F009958B
:1011500013C08EED98E09E838D836A817B818881A8
:1011600099810FD387ED8E87888199812E96BE0154
:1011700041E050E01DD180E0DF91CF910895CF9301
:10118000DF93EC01ED81FE81309711F0099513C0DA
:101190008AEF98E09E838D836A817B818881998123
:1011A000F0D287ED8E87888199812E96BE0141E02D
:1011B00050E0FED080E0DF91CF910895FC0188E0FF
:1011C00099E096838583808191813E96BF0141E0BD
:1011D00050E0E7D080E00895FC0180E699E0968336
:1011E0008583808191813E96BF0144E050E0D9D053
:1011F00080E00895FC018BE399E0968385838081EC
:1012000091813E96BF0141E050E0CBD080E008954F
:10121000CF93DF93EC018E852881398187FD0BC048
:1012200088E099E09E838D832E96C901BE0141E03E
:1012300050E0B7D01CC08CEE98E09E838D836A810D
:101240007B81C901A6D28E8581FF03C08D85826016
:101250008D876A817B818881998193D28FE98E877E
:10126000888199812E96BE0141E050E0A1D080E0B6
:10127000DF91CF910895CF93DF93EC016A817B8159
:101280008881998186D28E8587FF04C01E821D8247
:1012900081E013C08AEF98E09E838D836A817B8111
:1012A000888199816ED287ED8E87888199812E966B
:1012B000BE0141E050E07CD080E0DF91CF91089505
:1012C000CF93DF93EC016A817B818881998161D220
:1012D0008881998146DB2F858E858F3169F5E22FD4
:1012E000F0E0CF01807E9070809731F52F71822FD2
:1012F0008250873008F58D8581608D8780E090E889
:10130000A0E0B0E004C0880F991FAA1FBB1F2A9558
:10131000D2F78F839887A987BA87EF71F070E05072
:10132000FF4F2081277080E091E002C0880F991F55
:101330002A95E2F79C878B871E821D8281E0DF91D0
:10134000CF910895FC01158214828083F1838283FA
:10135000F383148613867287618756874587178EB5
:10136000168E8AE19AE0958F848F08950F931F93CC
:101370008C01DC0118965C934E93179780E81696C3
:101380008C9316971D96ED91FC911E97C8010995B7
:10139000075F1F4F8AE592E0B801B1DA1F910F9104
:1013A0000895FC0122E02787738B628B60E0DECF1B
:1013B000DB01FC0121E027871196B18BA08B6E9198
:1013C000D5CFCF93DF93FC01EB01A881B9811897AA
:1013D00026E0278712962D913C911397338B228B11
:1013E000B78BA68B738F628F16964D915C91179772
:1013F00060E0BCDFDF91CF910895CF93DF93FC01D4
:10140000EB01A881B98118971296CD91DC911397C1
:1014100025E027872196D18BC08BB58BA48B718F4C
:10142000608F16964D915C9117976A919FDFDF91BF
:10143000CF910895CF93DF93EC016C978F8581FD59
:1014400003C040E050E018C0AE89BF89CD010896C6
:10145000EA8DFB8D228133812817390791F1189687
:10146000ED91FC9119973897FF8BEE8B82819381D8
:101470009B8B8A8B468157818F8580FD02C060E0FF
:101480001DC0AC89BD89CD010896E88DF98D2281FA
:10149000338128173907A9F018960D90BC91A02D1B
:1014A0001897BD8BAC8B1296ED91FC9113976191BF
:1014B000F98BE88B16964D915C911797CE0156DF0C
:1014C00008C018861F821E826C817D818AE592E0A9
:1014D00016DADF91CF910895382F869586958695F7
:1014E000662309F45AC0823041F1833030F48823F6
:1014F00061F0813009F0B0C014C08430B1F18430A3
:1015000040F1853009F0A8C03CC022B1377081E0BD
:1015100090E002C0880F991F3A95E2F7282B22B974
:10152000089525B1377081E090E002C0880F991FBF
:101530003A95E2F7282B25B9089528B1377081E054
:1015400090E002C0880F991F3A95E2F7282B28B93E
:1015500008952BB1377081E090E002C0880F991F89
:101560003A95E2F7282B2BB908952EB1377081E018
:1015700090E002C0880F991F3A95E2F7282B2EB908
:10158000089521B3377081E090E002C0880F991F61
:101590003A95E2F7282B21BB0895823051F1833030
:1015A00030F4882361F0813009F056C015C08430D2
:1015B000D1F1843058F1853009F04EC041C022B1DC
:1015C000377081E090E002C0880F991F3A95E2F7EA
:1015D0008095822382B9089525B1377081E090E02B
:1015E00002C0880F991F3A95E2F78095822385B94A
:1015F000089528B1377081E090E002C0880F991FEC
:101600003A95E2F78095822388B908952BB1377017
:1016100081E090E002C0880F991F3A95E2F780952B
:1016200082238BB908952EB1377081E090E002C01B
:10163000880F991F3A95E2F7809582238EB9089515
:1016400021B3377081E090E002C0880F991F3A956E
:10165000E2F78095822381BB08956EBD0895EF92D5
:101660000F931F93FB016E2D80E099E0ADE3B0E096
:1016700050E0081719072A073B0740F45F5F57300F
:1016800029F0B695A79597958795F3CF842F90E08D
:1016900083709070880F991F880F991F8065252F80
:1016A00026952370822B8183A1E0B0E05A275170E8
:1016B00052836083862F869586958695823051F178
:1016C000833030F4882361F0813009F056C015C0B2
:1016D0008430D1F1843058F1853009F04EC041C0DA
:1016E00081B122B167709A2F01C0990F6A95EAF70C
:1016F000892B922B92B981B940C084B125B1677012
:101700009A2F01C0990F6A95EAF7892B922B95B908
:1017100084B933C087B128B167709A2F01C0990F7F
:101720006A95EAF7892B922B98B987B926C08AB1B6
:101730002BB167709A2F01C0990F6A95EAF7892B30
:10174000922B9BB98AB919C08DB12EB167709A2FAF
:1017500001C0990F6A95EAF7892B922B9EB98DB932
:101760000CC080B321B367709A2F01C0990F6A959E
:10177000EAF7892B922B91BB80BB1F910F91EF90C1
:101780000895FB0181818CBD82818DBD808160E0E7
:10179000A3CEFB01808161E09FCECB0168ED7BE0B1
:1017A0004DE25BE0CFDD80E58CBD8DB58EB5089553
:1017B000CF93DF93FC01399747815085C289D38944
:1017C000A089B189878590E09C0135952795217086
:1017D000817060E09FEF15C0882379F06C910DC097
:1017E0000DB407FE0AC03EB56EBD415050402111F8
:1017F0003993882321F0119602C0915088F79923DC
:10180000D1F04230510540F714C091500DB407FE9D
:1018100010C08EB521118883878582FF02C07C9617
:1018200011C0108617821682648175818AE592E064
:101830000CC0992351F750874783D38BC28BB18B50
:10184000A08B39968AE592E0BF0159D8DF91CF91FC
:101850000895DB011A96EC911A97F0E0EE0FFF1F46
:10186000E80FF91F7287618708956F5F7F4F769544
:101870006795FC0160870895FC019FB7F894878104
:101880008F7B87839FBF0895AF92BF92CF92DF92E5
:10189000EF92FF920F931F93CF93DF937C015B0135
:1018A0006230710508F076C0D7011196EC91EE23F5
:1018B00019F4E0E0F0E008C0F0E0EE0FFF1FE252A4
:1018C000FE4F0190F081E02DD70111961C923097C8
:1018D000C1F08481C82EDD248F01C0E0D0E00CC0AF
:1018E000D8011796ED91FC91189722813381C70199
:1018F000BF01F901099521960E5F1F4FCC15DD053B
:1019000078F3AB28C9F1C090E001D090E10181E00B
:10191000F7018183D60114968C91A82EBB24E60191
:1019200000E010E016C0E985FA8520813181C70109
:10193000BF0140E050E0F90109952296882339F073
:10194000E801CC0FDD1F2796CC0DDD1D11C00F5F08
:101950001F4F0A151B0538F30FC001501040E881D6
:10196000F98122813381C701BF01F90109952297CD
:101970000115110591F70CC080E0DF91CF911F9107
:101980000F91FF90EF90DF90CF90BF90AF900895B0
:10199000F70111828FEFF1CF1F93CF93DF93DC011B
:1019A000142F1196EC911197EE23F1F0F0E0EE0F69
:1019B000FF1FE252FE4F0190F081E02D3097A1F021
:1019C000848190E06817790778F4660F771FE60F37
:1019D000F71FC185D285E881F981CD01BE01099546
:1019E000882319F41B8701C08FEFDF91CF911F91DE
:1019F0000895FC018181882321F0CF0160E070E02F
:101A000043CF0895CF93DF93EC01DB0114962D9122
:101A10003C9115978C918F71813021F5E981EE23EE
:101A200009F1F0E0EE0FFF1FE252FE4F0190F0814E
:101A3000E02D3097B9F0848190E02817390790F4B1
:101A4000220F331FE20FF31F0184F285E02D248162
:101A500035812115310531F0CE01BF01AD01F9010C
:101A6000099501C08FEFDF91CF910895CF93DF9358
:101A7000EC01E981EE23F9F0F0E0EE0FFF1FE252F6
:101A8000FE4F0190F081E02D3097A9F0848190E025
:101A90006817790780F4660F771FE60FF71F6185D7
:101AA0007285655F7F4FCE0141E050E0F9D3CE01F2
:101AB0002FD480E001C08FEFDF91CF91089528C42B
:101AC0000895AF92BF92CF92DF92EF92FF920F9361
:101AD0001F93CF93DF935C01EB01C984DA84E88123
:101AE000F98180819181998388838A819B818E1776
:101AF0009F0711F47B836A83760100E010E016C033
:101B000082E090E0E80EF91E888199818C179D078C
:101B100099F0D7011796ED91FC91189720853185A2
:101B2000CF01BE01F90109950F5F1F4FF6018481B6
:101B300090E00817190720F3C501EAD3DF91CF9190
:101B40001F910F91FF90EF90DF90CF90BF90AF90DB
:101B500008953F924F925F926F927F928F929F92E1
:101B6000AF92BF92CF92DF92EF92FF920F931F93AB
:101B7000CF93DF932C018B01390182EE91E0FFD0EE
:101B80008FE59DE09093EA018093E901812F90E039
:101B90008130910529F0029781F14FEF5FEFA8C0E6
:101BA000C30123E16216710410F082E190E0AC0100
:101BB00080E090E0A0E0B0E089E091E08093F20165
:101BC0009093F301A093F401B093F5015093F701C2
:101BD0004093F60128EF31E082EE91E09093F90115
:101BE0008093F801E091E401F091E50131832083D5
:101BF0003093E5012093E40179C0002311F08FEFC9
:101C000086C08090E0019090E10182E0D4011196BD
:101C10008C93F20130805301FAE06F16710418F0D2
:101C200019E0A12EB12C80E090E0A0E0B0E0C4016A
:101C30008092F2019093F301A093F401B093F50127
:101C4000B092F701A092F60181E69DE09093EA013F
:101C50008093E9019092EC018092EB0128EF31E052
:101C600082EE91E09093F9018093F801E091E40114
:101C7000F091E501318320833093E5012093E40165
:101C80006401EE24FF2409E010E01FC0E301CA193B
:101C9000DB09D6011796ED91FC911897A681B781C3
:101CA000CF0162EE71E0432D9E01FD010995992758
:101CB00087FD9095080F191FC817D90708F4CE01A2
:101CC000A80EB91E0894E11CF11CE2E0F0E0CE0E73
:101CD000DF1ED40114968C91149790E0E816F90653
:101CE000A8F213961C930E931297A50157FF02C0FA
:101CF000842F0DC04615570528F48091E8018160B6
:101D00008093E801C20162EE71E098D280E0DF9139
:101D1000CF911F910F91FF90EF90DF90CF90BF90E8
:101D2000AF909F908F907F906F905F904F903F907B
:101D300008950F931F93CF93DF93082F162F862FAD
:101D400090E0880F991F09960E945003EC010097BC
:101D500081F06BE171E049E050E00E9438020D83B0
:101D60001C83E02FF0E0EE0FFF1FE252FE4FD18305
:101D7000C083CE01DF91CF911F910F910895FC0197
:101D80008083F1838283F3831682158614860895F7
:101D90000F931F938AEF91E06CEA71E048E050E006
:101DA0002EE030E002E010E00E94C8031F910F9186
:101DB0000895BC018AEF91E00C94B8038AEF91E09A
:101DC0000E94A903FC01009739F0808391838283EC
:101DD0009383168215861486CF0108950F931F935F
:101DE000DF93CF9300D0CDB7DEB78C01FB017081BC
:101DF000872F82958695877090E083709070892BED
:101E000009F0CCC042815381A481B58126813781FC
:101E10006181663009F47DC0673060F4613009F497
:101E20003FC06130B8F0633009F455C0653009F047
:101E3000B1C065C0693009F482C06A3020F46830EE
:101E400009F0A8C06DC06A3009F485C06B3009F094
:101E5000A1C090C02230310509F09CC077FF9AC024
:101E60001A821982872F90E08F719070009719F075
:101E7000029779F403C081E090E009C0AF70C80117
:101E80006A2F93D387FD86C0992787FD90959A8303
:101E90008983C801BE016F5F7F4F42E050E04BC0B5
:101EA000232B09F077C077FD75C0872F90E08F71E5
:101EB0009070009729F44130510509F06BC067C05C
:101EC000029709F067C0452B09F064C0AF70C801E4
:101ED0006A2FC2D310C0232B09F05CC077FD5AC013
:101EE0007F71723009F056C0452B09F053C0AF70B6
:101EF000C8016A2F6DD3882309F449C04BC0232B36
:101F000009F048C077FD46C04038510508F042C08E
:101F10003EC077FF3FC0C801BA01AD011ADE27C03D
:101F200021303105B9F577FF35C0B8016F5F7F4FBC
:101F3000C80141E050E0B4D1C801EAD12DC0232B43
:101F400049F577FD27C0F8018381882319F1C8017D
:101F5000BA019ADC1AC021303105E1F477FF1AC0CA
:101F6000F80181818823B1F0C801BD017FDD88239C
:101F70009CF410C0232B71F477FD0CC0F801818113
:101F8000882341F0C801BD0107DD87FD03C0C801FA
:101F9000ABD102C08FEF05C080E003C0C801BF0114
:101FA00031DD0F900F90CF91DF911F910F91089528
:101FB000FC010190F081E02D8091D90080FF02C0EA
:101FC000CF0127C6CF010C947D188091FC01909120
:101FD000FD01892B09F041C09FB7F89480916500FD
:101FE0008F77809365009FBF8CEF91E090936102A3
:101FF0008093600290935F0280935E0226D6909356
:10200000FD018093FC01892B19F420E030E029C008
:102010008EE089BD09B400FEFDCF2091D8008091EB
:10202000FC019091FD01892BC1F0822F80728069A3
:1020300090E89093D7008093D8008F7D8093D8004C
:102040008091DA008E7F8093DA008CEF91E0B0DF30
:102050008091D80081608093D8002091FC0130915C
:10206000FD01C90108951F920F920FB60F920BB692
:102070000F9211249F92AF92BF92CF92DF92EF9274
:10208000FF920F931F932F933F934F935F936F9301
:102090007F938F939F93AF93BF93CF93DF93EF93F0
:1020A000FF939090E900E0915E02F0915F02E08082
:1020B000F1808091F4008701C0E0D0E0C82EDD24DB
:1020C00087E1A82EB12CC6010C2E02C095958795EC
:1020D0000A94E2F780FF1BC0C093E9009091F000E2
:1020E000F801938B8091E800809589238093F0001C
:1020F000CA9DB001CB9D700DDA9D700D1124675EF5
:102100007F4F6E0D7F1D8AE592E00E947F0421962D
:10211000095E1F4FC330D105B1F69092E900FF91DF
:10212000EF91DF91CF91BF91AF919F918F917F916F
:102130006F915F914F913F912F911F910F91FF9060
:10214000EF90DF90CF90BF90AF909F900F900BBE1D
:102150000F900FBE0F901F9018951F920F920FB601
:102160000F920BB60F9211242F933F934F935F93CF
:102170006F937F938F939F93AF93BF93CF93DF938F
:10218000EF93FF93E0916002F09161028091DA0099
:10219000C081D18180FF05C08E7F8093DA00CF019E
:1021A00007DF9091E1008091E200892371F0909126
:1021B000E2008091E100809589238093E2002F96D0
:1021C0008AE592E0BE010E947F04FF91EF91DF91CA
:1021D000CF91BF91AF919F918F917F916F915F91BF
:1021E0004F913F912F910F900BBE0F900FBE0F900C
:1021F0001F901895FB014FB7F8949C0153E036955A
:1022000027955A95E1F7E20FF31F8770907021E050
:1022100030E002C0220F331F8A95E2F720958081BB
:10222000822380834FBF0895FB0143872781308538
:102230002115310511F0F90109950895CF93DF9328
:10224000FC0181E0848385A1826085A3EB01AA81E2
:10225000BB81B196ED93FC93B197A3A1B4A1888102
:1022600099818D939C938A819B8194A383A3CB01B5
:1022700004967D96FD83EC837D97A78DB0A18D9309
:102280009C9390A3878F9FB7F8941092E90083895D
:102290008160838B8093F0009FBFDF91CF91089581
:1022A0001092E9004134510510F040E450E020E084
:1022B00030E008C0FB01E20FF31F80818093F10042
:1022C0002F5F3F4F24173507A8F39FB7F8948091ED
:1022D000E8008E7F8093E8009FBF00C08091E800F7
:1022E00080FFFCCF842F0895FC011092E9002FB7E6
:1022F000F89493899B7F9160938BA8EEB0E08C91CA
:102300008E7F8C939093F0002FBF84E08483089598
:1023100025E0FC01248308954F925F926F927F9293
:102320008F929F92AF92BF92CF92DF92EF92FF92E5
:102330000F931F93CF93DF939C01EC0126974A8064
:102340005B80AC014C5F5F4F8A859B858417950746
:1023500009F4B8C089818093E900F8948A89826081
:102360008A8B7894BCE06B2E712C620E731E8A8966
:102370008695869580FFA6C0F894EA85FB858081C6
:1023800091819B878A878C859D858E179F0711F485
:102390005D874C87ACEFCA2EAFEFDA2ECE0EDF1E74
:1023A0007894F601808191818C159D0509F48AC08D
:1023B00078EFE72E7FEFF72EE80EF91EA0E0B0E0F1
:1023C00069C0F8948091E8008B7F8093E80078944E
:1023D0008091F3009091F200B82EAA24092F10E00A
:1023E0000A291B29F701468157814A1B5B0B0417F9
:1023F000150708F4A801F701628173816A0F7B1F3A
:1024000020E030E008C08091F100F901E60FF71FED
:1024100080832F5F3F4F24173507A8F3A40FB51F04
:10242000F8948091E8008F778093E80078948B8906
:102430009C890817190740F4F601848595858A0F51
:102440009B1F958784872FC0F70186819781A817E6
:10245000B907E1F4F601848595858A0F9B1F95875E
:1024600084878281938188159905E9F0F701E084DA
:10247000F18488EF9FEFE80EF91EA0E0B0E006C0FF
:10248000F30180818695869580FF1CC08091E800CD
:1024900082FFF6CF68E0862E912C8E0C9F1C8C1448
:1024A0009D0409F08ECFC201B60140E0BDDEF89474
:1024B00089818093E9008881846088838093F0001B
:1024C000789407C0F89488818B7F88838093F0008C
:1024D00078948A898D7F8A8BDF91CF911F910F919C
:1024E000FF90EF90DF90CF90BF90AF909F908F9034
:1024F0007F906F905F904F9008950F931F93CF93AD
:10250000DF93182F092FEA01482F592F772767FDEE
:1025100070951D861C8680E88B87F89487E190E093
:10252000689FF001699FF00D789FF00D1124DA018A
:10253000AE0FBF1F95968C91959782FD02C080E0EB
:1025400027C09E012C5F3F4FCF014D96480F591F6A
:102550005D834C835F96ED91FC919097318320834E
:1025600090963C932E935F9795968C919597869530
:1025700080FD0DC054968C9154978093E90053963A
:102580008C915397846053968C938093F00081E0F4
:102590007894882329F4812F902FBE014EEF44DEDA
:1025A000DF91CF911F910F910895633014F08FEF59
:1025B00008952FB7F8946093E9008091EB0090E0C4
:1025C00035E0969587953A95E1F781702FBF08958C
:1025D000633014F08FEF08956093E9008091EC0070
:1025E00090E09C012170307080FF07C08091EE0068
:1025F00090E083709070892BC9F79FB7F894809111
:10260000EB0080628093EB009FBF662319F1232BC0
:1026100009F58091EC00282F30E02170307013C054
:102620002115310559F08091E80084608093E8001D
:1026300000C08091E80082FDFCCF05C08091E800D9
:102640008B778093E8008091EE0090E0837090702B
:10265000892B31F780E00895AC01633014F08FEFDF
:1026600008957FB7F8946093E9008091EB0088604B
:102670008093EB00262F332727FD309587E190E0EC
:10268000289FF001299FF00D389FF00D1124E40FD1
:10269000F51F85A182958F7080FD05C08091EB00AC
:1026A00080618093EB007FBF80E008951F931FB788
:1026B000F894E62FFF27E7FDF09527E130E0DF01F2
:1026C000A29FF001A39FF00DB29FF00D1124E80F1F
:1026D000F91F25A1206125A37BDF1FBF1F9108954E
:1026E0009C014FB7F894772767FD709587E190E0DC
:1026F000689FF001699FF00D789FF00D1124E20FA3
:10270000F31F85A18F7E85A34FBF08950F93382FA8
:102710005FB7F8948093E90081E08093EB004295E5
:10272000440F440F407C211141604093EC00802F06
:1027300090E00197880F991F880F991F282F22601A
:1027400060347105B9F06134710538F46031710598
:1027500059F060327105B1F40AC06038710569F052
:102760006050714079F40CC0282F22610BC0282FD3
:10277000226208C0282F226305C0282F226402C0CD
:10278000282F22652093ED008091EE0087FD05C083
:102790001092EB005FBF88EF0DC081E090E002C0B7
:1027A000880F991F3A95E2F78093EA001092EA00A9
:1027B0005FBF80E00F910895AF92BF92CF92DF92FA
:1027C000EF92FF920F931F93CF93DF935C01EB0186
:1027D0004FB7F8948A89897F8A8B18828981809380
:1027E000E9001092F0008091EC00282F30E0217079
:1027F000307013C02115310559F08091E8008460D4
:102800008093E80000C08091E80082FDFCCF05C005
:102810008091E8008B778093E8008091EE0090E053
:1028200083709070892B31F74FBFEA85FB85AAE052
:10283000EA2EF12CEC0EFD1EEE15FF05C9F180818C
:1028400091819B878A878C859D858E179F0711F4C0
:10285000FD86EC868F0104501040D801ED91FC916B
:1028600020C0C084D184F8018281938182179307AC
:10287000B9F4C501B8014EEFD7DCEA85FB85EE154A
:10288000FF0571F0808191819B878A878C859D856A
:102890008E179F0711F4FD86EC868F0104501040BF
:1028A000F60138979F01285F3F4F20173107C9F67F
:1028B000DF91CF911F910F91FF90EF90DF90CF901C
:1028C000BF90AF900895EF92FF920F931F938C01EA
:1028D000772767FD709587E190E0689F7001699F99
:1028E000F00C789FF00C1124B7016D5E7F4F600FE4
:1028F000711FC80161DF9FB7F8940E0D1F1DF8010D
:1029000085A1846085A39FBF1F910F91FF90EF90D9
:1029100008951F93CF93DF93362FEA01DC01162F22
:102920001F70612F70E087E190E0AC01649FC001EF
:10293000659F900D749F900D11244396AD01480F33
:10294000591FFC0173972FB7F894EA0FFB1F95A14D
:10295000892F816085A32FBF90FF03C040E050E026
:102960002DC037FF03C085A1886085A387E190E073
:102970009C01629FC001639F900D729F900D112476
:10298000FD01E80FF91F148BB68BA58B138AD7A313
:10299000C6A34D968A0F9B1F968F858F90A3878F16
:1029A00085A183FF05C0148E138E86E898E104C0CC
:1029B000148E138E8CE891E1928F818FCA01DF9182
:1029C000CF911F910895EF92FF920F931F93CF9392
:1029D000DF93062F7A019DDFEC01009711F406EFDB
:1029E0001AC0102F1F70001F0027001F812FB70172
:1029F00042E0202F02E08ADE082F882329F48A890A
:102A000084608A8B012F07C087FF05C0629680E033
:102A100090E0BE01EFDB802FDF91CF911F910F91EE
:102A2000FF90EF900895BF92CF92DF92EF92FF92C6
:102A30000F931F93B62E8C01E62EFF24E7FCF09433
:102A400087E190E0E89E6001E99ED00CF89ED00CF2
:102A50001124B6016D5E7F4F600F711FC801ACDE9F
:102A60002FB7F894B092E90081E090E002C0880F9F
:102A7000991FEA94E2F7EAEEF0E080831082109268
:102A8000EB001092EE000C0D1D1DF80115A22FBFDA
:102A90001F910F91FF90EF90DF90CF90BF9008951E
:102AA000CF92DF92EF92FF920F931F93CF93DF931A
:102AB0006C01EB016A857B85BAE0EB2EF12CEC0E04
:102AC000FD1E6E157F0509F45EC0DB011497EE85CF
:102AD000FF8538974C815D810D891E891C968D91EB
:102AE0009C911D97800F911F1D969C938E931C9710
:102AF0009E01225F3F4F15C0EE85FF858081918149
:102B00009F878E87888999898E179F0711F4398B43
:102B1000288B8B01041B150BEE85FF85389740E051
:102B200050E00115110541F0B801640F751F468191
:102B300057816417750700F78E859F858217930765
:102B4000F1F4FB86EA86FD86EC861296ED91FC9107
:102B50001397808191819F878E878217930711F445
:102B6000398B288B1296ED91FC911397B183A0833A
:102B70008A898D7F8A8BC601BD0140E055DB1D83AC
:102B80000C831E8A1D8ADF91CF911F910F91FF90B8
:102B9000EF90DF90CF9008950F931F93CF93DF9323
:102BA0008C01EB017DDFEA85FB859E01265F3F4FAF
:102BB000E217F307D9F0808191819B878A878C8502
:102BC0009D858E179F0711F43D872C87CE010E96A9
:102BD0009F878E87998B888B1D821C828A898D7F27
:102BE0008A8B3497C801BF014BEF1EDBDF91CF9179
:102BF0001F910F910895FC0182818670863041F407
:102C00008091E0008E7F8093E00088E08093E20076
:102C10000895FC019281892F8695869580FD04C0D8
:102C200094609283CF01E7CF08951F93FC011FB7F3
:102C3000F8949281892F869580FD04C092609283DA
:102C4000CF01D9DF1FBF1F9108958BE192E09093D0
:102C50001C0280931B0290931E0280931D029C0114
:102C60002C5F3F4F3093200220931F0230932202AB
:102C700020932102109200021092100210920F0273
:102C800021E238E130930E0220930D0210921202DD
:102C90004D97909314028093130210921A0210928F
:102CA00019022DE536E13093180220931702E0EE69
:102CB000F0E020812B7F208308952F923F924F9246
:102CC0005F926F927F928F929F92AF92BF92CF92BC
:102CD000DF92EF92FF920F931F93CF93DF93AC019C
:102CE000EC012697EA80FB801092E9008091E800D1
:102CF00028808221382E82FF99C0F8946A857B85CE
:102D000034E0632E712C640E751E6615770511F480
:102D100078948BC12CEF422E2FEF522E460E571E69
:102D200078940C811D818091F3009091F200382FEE
:102D300020E0A92EBB24A22AB32AF89498E0892E79
:102D4000912C840E951ECC24DD2449C0F894AE85C8
:102D5000BF851897789416966D917C911797601B94
:102D6000710BC5018C199D098617970708F4BC01E2
:102D700012964D915C911397400F511F20E030E067
:102D800008C08091F100F901E40FF51F80832F5FE7
:102D90003F4F26173707A8F3060F171F16968D917A
:102DA0009C91179708171907C1F4F201848595853E
:102DB000800F911F95878487F894EE85FF85808129
:102DC00091819F878E87888999898E179F0711F433
:102DD000998A888A789400E010E0C60ED71E8E8506
:102DE0009F858815990509F0B1CFF8948091E80086
:102DF0008B7F8093E80078941D830C83F8948E85F4
:102E00009F858815990589F47B866A867D866C8600
:102E100088818B7F8883F70114828A898D7F8A8BD2
:102E20007894C701B20140E0FFD9789430FEA7C082
:102E3000F7018481843089F48681853041F487816B
:102E40008093E300982F90689093E3008383F89435
:102E500088818E7F888378941DC0823059F481E008
:102E6000F7018483F8948091E8008E7F8093E800D6
:102E70007894C5C0C701BE0113DE9E01225F3F4F9B
:102E80008E859F858217930741F4F89488818E7F01
:102E900088837894F7011482B2C00C811D81F89464
:102EA000AE85BF8518977894CC24DD2480E4882EE5
:102EB000912C1696AD90BC901797B501601B710BC5
:102EC000C4018C199D098617970708F4BC01129656
:102ED0004D915C911397400F511F20E030E008C0E6
:102EE000F901E40FF51F80818093F1002F5F3F4FC0
:102EF00026173707A8F3060F171FC60ED71E0A1589
:102F00001B0589F4F8949D01285F3F4F88899989B2
:102F10008217930769F018960D90BC91A02D189711
:102F2000789400E010E0F0E4CF16D10408F4C1CFAB
:102F3000F8948091E8008E7F8093E8007894DE8A90
:102F4000CD8AF894EA85FB8534979D01285F3F4F31
:102F5000828193818217930789F416968D919C91B3
:102F600017970817190751F4868180FF07C080E47E
:102F7000C816D10419F482E0F7018483789433FEF3
:102F80003EC020FE0AC0F8948091E8008E7F8093B6
:102F9000E8007894C701BE01FFDD4091F300209165
:102FA000F200942F80E030E0822B932B089741F0C1
:102FB000F8948091E800877F8093E800789435C08A
:102FC000A7014B5F5F4F20E030E08091F100FA01F4
:102FD000E20FF31F80832F5F3F4F28303105A9F7A1
:102FE000F8948091E800877F8093E8007894B70197
:102FF0006B5F7F4FC7010E94EE0E87FD16C0888170
:103000008093F000DF91CF911F910F91FF90EF908F
:10301000DF90CF90BF90AF909F908F907F906F90F8
:103020005F904F903F902F900895F89488818A7F09
:103030008883789488818093F000C70160E0C8DAC3
:10304000DECF0F93CF93DF93BC018091E10083FF2C
:103050002AC0EB012F978091E100877F8093E100E8
:103060001B828A81877F8A8382E088836C5F7F4F9F
:10307000CE0192DDCE010E94F90C80E060E470E0A8
:1030800040E020E001E042DB882311F018820BC011
:103090001C829FB7F8941092E9008B8988608B8B13
:1030A0008093F0009FBF88E08093E200DF91CF9192
:1030B0000F9108951F93FC01108213828281877003
:1030C00082831091E00010FD08C0CF010E94F90C2E
:1030D00011601093E0001092E2001F9108951F9379
:1030E000FC011FB7F894828181FF04C08D7F828329
:1030F000CF01E0DF1FBF1F910895FC01828182FF95
:1031000004C08B7F8283CF01D5CF08954F925F9209
:103110006F927F928F929F92AF92BF92CF92DF92E7
:10312000EF92FF920F931F93CF93DF939C017AEF5F
:10313000E72E7FEFF72EE80EF91ED70112964D907D
:103140005C90139753968D909C905497AC014C5F74
:103150005F4F1A968D919C911B978417950709F4E0
:10316000BAC011968C9111978093E900F894F701F9
:1031700082898260828B78946CE0662E712C620E5C
:10318000731E52968C9152978695869580FFA3C0A8
:10319000F8941A96ED91FC911B97808191811B9672
:1031A0009C938E931A971C968D919C911D978E17C8
:1031B0009F0721F41D965C934E931C975CEFC52EE0
:1031C0005FEFD52ECE0EDF1E7894F60180819181BF
:1031D0008C159D0509F47FC0EC0128978091F300C0
:1031E0009091F200382F20E0092F10E0022B132BD2
:1031F000A0E0B0E05BC04E815F814A1B5B0BC40165
:10320000801B910B8417950710F4AC0100C08091CE
:10321000E80080FFFCCFF8948091E8008E7F8093D7
:10322000E80078946A817B816A0F7B1F20E030E0A0
:1032300008C0F901E60FF71F80818093F1002F5F2E
:103240003F4F24173507A8F3A40FB51F040F151F10
:103250000815190529F08E819F81A817B90749F42F
:10326000F8948091E8008F778093E800789400E0EC
:1032700010E08E819F81A817B90791F4F60184852B
:1032800095858A0F9B1F95878487828193818A15F4
:103290009B05A9F00884D985C02D2897A0E0B0E04F
:1032A000F30180818695869580FF15C048E0A42EA5
:1032B000B12CAC0EBD1EAC14BD0409F09CCFC201F4
:1032C000B60140E00E941411B7016A5F7F4F8AE5A2
:1032D00092E00E947F04D70152968C9152978D7F85
:1032E00052968C93DF91CF911F910F91FF90EF90A9
:1032F000DF90CF90BF90AF909F908F907F906F9016
:103300005F904F900895EF92FF920F931F93CF938A
:10331000DF93F82EE92E8A01482F592F772767FD72
:103320007095F8011586148680E88387F89487E104
:1033300090E0689FE001699FD00D789FD00D112427
:10334000DA01AC0FBD1F95968C91959782FD02C056
:1033500080E023C098012C5F3F4FCE014D96840F33
:10336000951FF801958384835F96ED91FC9190976A
:103370003183208390963C932E935F9795968C9102
:10338000869580FD09C0CE014996480F591F8AE5F0
:1033900092E0BA010E947F0481E07894882331F49E
:1033A0008F2D9E2DB8014EEF0E941411DF91CF9109
:1033B0001F910F91FF90EF900895EF92FF920F935E
:1033C0001F93E92EFF2400271127562F4427332768
:1033D0002227E22AF32A042B152B9B01AC01207033
:1033E00040705070542F432F322F2227E22AF32AA5
:1033F000042B152B672F782F892F992760708070E9
:103400009070E62AF72A082B192BB701C8011F91E3
:103410000F91FF90EF9008958F929F92AF92BF927D
:10342000CF92EF92FF920F931F935C014B01DC014F
:103430001596ED91FC9116970995D4011A96ED9188
:10344000FC911B97C501B40109951F910F91FF9045
:10345000EF90CF90BF90AF909F908F900895EF9294
:10346000FF920F931F93FC01228133814481558188
:10347000E52EFF2400271127B22FAA279927882796
:10348000E82AF92A0A2B1B2BDA01C9018070A070E7
:10349000B070BA2FA92F982F8827E82AF92A0A2B6B
:1034A0001B2B232F342F452F552720704070507031
:1034B000E22AF32A042B152BB701C8011F910F91A3
:1034C000FF90EF900895FC014FB7F89410AE87A9D4
:1034D000882369F022A933A92115310541F084A977
:1034E00095A913AA12AA4FBFF901099508954FBFD4
:1034F0000895EF92FF920F931F938C01DC01989631
:10350000ED90FC9099979496ED91FC91959784811C
:103510009581A681B781F70184839583A683B783BC
:10352000D70118964D935D936D937C931B971C96D2
:103530002C93D8019C96ED91FC919D97158614864D
:103540008EE69EE1908787830190F081E02D389789
:1035500080E090E0A0E0B0E0C701E2829383A48322
:10356000B5838DE090E0978386831F910F91FF9044
:10357000EF9008950C94CD0208959F92AF92BF9260
:10358000CF92DF92EF92FF920F931F93B62E942E5D
:10359000A52E68017901FC0102891389C80160E048
:1035A00070E042E150E00E94510280EFF801808318
:1035B000B2828F2D9927AA27BB278383C701AA2709
:1035C000BB278483BB27AF2D9E2D8D2D8583C6827F
:1035D0008AE08783A48695861F910F91FF90EF90D4
:1035E000DF90CF90BF90AF909F900895EF92FF92A1
:1035F0000F931F93909382018093810180E290E06A
:10360000B9DF609385017093860180938701909361
:10361000880103E7E02E01E0F02EC70160E040E002
:1036200050E000E010E020E030E0A7DFC7011F918C
:103630000F91FF90EF900895FB01A081B1818D91D2
:103640009C91119791838083828193818A179B0734
:1036500011F473836283CD01089767E170E00C94E5
:103660008202CF93DF93EC0111C080819181998315
:1036700088838A819B818E179F0711F4DB83CA831D
:10368000CF01089760E072E00E948202E881F98130
:10369000EC17FD0751F7DF91CF9108952F923F92DC
:1036A0004F925F926F927F928F929F92AF92BF9252
:1036B000CF92DF92EF92FF920F931F93DF93CF93FE
:1036C00000D000D0CDB7DEB72C011B0139014A0173
:1036D00080E092E00E943F2C5B01CC24DD244982F3
:1036E0005A8280E092E00E949A028C01009719F4BD
:1036F0008401730165C06A147B048C049D0478F412
:10370000B10180E090E0A40193010E94202C9B0174
:10371000AC01C801B9010E946A0264015301C801E9
:103720000896E981D8011896EC931897FA811996B2
:10373000FC93D2011296ED91FC91139791838083B3
:1037400013969C938E93129784017301EA18FB08D9
:103750000C091D09A9F180E092E00E949A029C8365
:103760008B83892B69F1EA14FB040C051D0580F499
:10377000910140E050E0C801B7010E94202C9B015C
:10378000AC018B819C81B9010E946A0257016801DA
:103790008B819C8108962981EB81FC812087AA81FD
:1037A000A187D2011296ED91FC91139791838083AA
:1037B00013969C938E931297EA18FB080C091D0927
:1037C000A40193012E193F09400B510BB901CA0105
:1037D0000F900F900F900F90CF91DF911F910F914D
:1037E000FF90EF90DF90CF90BF90AF909F908F9021
:1037F0007F906F905F904F903F902F9008955F92D1
:103800006F927F928F929F92AF92BF92CF92DF92F0
:10381000EF92FF920F931F93DF93CF9300D000D0CE
:10382000CDB7DEB76C013B014A01A90198015E01E9
:103830000894A11CB11CBA82A982BC82AB82C501CA
:1038400060E072E02BDF7B018C0161157105810561
:103850009105F1F08FB7F894D60192969C919297CA
:103860009E0D92969C938FBFD4011C96ED91FC9176
:103870001D97C301B401A5010995892B61F09FB77C
:10388000F894F60182A18E1982A39FBFC501E9DEDB
:1038900060E070E00EC0F60186899789A08DB18D39
:1038A0008E0D9F1DA01FB11F868B978BA08FB18F90
:1038B000B701CB010F900F900F900F90CF91DF9138
:1038C0001F910F91FF90EF90DF90CF90BF90AF903E
:1038D0009F908F907F906F905F900895BF92CF924E
:1038E000DF92EF92FF920F931F93CF93DF93EC0140
:1038F000CE84DF84EEA4FFA4F894BB24B39417C055
:103900000A8D1B8D2C8D3D8D8E899F89A88DB98D3B
:10391000081B190B2A0B3B0B81F0BEAA7894CE0131
:10392000B601A7016CDFF8941EAA892B31F08AA199
:10393000823018F48EA9882319F37894DF91CF91FF
:103940001F910F91FF90EF90DF90CF90BF9008955F
:10395000FB010088F189E02D26893789408D518D42
:10396000828D938DA48DB58D281739074A075B0783
:1039700010F4CF01B3CF08952F923F924F925F92F0
:103980006F927F928F929F92AF92BF92CF92DF926F
:10399000EF92FF920F931F93DF93CF93CDB7DEB7D4
:1039A0002A970FB6F894DEBF0FBECDBF98878F83DE
:1039B0001B013A01DB0150960D90BC91A02DBE83F6
:1039C000AD835A968D909D90AD90BC905D97569624
:1039D000ED90FD900D911C915997CE0101969A831F
:1039E00089839C838B8321E0422E512C89879A877F
:1039F00042C0E814F9040A051B0509F443C080819C
:103A00009181D30111969C938E9312968D919C91E6
:103A100013978E179F0721F413967C926E9212973C
:103A200088EFC82E8FEFD82ECE0EDF1EC201A0E089
:103A3000B0E0E80EF91E0A1F1B1F8E149F04A0069B
:103A4000B10660F4480C591C4E185F08742D770FAE
:103A5000C60160E00E946A0285017401C6010896F1
:103A60002985F6012087AA85A187EB81FC819183B6
:103A700080839C838B83D301ED91FC91E615F70540
:103A800009F0B7CF89819A816E010894C11CD11CBD
:103A90008C159D05A9F0D1011C96ED91FC911D9707
:103AA0008F819885B101A6010995892B19F0C6016E
:103AB000D8DD06C0ED81FE81E68AF78A008F118F7E
:103AC000C301CFDD2A960FB6F894DEBF0FBECDBF7F
:103AD000CF91DF911F910F91FF90EF90DF90CF90EA
:103AE000BF90AF909F908F907F906F905F904F901E
:103AF0003F902F900895AF92BF92CF92DF92EF92B6
:103B0000FF920F931F93CF93DF935C016B017901B9
:103B10002115310551F187E190E00E949A02EC01F4
:103B20000A811B81C80164E271E047E150E00E9414
:103B30003802D5011A968C91F8018283F7E1EF16CD
:103B4000F10420F4CE01B7010E946A02CE0108966A
:103B5000D986C886D6011296ED91FC911397918370
:103B6000808313969C938E93129787E1DF91CF9178
:103B70001F910F91FF90EF90DF90CF90BF90AF908B
:103B800008958F929F92AF92BF92CF92DF92EF9261
:103B9000FF920F931F93DF93CF930F92CDB7DEB7B2
:103BA0004C01FA01A281B381268137819081892F4E
:103BB000829586958370813009F081C041814E3FA6
:103BC00009F468C04F3F09F07AC0232B09F077C091
:103BD000AB2B09F074C097FD72C05B01DB015096FE
:103BE0006C91161644F4C4010E946314C401F501DB
:103BF00060890E947013D50151966C91161644F499
:103C0000C4010E946314C401F50161890E9470130C
:103C1000C50159DCD5019C96ED90FC909D97F7016C
:103C2000C080D180860108501040C7010E94BF0E9D
:103C3000D50194968C91949795969C91959796968C
:103C40002C91969797963C91F801828393832483D5
:103C500035838FE190E097838683F186E086D701F4
:103C60001296ED91FC911397D182C0821396DC924B
:103C7000CE92129789EF95E218969C938E931797A0
:103C8000C401F5016189A7010E947D12C4010E944F
:103C9000741113C02130310591F4AB2B81F497FFDF
:103CA0000EC01982C401BE016F5F7F4F41E050E03A
:103CB0000E945011C4010E94881180E001C08FEF62
:103CC0000F90CF91DF911F910F91FF90EF90DF90B8
:103CD000CF90BF90AF909F908F900895CF92DF923A
:103CE000EF92FF920F931F93CF93DF936C018B01A1
:103CF000FB01C185D285E080F180CE01E4DBF801D3
:103D000083858823D1F4F70138978CA19DA12EA13A
:103D10003FA182839383248335838FE190E097834F
:103D20008683F8011586148689EF95E2908787834C
:103D3000C6016989A8010E947D12DF91CF911F9170
:103D40000F91FF90EF90DF90CF9008950F931F9306
:103D5000CF93DF938C01EB0121153105410551050E
:103D600061F0ECA1FDA1848587FF03C0C8016889CB
:103D700002C0C80169890E94E8124CA55DA5C8016E
:103D80006889C1DADF91CF911F910F910895CF9289
:103D9000DF92EF92FF920F931F938C01DC019496B8
:103DA000ED91FC919597C084D184E284F384B701AE
:103DB000A60122E09EDBF80184859585B801A70164
:103DC0009601C4DF1F910F91FF90EF90DF90CF908D
:103DD0000895CF92DF92EF92FF920F93DC01FB01E7
:103DE00069017A0120853185428553858485802744
:103DF00087FD05C02C153D054E055F0538F4CD0146
:103E0000C6DF2FEF3FEF4FEF5FEF04C02C193D09E6
:103E10004E095F09B901CA010F91FF90EF90DF9041
:103E2000CF900895EF92FF920F931F93CF93DF935C
:103E3000FB01C089D189E8A4F9A482898823D9F03B
:103E4000038914892589368949E036952795179580
:103E500007954A95D1F781E0F70184878E8D9F8D74
:103E6000A8A1B9A1080F191F2A1F3B1FCE0163E0AB
:103E700040E051E182DBF7012085318542855385A1
:103E80008C859D85BE0162DFDF91CF911F910F91DF
:103E9000FF90EF9008957F928F929F92AF92BF9282
:103EA000CF92DF92EF92FF920F931F936C014A0122
:103EB0005B01722E602FA70100E010E020E030E0EF
:103EC0005CDBC601B501A401272D13DBF601848557
:103ED0009585B601A501940139DF1F910F91FF90DF
:103EE000EF90DF90CF90BF90AF909F908F907F909A
:103EF00008952F923F924F925F926F927F928F928E
:103F00009F92AF92BF92CF92DF92EF92FF920F9368
:103F10001F93DF93CF9300D000D000D0CDB7DEB792
:103F20009E838D837C836B835A011801290136019E
:103F30004701FC010684F785E02DFA83E983A70198
:103F4000960169E0220F331F441F551F6A95D1F770
:103F5000B50100E83EDF7B018C0197FD68C09FB78B
:103F6000F894ED81FE8187A9882379F09FBFF50140
:103F70004085518562857385ED81FE81E0A8F1A8B9
:103F8000CF0121E002E087DF52C0DD24D394ED8130
:103F9000FE81D0AE9FBF8D819E81A701B80120E038
:103FA000A8DA611471048104910441F48B819C812D
:103FB0006D817E819701A801C9DE39C0ED81FE8146
:103FC000628E738E848E958E168A178A108E118E4D
:103FD000D6AA12A213A2A6A4B7A488EA9CE1F5016E
:103FE0009583848380E390E29783868386E191E2E0
:103FF000918780878D819E81918B808B89819A8129
:10400000B501A201910184017301CC2405DA8D81EF
:104010009E8169817A81A50194018301F0DB892B5E
:1040200019F48D819E81B3DEED81FE8116AA26965C
:104030000FB6F894DEBF0FBECDBFCF91DF911F91B9
:104040000F91FF90EF90DF90CF90BF90AF909F9037
:104050008F907F906F905F904F903F902F9008953A
:10406000CF92DF92EF92FF920F931F93CF93DF9344
:10407000FB01C089D18948A559A5DA011896CD90D0
:10408000DD90ED90FC901B978289882391F1038944
:10409000148925893689E9E036952795179507957E
:1040A000EA95D1F7ECA1FDA1C084D184E284F38428
:1040B000D901C80179E0880F991FAA1FBB1F7A9503
:1040C000D1F7C81AD90AEA0AFB0AFA01C086D186D2
:1040D000E286F38681E084878E8D9F8DA8A1B9A1A9
:1040E000080F191F2A1F3B1FCE0163E040E051E17A
:1040F00044DA8C859D85C114D104E104F10421F4D6
:104100004CA55DA56889FFD8DF91CF911F910F91D4
:10411000FF90EF90DF90CF9008950F931F93CF9370
:10412000DF938C01EB01E8A5F9A580859185A28537
:10413000B3850097A105B10599F06889662381F0E0
:10414000ECA1FDA1848587FF02C0C80102C0C8019F
:1041500069890E94E8124CA55DA5C8016889D3D879
:10416000DF91CF911F910F910895CF92DF92EF923F
:10417000FF920F931F93CF93DF93FB01C089D189E7
:1041800048A559A5DA011896CD90DD90ED90FC90E8
:104190001B978289882391F103891489258936899F
:1041A000A9E03695279517950795AA95D1F7ECA123
:1041B000FDA1C084D184E284F384D901C801F9E06F
:1041C000880F991FAA1FBB1FFA95D1F7C81AD90AE1
:1041D000EA0AFB0AFA01C086D186E286F38681E00C
:1041E00084878E8D9F8DA8A1B9A1080F191F2A1F42
:1041F0003B1FCE0163E040E05CE0BFD98C859D852C
:10420000C114D104E104F10421F44CA55DA5688931
:104210007AD88C859D85BE0180DFDF91CF911F917B
:104220000F91FF90EF90DF90CF900895EF92FF9263
:104230000F931F93CF93DF93FB018A01908921890C
:104240008289803829F4C92FD22F8889882319F4CC
:10425000C80107DA5FC00E94DE0E7C01009729F4D6
:10426000C801FFD9CE0193DD55C09FB7F8948BA14B
:104270008F5F8BA39FBFD801ED91FC91389740E0F1
:1042800050E060E070E00FC08781282F269530E075
:10429000C901A0E0B0E0480F591F6A1F7B1F0084CE
:1042A000F185E02D3897CF0108960817190761F7B7
:1042B0009FB7F8948AA1841B8AA39FBFD801129646
:1042C000ED91FC911397F182E082D7011296ED9166
:1042D000FC911397D8018D919C91119791838083C4
:1042E00012968D919C911397F70193838283119677
:1042F0001C930E9313961C930E93129781E092E2F7
:1043000090878783D287C1878C859D856889A7011F
:104310000E948319DF91CF911F910F91FF90EF9031
:104320000895EF92FF921F93CF93DF937C01FB01DF
:10433000C185D2851385CB010E94D90E112319F4B2
:10434000C701BE01EADEDF91CF911F91FF90EF9090
:104350000895EF92FF920F931F937C018B01FB0155
:1043600080819181089768E170E00E948202C70114
:10437000B801D7DF1F910F91FF90EF900895EF9252
:10438000FF920F931F937C018B01FB018081918130
:10439000089764E370E00E948202C701B801C1DFA0
:1043A0001F910F91FF90EF900895EF92FF920F935E
:1043B0001F937C018B01FB0180819181089768E04C
:1043C00070E00E948202C701B801ABDF1F910F911C
:1043D000FF90EF900895EF92FF920F931F937C014F
:1043E0008B01FB0180819181089760E170E00E9460
:1043F0008202C701B80195DF1F910F91FF90EF90E6
:104400000895CF92DF92FF920F931F93CF93DF9384
:104410006C018B01FB01C185D285CB0122D9F8014A
:10442000F384C8010E94D90E9FB7F8948BA18150E4
:104430008BA39FBFFF2099F42A8D3B8D4C8D5D8D02
:104440008E899F89A88DB98D281739074A075B0780
:1044500021F4C601BE0161DE02C0CE013FDADF9168
:10446000CF911F910F91FF90DF90CF900895CF9241
:10447000DF92EF92FF920F931F93CF93DF93EC01A4
:1044800079018A010E94DE0E6C010097B9F0FC01EF
:10449000D287C18786EC93E290878783C60160E06C
:1044A00072E0A8019701FAD87B018C0161157105B2
:1044B0008105910531F4C6010E94D90E60E070E0DB
:1044C00019C08E899F89A88DB98D8E0D9F1DA01F43
:1044D000B11F8E8B9F8BA88FB98F9FB7F8948BA13C
:1044E0008F5F8BA39FBF8C859D856989A6010E94E4
:1044F0007D12B701CB01DF91CF911F910F91FF90FA
:10450000EF90DF90CF9008952F923F924F925F925D
:104510006F927F928F929F92AF92BF92CF92DF92D3
:10452000EF92FF920F931F93DF93CF9300D000D0B1
:1045300000D0CDB7DEB79E838D837C836B833A0139
:104540001801290146015701DC011E960D90BC910E
:10455000A02DBA83A983A7019601B9E0220F331FCA
:10456000441F551FBA95D1F7B30100E032DC7B013F
:104570008C0197FD6FC09FB7F894ED81FE8187A9EC
:10458000882381F09FBFD30118964D915D916D9165
:104590007C911B97E0A8F1A88D819E8121E002E02B
:1045A0007ADC58C0DD24D394ED81FE81D0AE9FBF6C
:1045B0008D819E81A701B80120E00E94791A8114A3
:1045C0009104A104B10441F48B819C816D817E81B1
:1045D0009701A801BBDB3EC0AD81BE815A968D928A
:1045E0009D92AD92BC925D97FD01168A178A108E3E
:1045F000118ED6AA12A213A2AD81BE819E96ED9114
:10460000FC919F9782EB93E29583848385EB90E204
:104610009783868380E793E291878087B18BA08B15
:1046200089819A81BF01A201910185017401CC2485
:10463000C3940E940C1A8D819E8169817A81A501A3
:10464000940115DF892B19F48D819E81A0DBED810A
:10465000FE8116AA26960FB6F894DEBF0FBECDBF18
:10466000CF91DF911F910F91FF90EF90DF90CF904E
:10467000BF90AF909F908F907F906F905F904F9082
:104680003F902F900895FF920F931F93CF93DF9346
:10469000EC010E851F85FF24F39416C02A8D3B8DF7
:1046A0004C8D5D8D8E899F89A88DB98D281B390B06
:1046B0004A0B5B0B79F0FEAA7894CE01B801D7DEE5
:1046C000F8941EAA892B31F08BA1823018F48EA9A0
:1046D000882321F3DF91CF911F910F91FF900895CF
:1046E0000F931F93CF93DF93FB01EA010089118998
:1046F000CA010E94311BE881F981389740E050E0FF
:1047000060E070E00FC08781282F269530E0C90156
:10471000A0E0B0E0480F591F6A1F7B1F0084F1859D
:10472000E02D3897CF010896C817D90761F79FB7D2
:10473000F894F80182A1841B82A39FBF2689378940
:10474000408D518D828D938DA48DB58D281739079D
:104750004A075B0710F4C80196DFDF91CF911F91E4
:104760000F910895FB010088F189E02D2689378992
:10477000408D518D828D938DA48DB58D281739076D
:104780004A075B0710F4CF017ECF08958F929F9266
:10479000BF92CF92DF92EF92FF920F931F93DF931E
:1047A000CF9300D000D0CDB7DEB7FB01E184F28417
:1047B000B3848E010F5F1F4F1A8309831C830B8301
:1047C000A281B3810D931C93AB81BC8180819181C7
:1047D0008D939C93828193819C838B836083F183EF
:1047E0006283F383CB010E94D90ED7011E968D9070
:1047F0009C901F979E96CD90DC909F97E981FA81BF
:10480000389740E050E060E070E00FC08781282FCB
:10481000269530E0C901A0E0B0E0480F591F6A1F9B
:104820007B1F0084F185E02D3897CF01089608178B
:10483000190761F7BB2039F5B42E9FB7F894F7013B
:1048400082A1840F82A39FBF9FB7F894D70193964C
:104850008C919397815093968C939FBFD6011C9611
:10486000ED91FC911D97C401B601A8010995892B12
:1048700051F09FB7F894F70182A18B1982A39FBFD3
:10488000C8010E94311B0F900F900F900F90CF9195
:10489000DF911F910F91FF90EF90DF90CF90BF902D
:1048A0009F908F9008952F923F924F925F926F92B8
:1048B0007F928F929F92AF92BF92CF92DF92EF92B0
:1048C000FF920F931F93DF93CF93CDB7DEB7289757
:1048D0000FB6F894DEBF0FBECDBF5C017C836B8347
:1048E0005E834D8338014901BA01A901980100E8AE
:1048F00070DA1B012C0197FD1EC10E94DE0E6C01B7
:10490000009709F416C1DC011A96BC92AE92199771
:104910008BEE91E218969C938E93179780E190E02E
:104920000E949A029A838983009709F4FFC008962F
:10493000E981FA81D186C086D6011296ED91FC916B
:1049400013979183808313969C938E931297E9819A
:10495000FA81E280F380C70160E070E040E150E05E
:104960000E945102AD81BE811F968C91D5011E9689
:10497000ED91FC911F978A3159F484818695869533
:1049800080FD03C080E8F701828304E010E00BC0E3
:1049900084818695869580FD04C080E8D7011396B2
:1049A0008C9308E010E0ED81FE81808986958695E4
:1049B000869580FD36C087858A3139F488E0D70135
:1049C00013968C93F701349609C080E098E0D701E4
:1049D00017969C938E931697F7013896F887EF8376
:1049E000085F1F4FD5011E96ED91FC911F976081C6
:1049F0007181828193810E94DD19EF81F885608346
:104A000071838283938360E072E080E090E00E9493
:104A1000DD19AF81B88514966D937D938D939C932A
:104A2000179789819A81B8010E946A02ED81FE81FF
:104A30009189892F8295869586958370813029F09A
:104A4000892F8F73C9F08F33B9F0260C371C481C9F
:104A5000591CC501B201A10121E005E0E12C14E2DD
:104A6000F12E19DAC6010E94D90E89819A8160E17E
:104A700070E00E9482025FC0AD81BE811F968C9162
:104A80008A3129F4802F8150F701808306C0C80144
:104A90000297D7019C9311968C93C201B101660DC8
:104AA000771D881D991D980140E050E0621673063D
:104AB0008406950610F4A40193017B018C01E21A8F
:104AC000F30A040B150BC501B801A70120E00E94F1
:104AD000791A6114710481049104C1F08B819C8165
:104AE000F5016089A6010E948319E114F104010512
:104AF000110509F5D5019C964D915C919D978B818F
:104B00009C8150966C910E94831915C0C6010E9429
:104B1000D90E89819A8160E170E00E9482028B81C6
:104B20009C81B501A801970111D905C0C6010E9459
:104B3000D90EC5012CD928960FB6F894DEBF0FBE4A
:104B4000CDBFCF91DF911F910F91FF90EF90DF903C
:104B5000CF90BF90AF909F908F907F906F905F901D
:104B60004F903F902F900895AF92BF92DF92EF92B7
:104B7000FF920F931F93CF93DF935C017B01FB01A7
:104B8000C185D285D384CE0160E040E050E000E0F2
:104B900010E020E030E00E94BD1AF7018081918191
:104BA00008970E947E02C7010E94D90EDD2019F4E9
:104BB000C501BE01B2DADF91CF911F910F91FF9035
:104BC000EF90DF90BF90AF900895EF92FF920F9318
:104BD0001F937C018B01FB018081918108970E94CA
:104BE0007E02C701B8019DDB1F910F91FF90EF90EE
:104BF00008952F923F924F925F926F927F928F9281
:104C00009F92AF92BF92CF92DF92EF92FF920F935B
:104C10001F93DF93CF93CDB7DEB760970FB6F894AD
:104C2000DEBF0FBECDBF988B8F87FB01618472847E
:104C3000D30194969C91949795962C918385882383
:104C400009F0AEC4892E922ED4012D913D914D9143
:104C50005C91255533454244534421F48485958520
:104C60004F9771F08F859889F30160890E945613E0
:104C70008F859889D30151966C910E94561390C4E8
:104C8000F40187858A3109F4FCC28B3190F48830B5
:104C900009F4E1C0893030F48823F1F0833009F061
:104CA00070C448C08A3009F40BC1823109F069C46C
:104CB00043C18A3209F478C38B3238F4853209F45F
:104CC000E5C2883209F05DC457C38F3209F486C348
:104CD0008A3509F056C44AC4D4011896AD90BD90E7
:104CE000CD90DC901B97F30187A9882331F0E0A8D1
:104CF000F1A8C301B601A501BCC3D3011E96ED9175
:104D0000FC911F97848181FF0CC0C301B601A501EE
:104D100020E00E94791A8F859889B301A601950138
:104D200095C0C301B601A50121E002E0E12C3AE300
:104D3000F32E34C4F401E3882E2D30E040E050E03F
:104D4000C301B40100E845D85B016C0197FD28C49C
:104D5000EE2009F466C00E94DE0E4C01009709F4B3
:104D600001C40E949302DC01009709F472C0FF2481
:104D7000F30182899389FC018781682F70E0685F65
:104D80007F4FE616F70608F4B701F301828993898D
:104D90002489358912968C93129713969C931397B6
:104DA00014962C93149715963C93159717967C930D
:104DB0006E931697CD01089619969C928E9218972D
:104DC000D4011296ED91FC911397918380831396F1
:104DD0009C938E9312971A967C926E92199784EBFD
:104DE00095E218969C938E931797E61AF70A00E0BF
:104DF00010E0EA0CFB1C0C1D1D1DC301B801A7012E
:104E000020E00E94791A8F859889F3016089A401B6
:104E10000E948319E114F1040105110509F0C0C3D2
:104E20009DC2C30160E040E050E000E010E020E0FF
:104E300030E00E94BD1AC301A501B60120E00E9426
:104E4000791A8F859889B3019501A6010E94A61E43
:104E5000A7C3C4018EC2F401908901894289838964
:104E6000C82EDD24EE24FF24C114D104E104F10492
:104E700029F4C12C81E0D82EE12CF12C892F90E06F
:104E8000A0E0B0E08F719070A070B070DC01992745
:104E9000882710E020E030E0322F212F102F00274C
:104EA00050E060E070E0042B152B262B372B082BED
:104EB000192B2A2B3B2BC3016F857889A40171C262
:104EC000D40150969C91509751960C9151975296BF
:104ED0004C91529753968C91C82EDD24EE24FF24DA
:104EE000C114D104E104F10429F4C12CE1E0DE2E67
:104EF000E12CF12C892F90E0A0E0B0E08F71907050
:104F0000A070B070DC019927882710E020E030E025
:104F1000322F212F102F002750E060E070E0042B8B
:104F2000152B262B372B082B192B2A2B3B2BC30198
:104F30006F857889A40150C2F401D288C388960194
:104F400040E050E0C301B40100E80E94E91E6F8315
:104F5000788789879A8797FD23C30E94DE0E5C01BC
:104F6000009709F4FFC2DC011A967C926E921997A1
:104F7000F4015188808980FF03C15016B1F1F3E834
:104F80005F1609F483C0552009F062C1C114D10431
:104F900009F47FC00E949302FC01009709F488C0C5
:104FA000960188E0C816D10410F027E030E080E0D8
:104FB00090E0A0E0B0E08FE591E082839383A4834A
:104FC000B58337832683CF010896B186A086D501A5
:104FD0001296ED91FC9113979183808313969C9385
:104FE0008E93129785EE95E2BEC0C114D10409F4E8
:104FF00050C086E691E00E945F024C0188E190E09B
:105000000E949A027C01009709F452C0FC010281BF
:105010001381D8011C9211965C92119712961C92E2
:10502000129784E113968C9344E150E04819590992
:10503000C801049660E270E00E9451020819190943
:10504000C801489666E671E0A4010E943802B8E102
:10505000CB16D10418F028E130E005C0C701B60135
:105060000E946A029601C7010896F701B186A086E0
:10507000D5011296ED91FC9113979183808313963D
:105080009C938E93129789EA91E26DC0C114D1046A
:1050900019F420E030E06BC086E691E00E945F02E8
:1050A0001C0184E390E00E949A024C01009719F4DD
:1050B0002FEF3FEF5CC0FC0102811381D8011C92ED
:1050C00011965C92119712961C92129780E3139698
:1050D0008C93139782E014968C93149781E0159625
:1050E0008C93159716961C9216978CE217968C93B4
:1050F000C801089663E471E048E150E00E9438027C
:10510000005E1F4F54E1E52EF12CE218F308C801B0
:1051100060E270E0A7010E945102C8018E0D9F1D40
:1051200066E671E0A1010E943802B4E3CB16D10417
:1051300018F024E330E005C0C401B6010E946A0201
:105140009601C4010896F401B186A086D501129695
:10515000ED91FC9113979183808313969C938E938A
:1051600012978FEB91E218969C938E931797C90133
:10517000AA2797FDA095BA2FB7FD81C04C0138C072
:10518000552009F065C0C114D10419F4882499246C
:105190002FC00E949302FC01009709F470C04601E1
:1051A000B5E2CB16D10418F044E2842E912C80E0B5
:1051B00090E0A0E0B0E08BE391E082839383A4834E
:1051C000B58397828682CF010896B186A086D501E5
:1051D0001296ED91FC9113979183808313969C9383
:1051E0008E93129785EE95E218969C938E9317975F
:1051F000C818D908760100E010E08F819885A9854C
:10520000BA85E80EF91E0A1F1B1FC301A701B801CA
:1052100020E00E94791A8928B9F08F859889D301F6
:1052200050966C91A5010E948319E114F1040105C7
:10523000110509F0B5C1F30144A555A58F859889DD
:1052400060890E948319ACC1C5010E94D90E23C197
:10525000A60160E070E08F819885A985BA85480F26
:10526000591F6A1F7B1FC30121E005E0E12C34E2D6
:10527000F32E0E944B1FC5010E94D90E91C1C5019A
:1052800078C0D40153960C9110E073C1C301B401EE
:1052900028E030E040E050E000E80E94E91E5B01B9
:1052A0006C0197FD7DC10E94DE0E7C01009709F420
:1052B00059C185ED91E2F7019087878372866186F7
:1052C00088E090E00E949A02DC01009709F450C047
:1052D00008961996FC92EE921897F7012281338175
:1052E000F90191838083F7019383828312960D9154
:1052F0001C911397D3011E96ED91FC911F9760812D
:1053000071818281938161507040804090400E9401
:10531000DD19F801608371838283938360E072E01A
:1053200080E090E00E94DD19D80114966D937D9382
:105330008D939C931797C301B601A50120E00E94AD
:10534000791A8F859889F3016089A7010E948319D2
:10535000A114B104C104D10409F022C1D3019C9667
:105360004D915C919D978F85988950966C9169CFEE
:10537000C7010E94D90EF6C01FE0E12EF12CE80C07
:10538000F91CC7010E942F1A8B019C01F701B780FD
:10539000A084CC24DD24C3016F857889A401760123
:1053A00065010E94791FFCC0BFE0EB2EF12CE80CD8
:1053B000F91CC7010E942F1A8B019C01D701179677
:1053C000BC9017971896AC90CC24DD24C3016F8550
:1053D0007889A4017601650197D8E2C08401015F54
:1053E0001F4FC8010E942F1A6B877C878D879E876D
:1053F000F801978180851C0144245524D4015096DE
:105400008C9190E096958795F3010684F785E02DC1
:10541000FE83ED83DD24D394D82280FD05C020E0F7
:1054200030E040E050E009C0A2019101F9E0220F14
:10543000331F441F551FFA95D1F7C301B40100E093
:105440000E94E91E7B018C0197FDAAC09FB7F894CA
:10545000D301D7968C91D797882371F09FBFF40121
:105460004085518562857385D096ED90FC90D197EB
:10547000C30121E002E092C081E0F30180AF9FBF51
:10548000C301A701B80120E00E94791A2114310458
:105490004104510431F48F859889B3019701A80123
:1054A000D5CCDD2081F0D3019896ED91FC919997B0
:1054B0004085518562857385C30121E005E0E12CBB
:1054C000E4E2FE2E6BC0F301228E338E448E558EA5
:1054D000A6A4B7A4D50115961C921E92149782E13A
:1054E0009FE117969C938E9316978CEB9CE11996EF
:1054F0009C938E93189751967C926E9250978D81C3
:105500009E81B5012B853C854D855E8582017101AB
:10551000CC240E940C1A8E010F5F1F4F1A8309833F
:105520001C830B83C80160E072E0A20191010E941C
:105530004E1B6115710581059105A1F0F301668B84
:10554000778B808F918FD5011C96ED91FC911D97E3
:105550008D819E81B501A8010995892B09F1C801AA
:105560000E94311BC3010E94C71E1AC0F401168994
:10557000078920E030E0C3016F857889A40193D9C1
:105580000FC0D40118964D915D916D917C911B9740
:10559000C30121E005E0E12C30E2F32E0E944B1F15
:1055A00060960FB6F894DEBF0FBECDBFCF91DF91EE
:1055B0001F910F91FF90EF90DF90CF90BF90AF9031
:1055C0009F908F907F906F905F904F903F902F9023
:1055D00008950C94BC020895FF920F931F93CF93EC
:1055E000DF938C01EB01CB010E94631A6889188A52
:1055F000F988198A16161CF4C8010E9413151F1485
:1056000024F4C8016F2D0E9413156CA17DA18EA1F9
:105610009FA14FE150E0DDDF68A579A58AA59BA594
:105620004DE050E0D6DFECA5FDA580819181089783
:105630000E947E028CA59DA50E94D90E6EA57FA515
:105640008E859F850E94F604DF91CF911F910F9167
:10565000FF900895AF92BF92CF92DF92EF92FF92A8
:105660000F931F93CF93DF936C01452B11F088EFBD
:10567000A1C08B01FB0195878487CB010E94631A2F
:10568000C60161E840E450E00E94E31487FD91C048
:10569000F801808BC60162E040E450E00E94E31410
:1056A00087FD81C0F801818B868597850E94E7047C
:1056B000F80197A786A7892B09F46FC08DE090E0C9
:1056C0000E94BA1A9C01FB016115710509F45EC0C4
:1056D00085E593E5A2E4B3E580839183A283B38358
:1056E000F80160A771A722A733A78FE190E00E947D
:1056F000BA1AF62EE72EB82EA92E862F9E2D892BAC
:10570000E9F1F801F4A2E5A2B6A2A7A20E94DE0E7A
:10571000EC01009759F189EF95E298878F831A87FA
:105720000987F801D5A7C4A70E949302FC0100973E
:10573000D1F0F282E382B482A5828FE190E0978378
:105740008683CF010896D187C087EA81FB81918348
:1057500080839B838A83C601F8016189AE010E9420
:105760007D1280E027C0CE010E94D90EF80164A10D
:1057700075A186A197A14FE150E02BDFF80160A54C
:1057800071A582A593A54DE050E023DFF80166A541
:1057900077A5868597850E94F604F8016189118AAC
:1057A000C6010E941315F8016089108AC6010E9483
:1057B00013158FEFDF91CF911F910F91FF90EF9015
:1057C000DF90CF90BF90AF900895882311F45D9A39
:1057D00008955D9808958FB18095881F8827881F48
:1057E0000895882359F084B18260299884B984B1DE
:1057F00084602A9884B984B1877F0AC084B18D7F80
:10580000299884B984B18B7F2A9884B984B188603F
:105810002B9884B908959FB7F89485B7806885BFA1
:1058200085BF9FBF8AB180625D988AB984B1806468
:105830002E9A84B980B38F778F9A80BB81E0D1CFC5
:10584000629FD001739FF001829FE00DF11D649F64
:10585000E00DF11D929FF00D839FF00D749FF00DF0
:10586000659FF00D9927729FB00DE11DF91F639F91
:10587000B00DE11DF91FBD01CF0111240895AA1B30
:10588000BB1B51E107C0AA1FBB1FA617B70710F02B
:10589000A61BB70B881F991F5A95A9F7809590955D
:1058A000BC01CD01089597FB092E07260AD077FD8C
:1058B00004D0E5DF06D000201AF4709561957F4F83
:0C58C0000895F6F7909581959F4F08958C
:1058CC0000000010182829413A12010002000000C3
:1058DC0040EB03122101000000000109020000004E
:1058EC000000C002090400000208065000070581F0
:1058FC000240000007050202400000008005121F54
:10590C0000000041746D656C202020555342204DE1
:10591C006173732053746F72616765302E31200090
:10592C000000030080833031323334353637383958
:10593C004142002A2BEC2AC11D7B1D1C1B000000C0
:10594C00000000000000000000000000000000004B
:10595C00000000000000000000000000000000003B
:10596C0000000000000000000000000062020000C7
:04597C0060200000A7
:00000001FF
